{
  "_format": "hh-sol-artifact-1",
  "contractName": "SingletonFactory",
  "sourceName": "contracts/libraries/SingletonFactory.sol",
  "abi": [
    {
      "inputs": [
        {
          "internalType": "bytes",
          "name": "_initCode",
          "type": "bytes"
        },
        {
          "internalType": "bytes32",
          "name": "_salt",
          "type": "bytes32"
        }
      ],
      "name": "deploy",
      "outputs": [
        {
          "internalType": "address payable",
          "name": "createdContract",
          "type": "address"
        }
      ],
      "stateMutability": "nonpayable",
      "type": "function"
    }
  ],
  "bytecode": "0x608060405234801561001057600080fd5b50610134806100206000396000f3fe6080604052348015600f57600080fd5b506004361060285760003560e01c80634af63f0214602d575b600080fd5b60cf60048036036040811015604157600080fd5b810190602081018135640100000000811115605b57600080fd5b820183602082011115606c57600080fd5b80359060200191846001830284011164010000000083111715608d57600080fd5b91908080601f016020809104026020016040519081016040528093929190818152602001838380828437600092019190915250929550509135925060eb915050565b604080516001600160a01b039092168252519081900360200190f35b6000818351602085016000f5939250505056fea264697066735822122042e8afe74a68b0bfa6e67f0290f30b3d2cc3ab530a1a746dab6ebd8536495bc364736f6c63430006020033",
  "linkReferences": {},
  "deployedLinkReferences": {}
}