{
  "_format": "hh-sol-artifact-1",
  "contractName": "TornadoPool",
  "sourceName": "contracts/TornadoPool.sol",
  "abi": [
    {
      "inputs": [
        {
          "internalType": "contract IVerifier",
          "name": "_verifier2",
          "type": "address"
        },
        {
          "internalType": "contract IVerifier",
          "name": "_verifier16",
          "type": "address"
        },
        {
          "internalType": "uint32",
          "name": "_levels",
          "type": "uint32"
        },
        {
          "internalType": "address",
          "name": "_hasher",
          "type": "address"
        },
        {
          "internalType": "contract IERC20",
          "name": "_token",
          "type": "address"
        },
        {
          "internalType": "contract AbstractERC1155",
          "name": "_projectTokensContract",
          "type": "address"
        },
        {
          "internalType": "address",
          "name": "_multisig",
          "type": "address"
        }
      ],
      "stateMutability": "nonpayable",
      "type": "constructor"
    },
    {
      "anonymous": false,
      "inputs": [
        {
          "indexed": false,
          "internalType": "bytes32",
          "name": "commitment",
          "type": "bytes32"
        },
        {
          "indexed": false,
          "internalType": "uint256",
          "name": "index",
          "type": "uint256"
        },
        {
          "indexed": false,
          "internalType": "bytes",
          "name": "encryptedOutput",
          "type": "bytes"
        }
      ],
      "name": "NewCommitment",
      "type": "event"
    },
    {
      "anonymous": false,
      "inputs": [
        {
          "indexed": false,
          "internalType": "bytes32",
          "name": "nullifier",
          "type": "bytes32"
        }
      ],
      "name": "NewNullifier",
      "type": "event"
    },
    {
      "anonymous": false,
      "inputs": [
        {
          "indexed": true,
          "internalType": "address",
          "name": "owner",
          "type": "address"
        },
        {
          "indexed": false,
          "internalType": "bytes",
          "name": "key",
          "type": "bytes"
        }
      ],
      "name": "PublicKey",
      "type": "event"
    },
    {
      "inputs": [],
      "name": "FIELD_SIZE",
      "outputs": [
        {
          "internalType": "uint256",
          "name": "",
          "type": "uint256"
        }
      ],
      "stateMutability": "view",
      "type": "function"
    },
    {
      "inputs": [],
      "name": "MAX_EXT_AMOUNT",
      "outputs": [
        {
          "internalType": "int256",
          "name": "",
          "type": "int256"
        }
      ],
      "stateMutability": "view",
      "type": "function"
    },
    {
      "inputs": [],
      "name": "MAX_FEE",
      "outputs": [
        {
          "internalType": "uint256",
          "name": "",
          "type": "uint256"
        }
      ],
      "stateMutability": "view",
      "type": "function"
    },
    {
      "inputs": [],
      "name": "MIN_EXT_AMOUNT_LIMIT",
      "outputs": [
        {
          "internalType": "uint256",
          "name": "",
          "type": "uint256"
        }
      ],
      "stateMutability": "view",
      "type": "function"
    },
    {
      "inputs": [],
      "name": "ROOT_HISTORY_SIZE",
      "outputs": [
        {
          "internalType": "uint32",
          "name": "",
          "type": "uint32"
        }
      ],
      "stateMutability": "view",
      "type": "function"
    },
    {
      "inputs": [],
      "name": "ZERO_VALUE",
      "outputs": [
        {
          "internalType": "uint256",
          "name": "",
          "type": "uint256"
        }
      ],
      "stateMutability": "view",
      "type": "function"
    },
    {
      "inputs": [],
      "name": "__gap",
      "outputs": [
        {
          "internalType": "uint256",
          "name": "",
          "type": "uint256"
        }
      ],
      "stateMutability": "view",
      "type": "function"
    },
    {
      "inputs": [
        {
          "internalType": "int256",
          "name": "_extAmount",
          "type": "int256"
        },
        {
          "internalType": "uint256",
          "name": "_fee",
          "type": "uint256"
        }
      ],
      "name": "calculatePublicAmount",
      "outputs": [
        {
          "internalType": "uint256",
          "name": "",
          "type": "uint256"
        }
      ],
      "stateMutability": "pure",
      "type": "function"
    },
    {
      "inputs": [
        {
          "internalType": "uint256",
          "name": "_maximumDepositAmount",
          "type": "uint256"
        }
      ],
      "name": "configureLimits",
      "outputs": [],
      "stateMutability": "nonpayable",
      "type": "function"
    },
    {
      "inputs": [],
      "name": "currentRootIndex",
      "outputs": [
        {
          "internalType": "uint32",
          "name": "",
          "type": "uint32"
        }
      ],
      "stateMutability": "view",
      "type": "function"
    },
    {
      "inputs": [
        {
          "internalType": "uint256",
          "name": "",
          "type": "uint256"
        }
      ],
      "name": "filledSubtrees",
      "outputs": [
        {
          "internalType": "bytes32",
          "name": "",
          "type": "bytes32"
        }
      ],
      "stateMutability": "view",
      "type": "function"
    },
    {
      "inputs": [],
      "name": "getLastRoot",
      "outputs": [
        {
          "internalType": "bytes32",
          "name": "",
          "type": "bytes32"
        }
      ],
      "stateMutability": "view",
      "type": "function"
    },
    {
      "inputs": [
        {
          "internalType": "bytes32",
          "name": "_left",
          "type": "bytes32"
        },
        {
          "internalType": "bytes32",
          "name": "_right",
          "type": "bytes32"
        }
      ],
      "name": "hashLeftRight",
      "outputs": [
        {
          "internalType": "bytes32",
          "name": "",
          "type": "bytes32"
        }
      ],
      "stateMutability": "view",
      "type": "function"
    },
    {
      "inputs": [],
      "name": "hasher",
      "outputs": [
        {
          "internalType": "contract IHasher",
          "name": "",
          "type": "address"
        }
      ],
      "stateMutability": "view",
      "type": "function"
    },
    {
      "inputs": [
        {
          "internalType": "uint256",
          "name": "_maximumDepositAmount",
          "type": "uint256"
        }
      ],
      "name": "initialize",
      "outputs": [],
      "stateMutability": "nonpayable",
      "type": "function"
    },
    {
      "inputs": [
        {
          "internalType": "bytes32",
          "name": "_root",
          "type": "bytes32"
        }
      ],
      "name": "isKnownRoot",
      "outputs": [
        {
          "internalType": "bool",
          "name": "",
          "type": "bool"
        }
      ],
      "stateMutability": "view",
      "type": "function"
    },
    {
      "inputs": [
        {
          "internalType": "bytes32",
          "name": "_nullifierHash",
          "type": "bytes32"
        }
      ],
      "name": "isPending",
      "outputs": [
        {
          "internalType": "bool",
          "name": "",
          "type": "bool"
        }
      ],
      "stateMutability": "view",
      "type": "function"
    },
    {
      "inputs": [
        {
          "internalType": "bytes32",
          "name": "_nullifierHash",
          "type": "bytes32"
        }
      ],
      "name": "isSpent",
      "outputs": [
        {
          "internalType": "bool",
          "name": "",
          "type": "bool"
        }
      ],
      "stateMutability": "view",
      "type": "function"
    },
    {
      "inputs": [],
      "name": "lastBalance",
      "outputs": [
        {
          "internalType": "uint256",
          "name": "",
          "type": "uint256"
        }
      ],
      "stateMutability": "view",
      "type": "function"
    },
    {
      "inputs": [],
      "name": "levels",
      "outputs": [
        {
          "internalType": "uint32",
          "name": "",
          "type": "uint32"
        }
      ],
      "stateMutability": "view",
      "type": "function"
    },
    {
      "inputs": [],
      "name": "maximumDepositAmount",
      "outputs": [
        {
          "internalType": "uint256",
          "name": "",
          "type": "uint256"
        }
      ],
      "stateMutability": "view",
      "type": "function"
    },
    {
      "inputs": [],
      "name": "multisig",
      "outputs": [
        {
          "internalType": "address",
          "name": "",
          "type": "address"
        }
      ],
      "stateMutability": "view",
      "type": "function"
    },
    {
      "inputs": [],
      "name": "nextIndex",
      "outputs": [
        {
          "internalType": "uint32",
          "name": "",
          "type": "uint32"
        }
      ],
      "stateMutability": "view",
      "type": "function"
    },
    {
      "inputs": [
        {
          "internalType": "bytes32",
          "name": "",
          "type": "bytes32"
        }
      ],
      "name": "nullifierHashes",
      "outputs": [
        {
          "internalType": "bool",
          "name": "",
          "type": "bool"
        }
      ],
      "stateMutability": "view",
      "type": "function"
    },
    {
      "inputs": [
        {
          "internalType": "address",
          "name": "",
          "type": "address"
        },
        {
          "internalType": "address",
          "name": "",
          "type": "address"
        },
        {
          "internalType": "uint256[]",
          "name": "",
          "type": "uint256[]"
        },
        {
          "internalType": "uint256[]",
          "name": "values",
          "type": "uint256[]"
        },
        {
          "internalType": "bytes",
          "name": "",
          "type": "bytes"
        }
      ],
      "name": "onERC1155BatchReceived",
      "outputs": [
        {
          "internalType": "bytes4",
          "name": "",
          "type": "bytes4"
        }
      ],
      "stateMutability": "pure",
      "type": "function"
    },
    {
      "inputs": [
        {
          "internalType": "address",
          "name": "",
          "type": "address"
        },
        {
          "internalType": "address",
          "name": "",
          "type": "address"
        },
        {
          "internalType": "uint256",
          "name": "",
          "type": "uint256"
        },
        {
          "internalType": "uint256",
          "name": "value",
          "type": "uint256"
        },
        {
          "internalType": "bytes",
          "name": "",
          "type": "bytes"
        }
      ],
      "name": "onERC1155Received",
      "outputs": [
        {
          "internalType": "bytes4",
          "name": "",
          "type": "bytes4"
        }
      ],
      "stateMutability": "pure",
      "type": "function"
    },
    {
      "inputs": [
        {
          "internalType": "bytes32",
          "name": "",
          "type": "bytes32"
        }
      ],
      "name": "pendingNullifierHashes",
      "outputs": [
        {
          "internalType": "bool",
          "name": "",
          "type": "bool"
        }
      ],
      "stateMutability": "view",
      "type": "function"
    },
    {
      "inputs": [
        {
          "internalType": "uint256",
          "name": "",
          "type": "uint256"
        }
      ],
      "name": "projectTokenToOwner",
      "outputs": [
        {
          "internalType": "address",
          "name": "",
          "type": "address"
        }
      ],
      "stateMutability": "view",
      "type": "function"
    },
    {
      "inputs": [],
      "name": "projectTokensContract",
      "outputs": [
        {
          "internalType": "contract AbstractERC1155",
          "name": "",
          "type": "address"
        }
      ],
      "stateMutability": "view",
      "type": "function"
    },
    {
      "inputs": [
        {
          "components": [
            {
              "internalType": "address",
              "name": "owner",
              "type": "address"
            },
            {
              "internalType": "bytes",
              "name": "publicKey",
              "type": "bytes"
            }
          ],
          "internalType": "struct TornadoPool.Account",
          "name": "_account",
          "type": "tuple"
        }
      ],
      "name": "register",
      "outputs": [],
      "stateMutability": "nonpayable",
      "type": "function"
    },
    {
      "inputs": [
        {
          "components": [
            {
              "internalType": "address",
              "name": "owner",
              "type": "address"
            },
            {
              "internalType": "bytes",
              "name": "publicKey",
              "type": "bytes"
            }
          ],
          "internalType": "struct TornadoPool.Account",
          "name": "_account",
          "type": "tuple"
        },
        {
          "components": [
            {
              "internalType": "bytes",
              "name": "proof",
              "type": "bytes"
            },
            {
              "internalType": "bytes32",
              "name": "root",
              "type": "bytes32"
            },
            {
              "internalType": "bytes32[]",
              "name": "inputNullifiers",
              "type": "bytes32[]"
            },
            {
              "internalType": "bytes32[2]",
              "name": "outputCommitments",
              "type": "bytes32[2]"
            },
            {
              "internalType": "uint256",
              "name": "publicAmount",
              "type": "uint256"
            },
            {
              "internalType": "uint256",
              "name": "publicTokenId",
              "type": "uint256"
            },
            {
              "internalType": "bytes32",
              "name": "extDataHash",
              "type": "bytes32"
            }
          ],
          "internalType": "struct TornadoPool.Proof",
          "name": "_proofArgs",
          "type": "tuple"
        },
        {
          "components": [
            {
              "internalType": "address",
              "name": "recipient",
              "type": "address"
            },
            {
              "internalType": "int256",
              "name": "extAmount",
              "type": "int256"
            },
            {
              "internalType": "uint256",
              "name": "publicTokenId",
              "type": "uint256"
            },
            {
              "internalType": "address",
              "name": "relayer",
              "type": "address"
            },
            {
              "internalType": "uint256",
              "name": "fee",
              "type": "uint256"
            },
            {
              "internalType": "bytes",
              "name": "encryptedOutput1",
              "type": "bytes"
            },
            {
              "internalType": "bytes",
              "name": "encryptedOutput2",
              "type": "bytes"
            }
          ],
          "internalType": "struct TornadoPool.ExtData",
          "name": "_extData",
          "type": "tuple"
        }
      ],
      "name": "registerAndTransact",
      "outputs": [],
      "stateMutability": "nonpayable",
      "type": "function"
    },
    {
      "inputs": [
        {
          "internalType": "contract IERC20",
          "name": "_token",
          "type": "address"
        },
        {
          "internalType": "address payable",
          "name": "_to",
          "type": "address"
        },
        {
          "internalType": "uint256",
          "name": "_balance",
          "type": "uint256"
        }
      ],
      "name": "rescueTokens",
      "outputs": [],
      "stateMutability": "nonpayable",
      "type": "function"
    },
    {
      "inputs": [
        {
          "internalType": "uint256",
          "name": "",
          "type": "uint256"
        }
      ],
      "name": "roots",
      "outputs": [
        {
          "internalType": "bytes32",
          "name": "",
          "type": "bytes32"
        }
      ],
      "stateMutability": "view",
      "type": "function"
    },
    {
      "inputs": [
        {
          "internalType": "string",
          "name": "_newUri",
          "type": "string"
        }
      ],
      "name": "setProjectTokensURI",
      "outputs": [],
      "stateMutability": "nonpayable",
      "type": "function"
    },
    {
      "inputs": [
        {
          "internalType": "bytes4",
          "name": "interfaceID",
          "type": "bytes4"
        }
      ],
      "name": "supportsInterface",
      "outputs": [
        {
          "internalType": "bool",
          "name": "",
          "type": "bool"
        }
      ],
      "stateMutability": "pure",
      "type": "function"
    },
    {
      "inputs": [],
      "name": "token",
      "outputs": [
        {
          "internalType": "contract IERC20",
          "name": "",
          "type": "address"
        }
      ],
      "stateMutability": "view",
      "type": "function"
    },
    {
      "inputs": [
        {
          "components": [
            {
              "internalType": "bytes",
              "name": "proof",
              "type": "bytes"
            },
            {
              "internalType": "bytes32",
              "name": "root",
              "type": "bytes32"
            },
            {
              "internalType": "bytes32[]",
              "name": "inputNullifiers",
              "type": "bytes32[]"
            },
            {
              "internalType": "bytes32[2]",
              "name": "outputCommitments",
              "type": "bytes32[2]"
            },
            {
              "internalType": "uint256",
              "name": "publicAmount",
              "type": "uint256"
            },
            {
              "internalType": "uint256",
              "name": "publicTokenId",
              "type": "uint256"
            },
            {
              "internalType": "bytes32",
              "name": "extDataHash",
              "type": "bytes32"
            }
          ],
          "internalType": "struct TornadoPool.Proof",
          "name": "_args",
          "type": "tuple"
        },
        {
          "components": [
            {
              "internalType": "address",
              "name": "recipient",
              "type": "address"
            },
            {
              "internalType": "int256",
              "name": "extAmount",
              "type": "int256"
            },
            {
              "internalType": "uint256",
              "name": "publicTokenId",
              "type": "uint256"
            },
            {
              "internalType": "address",
              "name": "relayer",
              "type": "address"
            },
            {
              "internalType": "uint256",
              "name": "fee",
              "type": "uint256"
            },
            {
              "internalType": "bytes",
              "name": "encryptedOutput1",
              "type": "bytes"
            },
            {
              "internalType": "bytes",
              "name": "encryptedOutput2",
              "type": "bytes"
            }
          ],
          "internalType": "struct TornadoPool.ExtData",
          "name": "_extData",
          "type": "tuple"
        }
      ],
      "name": "transact",
      "outputs": [],
      "stateMutability": "nonpayable",
      "type": "function"
    },
    {
      "inputs": [],
      "name": "verifier16",
      "outputs": [
        {
          "internalType": "contract IVerifier",
          "name": "",
          "type": "address"
        }
      ],
      "stateMutability": "view",
      "type": "function"
    },
    {
      "inputs": [],
      "name": "verifier2",
      "outputs": [
        {
          "internalType": "contract IVerifier",
          "name": "",
          "type": "address"
        }
      ],
      "stateMutability": "view",
      "type": "function"
    },
    {
      "inputs": [
        {
          "components": [
            {
              "internalType": "bytes",
              "name": "proof",
              "type": "bytes"
            },
            {
              "internalType": "bytes32",
              "name": "root",
              "type": "bytes32"
            },
            {
              "internalType": "bytes32[]",
              "name": "inputNullifiers",
              "type": "bytes32[]"
            },
            {
              "internalType": "bytes32[2]",
              "name": "outputCommitments",
              "type": "bytes32[2]"
            },
            {
              "internalType": "uint256",
              "name": "publicAmount",
              "type": "uint256"
            },
            {
              "internalType": "uint256",
              "name": "publicTokenId",
              "type": "uint256"
            },
            {
              "internalType": "bytes32",
              "name": "extDataHash",
              "type": "bytes32"
            }
          ],
          "internalType": "struct TornadoPool.Proof",
          "name": "_args",
          "type": "tuple"
        }
      ],
      "name": "verifyProof",
      "outputs": [
        {
          "internalType": "bool",
          "name": "",
          "type": "bool"
        }
      ],
      "stateMutability": "view",
      "type": "function"
    },
    {
      "inputs": [
        {
          "internalType": "uint256",
          "name": "i",
          "type": "uint256"
        }
      ],
      "name": "zeros",
      "outputs": [
        {
          "internalType": "bytes32",
          "name": "",
          "type": "bytes32"
        }
      ],
      "stateMutability": "pure",
      "type": "function"
    }
  ],
  "bytecode": "0x610160604052600380546001600160401b03191690553480156200002257600080fd5b5060405162003a0f38038062003a0f833981016040819052620000459162000174565b848460008263ffffffff16116200008e5760405162461bcd60e51b8152600401808060200182810382526023815260200180620039ec6023913960400191505060405180910390fd5b60208263ffffffff1610620000ea576040805162461bcd60e51b815260206004820152601e60248201527f5f6c6576656c732073686f756c64206265206c657373207468616e2033320000604482015290519081900360640190fd5b6001600160e01b031960e092831b1660a0526001600160601b0319606091821b8116608052600160045598811b891660c05296871b8816905291851b861661010052841b85166101205290921b90921661014052506200027c9050565b805162000154816200024c565b92915050565b8051620001548162000266565b8051620001548162000271565b600080600080600080600060e0888a0312156200018f578283fd5b6200019d89848a016200015a565b96506020620001af8a828b016200015a565b9650506040620001c28a828b0162000167565b9550506060620001d58a828b0162000147565b9450506080620001e88a828b016200015a565b93505060a0620001fb8a828b016200015a565b92505060c06200020e8a828b0162000147565b91505092959891949750929550565b6000620001548262000237565b600062000154826200021d565b6001600160a01b031690565b63ffffffff1690565b62000257816200021d565b81146200026357600080fd5b50565b62000257816200022a565b620002578162000243565b60805160601c60a05160e01c60c05160601c60e05160601c6101005160601c6101205160601c6101405160601c6136b26200033a600039806107725280610dd05280610e215280610f0752508061073c5280610e755280611c6e525080610f6c528061185f5280611a2f5280611b3b5280611bdf5280611d2952508061057c52806109135250806107a65280610c25525080610c015280611f345280611f9d5280612216528061229952508061068b52806117f352506136b26000f3fe608060405234801561001057600080fd5b50600436106101e35760003560e01c806301ffc9a7146101e857806317cc915c1461021157806324082014146102245780632570b7b4146102395780632d08050a146102595780632fc0355f1461026157806335f080051461027657806338bf282e146102965780633c545392146102a9578063414a37ba146102b15780634783c35b146102b95780634c6669dc146102c15780634ecf518b146102d4578063522d0d70146102e95780636d9833e3146102f157806378abb49b146103045780637fe24ffe1461030c5780638f1c56bd1461031457806390eeb02b1461031c5780639c4c4f5114610324578063a23498de14610337578063b2bc6e0f1461034a578063ba70f7571461035d578063bc063e1a1461030c578063bc197c8114610365578063bda06f0714610385578063c03575db14610398578063c2b40ae4146103ab578063cb3dce9d146103be578063cd87a3b4146103c6578063cea9d26f146103ce578063e5285dcc146103e1578063e531d8c7146103f4578063e829558814610407578063ec7329591461041a578063ed33639f14610422578063f178e47c1461042a578063f23a6e611461043d578063fc0c546a14610450578063fc7e9c6f14610458578063fe4b84df14610460575b600080fd5b6101fb6101f6366004612950565b610473565b604051610208919061320b565b60405180910390f35b6101fb61021f3660046128fb565b6104ac565b610237610232366004612a20565b6104c1565b005b61024c610247366004612918565b6104d9565b6040516102089190613219565b61024c61056e565b61026961057a565b60405161020891906132b5565b6102896102843660046128fb565b61059e565b604051610208919061316b565b61024c6102a4366004612918565b6105b9565b61026961073a565b61024c61075e565b610289610770565b6101fb6102cf366004612aa5565b610794565b6102dc610bff565b6040516102089190613404565b610269610c23565b6101fb6102ff3660046128fb565b610c47565b61024c610cb7565b61024c610cbd565b61024c610cc5565b6102dc610ccb565b610237610332366004612ad9565b610cd7565b6101fb6103453660046128fb565b610ce5565b6102376103583660046129ec565b610cfa565b61024c610d2f565b6103786103733660046127cd565b610d4a565b6040516102089190613254565b6102376103933660046128fb565b610dc5565b6102376103a63660046129b8565b610e16565b61024c6103b93660046128fb565b610edf565b61024c610ef1565b6102dc610ef7565b6102376103dc36600461296d565b610efc565b6101fb6103ef3660046128fb565b611157565b6101fb6104023660046128fb565b61116c565b61024c6104153660046128fb565b611181565b61024c6117df565b6102696117f1565b61024c6104383660046128fb565b611815565b61037861044b366004612882565b611827565b61026961185d565b6102dc611881565b61023761046e3660046128fb565b611894565b60006301ffc9a760e01b6001600160e01b0319831614806104a45750630271189760e51b6001600160e01b03198316145b90505b919050565b60086020526000908152604090205460ff1681565b6104ca83610cfa565b6104d48282610cd7565b505050565b6000600160f81b82106105075760405162461bcd60e51b81526004016104fe90613343565b60405180910390fd5b6001600160f81b0319831380156105215750600160f81b83125b61053d5760405162461bcd60e51b81526004016104fe906132e3565b8183036000811215610562578060000360008051602061362d83398151915203610564565b805b9150505b92915050565b6706f05b59d3b2000081565b7f000000000000000000000000000000000000000000000000000000000000000081565b600a602052600090815260409020546001600160a01b031681565b600060008051602061362d833981519152831061061d576040805162461bcd60e51b815260206004820181905260248201527f5f6c6566742073686f756c6420626520696e7369646520746865206669656c64604482015290519081900360640190fd5b60008051602061362d83398151915282106106695760405162461bcd60e51b81526004018080602001828103825260218152602001806135be6021913960400191505060405180910390fd5b6106716123ac565b838152602081018390526040805163014cf2b360e51b81527f00000000000000000000000000000000000000000000000000000000000000006001600160a01b03169163299e56609184916004909101908190839080838360005b838110156106e45781810151838201526020016106cc565b5050505090500191505060206040518083038186803b15801561070657600080fd5b505afa15801561071a573d6000803e3d6000fd5b505050506040513d602081101561073057600080fd5b5051949350505050565b7f000000000000000000000000000000000000000000000000000000000000000081565b60008051602061362d83398151915281565b7f000000000000000000000000000000000000000000000000000000000000000081565b600081604001515160021415610903577f00000000000000000000000000000000000000000000000000000000000000006001600160a01b031663449ccd1e8360000151604051806101000160405280866020015160001c8152602001866080015181526020018660a0015181526020018660c0015160001c8152602001866040015160008151811061082357fe5b602002602001015160001c8152602001866040015160018151811061084457fe5b602002602001015160001c8152602001866060015160006002811061086557fe5b602002015160001c8152602001866060015160016002811061088357fe5b602002015190526040516001600160e01b031960e085901b1681526108ac929190600401613294565b60206040518083038186803b1580156108c457600080fd5b505afa1580156108d8573d6000803e3d6000fd5b505050506040513d601f19601f820116820180604052508101906108fc91906128d7565b90506104a7565b81604001515160101415610be7577f00000000000000000000000000000000000000000000000000000000000000006001600160a01b0316634a2f947d8360000151604051806102c00160405280866020015160001c8152602001866080015181526020018660a0015181526020018660c0015160001c8152602001866040015160008151811061099057fe5b602002602001015160001c815260200186604001516001815181106109b157fe5b602002602001015160001c815260200186604001516002815181106109d257fe5b602002602001015160001c815260200186604001516003815181106109f357fe5b602002602001015160001c81526020018660400151600481518110610a1457fe5b602002602001015160001c81526020018660400151600581518110610a3557fe5b602002602001015160001c81526020018660400151600681518110610a5657fe5b602002602001015160001c81526020018660400151600781518110610a7757fe5b602002602001015160001c81526020018660400151600881518110610a9857fe5b602002602001015160001c81526020018660400151600981518110610ab957fe5b602002602001015160001c81526020018660400151600a81518110610ada57fe5b602002602001015160001c81526020018660400151600b81518110610afb57fe5b602002602001015160001c81526020018660400151600c81518110610b1c57fe5b602002602001015160001c81526020018660400151600d81518110610b3d57fe5b602002602001015160001c81526020018660400151600e81518110610b5e57fe5b602002602001015160001c81526020018660400151600f81518110610b7f57fe5b602002602001015160001c81526020018660600151600060028110610ba057fe5b602002015160001c81526020018660600151600160028110610bbe57fe5b602002015190526040516001600160e01b031960e085901b1681526108ac929190600401613273565b60405162461bcd60e51b81526004016104fe906133d3565b7f000000000000000000000000000000000000000000000000000000000000000081565b7f000000000000000000000000000000000000000000000000000000000000000081565b600081610c56575060006104a7565b60035463ffffffff16805b63ffffffff8116600090815260026020526040902054841415610c89576001925050506104a7565b63ffffffff8116610c98575060645b6000190163ffffffff8082169083161415610c61575060009392505050565b60075481565b600160f81b81565b60055481565b60035463ffffffff1681565b610ce18282611947565b5050565b60096020526000908152604090205460ff1681565b80516001600160a01b03163314610d235760405162461bcd60e51b81526004016104fe906132c3565b610d2c81611ecd565b50565b60035463ffffffff1660009081526002602052604090205490565b60006001815b8451811015610d8157848181518110610d6557fe5b6020026020010151600014610d7957600091505b600101610d50565b5060018115151415610db6577fbc197c819b3e337a6f9652dd10becd7eef83032af3b9d958d3d42f6694146621915050610dbc565b60009150505b95945050505050565b336001600160a01b037f00000000000000000000000000000000000000000000000000000000000000001614610e0d5760405162461bcd60e51b81526004016104fe90613323565b610d2c81611f19565b336001600160a01b037f00000000000000000000000000000000000000000000000000000000000000001614610e5e5760405162461bcd60e51b81526004016104fe90613323565b6040516302fe530560e01b81526001600160a01b037f000000000000000000000000000000000000000000000000000000000000000016906302fe530590610eaa908490600401613262565b600060405180830381600087803b158015610ec457600080fd5b505af1158015610ed8573d6000803e3d6000fd5b5050505050565b60026020526000908152604090205481565b60065481565b606481565b336001600160a01b037f00000000000000000000000000000000000000000000000000000000000000001614610f445760405162461bcd60e51b81526004016104fe90613323565b6001600160a01b038216610f6a5760405162461bcd60e51b81526004016104fe906133b3565b7f00000000000000000000000000000000000000000000000000000000000000006001600160a01b0316836001600160a01b03161415610fbc5760405162461bcd60e51b81526004016104fe90613373565b6001600160a01b03831661101c574760008215610fd95782610fdb565b815b6040519091506001600160a01b0385169082156108fc029083906000818181858888f19350505050158015611014573d6000803e3d6000fd5b5050506104d4565b6040516370a0823160e01b81526000906001600160a01b038516906370a082319061104b90309060040161316b565b60206040518083038186803b15801561106357600080fd5b505afa158015611077573d6000803e3d6000fd5b505050506040513d601f19601f8201168201806040525081019061109b9190612b35565b9050600082156110ab57826110ad565b815b9050600081116110cf5760405162461bcd60e51b81526004016104fe906133c3565b60405163a9059cbb60e01b81526001600160a01b0386169063a9059cbb906110fd90879085906004016131a9565b602060405180830381600087803b15801561111757600080fd5b505af115801561112b573d6000803e3d6000fd5b505050506040513d601f19601f8201168201806040525081019061114f91906128d7565b505050505050565b60009081526008602052604090205460ff1690565b60009081526009602052604090205460ff1690565b60008161119d57506000805160206135df8339815191526104a7565b81600114156111cd57507f1a332ca2cd2436bdc6796e6e4244ebf6f7e359868b7252e55342f766e40880826104a7565b81600214156111fd57507f2fb19ac27499bdf9d7d3b387eff42b6d12bffbc6206e81d0ef0b0d6b24520ebd6104a7565b816003141561122d57507f18d0d6e282d4eacbf18efc619a986db763b75095ed122fac7d4a49418daa42e16104a7565b816004141561125d57507f054dec40f76a0f5aaeff1a85a4a3721b92b4ad244362d30b0ef8ed7033de11d36104a7565b816005141561128d57507f1d24c91f8d40f1c2591edec19d392905cf5eb01eada48d71836177ef11aea5b26104a7565b81600614156112bd57507f0fb63621cfc047eba2159faecfa55b120d7c81c0722633ef94e20e27675e378f6104a7565b81600714156112ed57507f277b08f214fe8c5504a79614cdec5abd7b6adc9133fe926398684c82fd798b446104a7565b816008141561131d57507f2633613437c1fd97f7c798e2ea30d52cfddee56d74f856a541320ae86ddaf2de6104a7565b816009141561134c57507e768963fa4b993fbfece3619bfaa3ca4afd7e3864f11b09a0849dbf4ad258076104a7565b81600a141561137c57507f0e63ff9df484c1a21478bd27111763ef203177ec0a7ef3a3cd43ec909f587bb06104a7565b81600b14156113ac57507f0e6a4bfb0dd0ac8bf5517eaac48a95ba783dabe9f64494f9c892d3e8431eaab36104a7565b81600c14156113dc57507f0164a46b3ffff8baca00de7a130a63d105f1578076838502b99488505d5b3d356104a7565b81600d141561140c57507f145a6f1521c02b250cc76eb35cd67c9b0b22473577de3778e4c51903836c89576104a7565b81600e141561143c57507f29849fc5b55303a660bad33d986fd156d48516ec58a0f0a561a03b704a8022546104a7565b81600f141561146c57507f26639dd486b374e98ac6da34e8651b3fca58c51f1c2f857dd82045f27fc8dbe66104a7565b816010141561149c57507f2aa39214b887ee877e60afdb191390344c68177c30a0b8646649774174de5e336104a7565b81601114156114cc57507f09b397d253e41a521d042ffe01f8c33ae37d4c7da21af68693aafb63d599d7086104a7565b81601214156114fc57507f02fbfd397ad901cea38553239aefec016fcb6a19899038503f04814cbb79a5116104a7565b816013141561152c57507f266640a877ec97a91f6c95637f843eeac8718f53f311bac9cba7d958df646f9d6104a7565b816014141561155c57507f29f9a0a07a22ab214d00aaa0190f54509e853f3119009baecb0035347606b0a96104a7565b816015141561158c57507f0a1fda67bffa0ab3a755f23fdcf922720820b6a96616a5ca34643cd0b935e3d66104a7565b81601614156115bc57507f19507199eb76b5ec5abe538a01471d03efb6c6984739c77ec61ada2ba2afb3896104a7565b81601714156115ec57507f26bd93d26b751484942282e27acfb6d193537327a831df6927e19cdfc73c3e646104a7565b816018141561161c57507f2eb88a9c6b00a4bc6ea253268090fe1d255f6fe02d2eb745517723aae44d73866104a7565b816019141561164c57507f13e50d0bda78be97792df40273cbb16f0dc65c0697d81a82d07d0f6eee80a1646104a7565b81601a141561167c57507f2ea95776929000133246ff8d9fdcba179d0b262b9e910558309bac1c1ec03d7a6104a7565b81601b14156116ac57507f1a640d6ef66e356c795396c0957b06a99891afe0c493f4d0bdfc0450764bae606104a7565b81601c14156116dc57507f2b17979f2c2048dd9e4ee5f482cced21435ea8cc54c32f80562e39a5016b04966104a7565b81601d141561170c57507f29ba6a30de50542e261abfc7ee0c68911002d3acd4dd4c02ad59aa96805b20bb6104a7565b81601e141561173c57507f103fcf1c8a98ebe50285f6e669077a579308311fd44bb6895d5da7ba7fd3564e6104a7565b81601f141561176c57507f166bdd01780976e655f5278260c638dcf10fe7c136f37c9152cbcaabef901f4d6104a7565b816020141561179c57507f2712c601a9b8b2abd396a619327095d3f1ea86a6c07d6df416a3973a1a4b3ce56104a7565b6040805162461bcd60e51b8152602060048201526013602482015272496e646578206f7574206f6620626f756e647360681b604482015290519081900360640190fd5b6000805160206135df83398151915281565b7f000000000000000000000000000000000000000000000000000000000000000081565b60016020526000908152604090205481565b60008261185557507ff23a6e612e1ff4830e658fe43f4e3cb4a5f8170bd5d9e69fb5d7a7fa9e4fdf97610dbc565b506000610dbc565b7f000000000000000000000000000000000000000000000000000000000000000081565b600354600160201b900463ffffffff1681565b600054610100900460ff16806118ad57506118ad611f1e565b806118bb575060005460ff16155b6118f65760405162461bcd60e51b815260040180806020018281038252602e8152602001806135ff602e913960400191505060405180910390fd5b600054610100900460ff16158015611921576000805460ff1961ff0019909116610100171660011790555b61192a82611f19565b611932611f2f565b8015610ce1576000805461ff00191690555050565b6002600454141561199f576040805162461bcd60e51b815260206004820152601f60248201527f5265656e7472616e637947756172643a207265656e7472616e742063616c6c00604482015290519081900360640190fd5b60026004556119ae8282611ff4565b60005b826040015151811015611a0557600160086000856040015184815181106119d457fe5b6020908102919091018101518252810191909152604001600020805460ff19169115159190911790556001016119b1565b50600081602001511315611ae05760208101516040516323b872dd60e01b81526001600160a01b037f000000000000000000000000000000000000000000000000000000000000000016916323b872dd91611a67913391309190600401613179565b602060405180830381600087803b158015611a8157600080fd5b505af1158015611a95573d6000803e3d6000fd5b505050506040513d601f19601f82011682018060405250810190611ab991906128d7565b5060075481602001511115611ae05760405162461bcd60e51b81526004016104fe906133e3565b600081602001511215611cfe5780516001600160a01b0316611b145760405162461bcd60e51b81526004016104fe90613313565b6040810151611c6c578051602082015160405163a9059cbb60e01b81526001600160a01b037f0000000000000000000000000000000000000000000000000000000000000000169263a9059cbb92611b7592600091909103906004016131c4565b602060405180830381600087803b158015611b8f57600080fd5b505af1158015611ba3573d6000803e3d6000fd5b505050506040513d601f19601f82011682018060405250810190611bc791906128d7565b506040516370a0823160e01b81526001600160a01b037f000000000000000000000000000000000000000000000000000000000000000016906370a0823190611c1490309060040161316b565b60206040518083038186803b158015611c2c57600080fd5b505afa158015611c40573d6000803e3d6000fd5b505050506040513d601f19601f82011682018060405250810190611c649190612b35565b600555611cfe565b7f00000000000000000000000000000000000000000000000000000000000000006001600160a01b031663731133e98260000151836040015184602001516000036040518463ffffffff1660e01b8152600401611ccb939291906131d2565b600060405180830381600087803b158015611ce557600080fd5b505af1158015611cf9573d6000803e3d6000fd5b505050505b608081015115611db0576060810151608082015160405163a9059cbb60e01b81526001600160a01b037f0000000000000000000000000000000000000000000000000000000000000000169263a9059cbb92611d5c926004016131c4565b602060405180830381600087803b158015611d7657600080fd5b505af1158015611d8a573d6000803e3d6000fd5b505050506040513d601f19601f82011682018060405250810190611dae91906128d7565b505b60608201518051602090910151611dc791906121fe565b5060608201515160035460a083015160405160008051602061359e83398151915293611e07939092600160201b90910463ffffffff166001190191613227565b60405180910390a1606082015160008051602061359e83398151915290600160200201516001600360049054906101000a900463ffffffff16038360c00151604051611e5593929190613227565b60405180910390a160005b826040015151811015611ec3577f5e58f77bbf94b46d8d896e29753e4458c6e59b48581e20ed58c9558e96f297ce83604001518281518110611e9e57fe5b6020026020010151604051611eb39190613219565b60405180910390a1600101611e60565b5050600160045550565b80600001516001600160a01b03167f2c1ca5c14df2aba59d26842c5ff53f6817052ef34f6f7537f8b4c9e3805a5e508260200151604051611f0e9190613262565b60405180910390a250565b600755565b6000611f29306123a6565b15905090565b60005b7f000000000000000000000000000000000000000000000000000000000000000063ffffffff168163ffffffff161015611f9757611f758163ffffffff16611181565b63ffffffff821660009081526001602081905260409091209190915501611f32565b50611fc77f000000000000000000000000000000000000000000000000000000000000000063ffffffff16611181565b6000805260026020527fac33ff75c19e70fe83507db0d683fd3465c996598dc972688b7ace676c89077b55565b6120018260200151610c47565b61201d5760405162461bcd60e51b81526004016104fe906132f3565b60005b8260400151518110156120af5761204d8360400151828151811061204057fe5b6020026020010151611157565b1561206a5760405162461bcd60e51b81526004016104fe906133a3565b61208a8360400151828151811061207d57fe5b602002602001015161116c565b156120a75760405162461bcd60e51b81526004016104fe90613363565b600101612020565b5060008051602061362d833981519152816040516020016120d091906133f3565b6040516020818303038152906040528051906020012060001c816120f057fe5b068260c0015160001c146121165760405162461bcd60e51b81526004016104fe90613303565b80604001518260a001511461213d5760405162461bcd60e51b81526004016104fe90613353565b60a08201516000908152600a60205260409020546001600160a01b03166121765760405162461bcd60e51b81526004016104fe90613393565b612188816020015182608001516104d9565b8260800151146121aa5760405162461bcd60e51b81526004016104fe906132d3565b6000816020015113156121d9576040810151156121d95760405162461bcd60e51b81526004016104fe90613333565b6121e282610794565b610ce15760405162461bcd60e51b81526004016104fe90613383565b60035460009063ffffffff600160201b9091048116907f0000000000000000000000000000000000000000000000000000000000000000811660020a168114156122795760405162461bcd60e51b815260040180806020018281038252603081526020018061364d6030913960400191505060405180910390fd5b600263ffffffff821604600061228f86866105b9565b905060008060015b7f000000000000000000000000000000000000000000000000000000000000000063ffffffff168163ffffffff1610156123405760018516612304578392506122e58163ffffffff16611181565b63ffffffff821660009081526001602052604090208590559150612320565b63ffffffff811660009081526001602052604090205492508391505b61232a83836105b9565b9350600263ffffffff8616049450600101612297565b50506003805463ffffffff1981166064600163ffffffff9384160183160682169081178355600090815260026020819052604090912094909455815463ffffffff60201b1916600160201b94870190911693909302929092179091555090949350505050565b3b151590565b60405180604001604052806002906020820280368337509192915050565b60006123dd6123d88461343b565b613412565b905080828560208602850111156123f357600080fd5b60005b8581101561241d576124088783612581565b835260209283019291909101906001016123f6565b5050509392505050565b60006124356123d88461345b565b9050808382526020820190508285602086028501111561245457600080fd5b60005b8581101561241d576124698783612581565b83526020928301929190910190600101612457565b600061248c6123d88461345b565b905080838252602082019050828560208602850111156124ab57600080fd5b60005b8581101561241d576124c08783612581565b835260209283019291909101906001016124ae565b60006124e36123d88461347e565b9050828152602081018484840111156124fb57600080fd5b61250684828561351d565b509392505050565b803561056881613565565b600082601f830112612529578081fd5b60026105648482856123ca565b600082601f830112612546578081fd5b8135610564848260208601612427565b600082601f830112612566578081fd5b813561056484826020860161247e565b805161056881613579565b803561056881613582565b80356105688161358b565b600082601f8301126125a7578081fd5b81356105648482602086016124d5565b803561056881613594565b6000604082840312156125d3578081fd5b6125dd6040613412565b905060006125eb848461250e565b8282015260208301356001600160401b03811115612607578182fd5b61261385828601612597565b6020840152505092915050565b600060e08284031215612631578081fd5b61263b60e0613412565b90506000612649848461250e565b81830152602061265b85828601612581565b90830152604061266d85858301612581565b90830152606061267f8585830161250e565b90830152608061269185858301612581565b9083015260a08301356001600160401b038111156126ad578182fd5b6126b985828601612597565b60a08401525060c08301356001600160401b038111156126d7578182fd5b6126e385828601612597565b60c0840152505092915050565b60006101008284031215612702578081fd5b61270c60e0613412565b905081356001600160401b0381111561272457600080fd5b61273084828501612597565b825250602061274184848301612581565b9082015260408201356001600160401b0381111561275e57600080fd5b61276a84828501612536565b604083015250606061277e84828501612519565b9082015260a061279084848301612581565b608083015260c06127a385828601612581565b8284015260e091506127b785838601612581565b908301525092915050565b805161056881613582565b600080600080600060a086880312156127e4578081fd5b6127f08782880161250e565b945060206128008882890161250e565b94505060408601356001600160401b0381111561281b578182fd5b61282788828901612556565b93505060608601356001600160401b03811115612842578182fd5b61284e88828901612556565b92505060808601356001600160401b03811115612869578182fd5b61287588828901612597565b9150509295509295909350565b600080600080600060a08688031215612899578283fd5b6128a58784880161250e565b945060206128b58882890161250e565b94505060406128c688828901612581565b935050606061284e88828901612581565b6000602082840312156128e8578081fd5b6128f483828401612576565b9392505050565b60006020828403121561290c578081fd5b6128f483828401612581565b6000806040838503121561292a578182fd5b61293684838501612581565b9150602061294685828601612581565b9150509250929050565b600060208284031215612961578081fd5b6128f48382840161258c565b600080600060608486031215612981578081fd5b61298d858286016125b7565b9250602061299d8682870161250e565b92505060406129ae86828701612581565b9150509250925092565b6000602082840312156129c9578081fd5b818101356001600160401b038111156129e0578182fd5b61056484828501612597565b6000602082840312156129fd578081fd5b818101356001600160401b03811115612a14578182fd5b610564848285016125c2565b600080600060608486031215612a34578081fd5b838101356001600160401b03811115612a4b578182fd5b612a57868287016125c2565b93505060208401356001600160401b03811115612a72578182fd5b612a7e868287016126f0565b92505060408401356001600160401b03811115612a99578182fd5b6129ae86828701612620565b600060208284031215612ab6578081fd5b818101356001600160401b03811115612acd578182fd5b610564848285016126f0565b60008060408385031215612aeb578182fd5b828201356001600160401b03811115612b02578283fd5b612b0e858286016126f0565b92505060208301356001600160401b03811115612b29578182fd5b61294685828601612620565b600060208284031215612b46578081fd5b6128f4838284016127c2565b6000612b5e8383612c1d565b505060200190565b612b6f81613507565b82525050565b612b6f816134ca565b612b87816134ab565b612b9181846104a7565b9250612b9c826134a8565b60005b82811015610ed8578151612bb38682612b52565b955050612bbf826134bb565b9150600101612b9f565b612bd2816134b1565b612bdc81846104a7565b9250612be7826134a8565b60005b82811015610ed8578151612bfe8682612b52565b955050612c0a826134bb565b9150600101612bea565b612b6f816134d5565b612b6f816134a8565b612b6f816134da565b6000612c3a826134b7565b612c4481856134c1565b9350612c54818560208601613529565b612c5d8161355b565b9093019392505050565b612b6f816134e7565b6000612c7d601c836134c1565b7b1bdb9b1e481bdddb995c8818d85b881899481c9959da5cdd195c995960221b91810191909152602001919050565b6000612cb96015836134c1565b74125b9d985b1a59081c1d589b1a58c8185b5bdd5b9d605a1b91810191909152602001919050565b6000612cee6012836134c1565b71125b9d985b1a5908195e1d08185b5bdd5b9d60721b91810191909152602001919050565b6000612d206013836134c1565b72125b9d985b1a59081b595c9adb19481c9bdbdd606a1b91810191909152602001919050565b6000612d53601c836134c1565b7b092dcc6dee4e4cac6e840caf0e8cae4dcc2d840c8c2e8c240d0c2e6d60231b91810191909152602001919050565b6000612d8f601e836134c1565b7f43616e277420776974686472617720746f207a65726f2061646472657373000091810191909152602001919050565b6000612dcc600f836134c1565b6e6f6e6c7920676f7665726e616e636560881b91810191909152602001919050565b6000612dfb6021836134c1565b7f4465706f73697473206f6e6c7920696e206d61696e20747261646520746f6b6591810191909152603760f91b6020820152604001919050565b6000612e42600b836134c1565b6a496e76616c69642066656560a81b91810191909152602001919050565b6000612e6d601d836134c1565b7f4e6f6e2d6d61746368696e67207075626c696320746f6b656e2049447300000091810191909152602001919050565b6000612eaa600d836134c1565b6c496e7075742070656e64696e6760981b91810191909152602001919050565b6000612ed76019836134c1565b7818d85b881b9bdd081c995cd8dd59481c1bdbdb08185cdcd95d603a1b91810191909152602001919050565b6000612f106019836134c1565b7824b73b30b634b2103a3930b739b0b1ba34b7b710383937b7b360391b91810191909152602001919050565b6000612f496017836134c1565b76125b9d985b1a59081c1d589b1a58c81d1bdad95b881251604a1b91810191909152602001919050565b6000612f7f81836134c1565b01919050565b6000612f926016836134c1565b75125b9c1d5d081a5cc8185b1c9958591e481cdc195b9d60521b91810191909152602001919050565b6000612fc86022836134c1565b7f544f524e3a2063616e206e6f742073656e6420746f207a65726f2061646472659181019190915261737360f01b6020820152604001919050565b6000613010601e836134c1565b7f544f524e3a20747279696e6720746f2073656e6420302062616c616e6365000091810191909152602001919050565b600061304d6017836134c1565b761d5b9cdd5c1c1bdc9d1959081a5b9c1d5d0818dbdd5b9d604a1b91810191909152602001919050565b6000613084602a836134c1565b7f616d6f756e74206973206c6172676572207468616e206d6178696d756d44657091810191909152691bdcda5d105b5bdd5b9d60b21b6020820152604001919050565b805160009060e08401906130db8582612b75565b5060208301516130ee6020860182612c1d565b5060408301516131016040860182612c1d565b5060608301516131146060860182612b75565b5060808301516131276080860182612c1d565b5060a083015184820360a086015261313f8282612c2f565b91505060c083015184820360c0860152610dbc8282612c2f565b612b6f81613512565b612b6f816134fe565b602081016105688284612b75565b606081016131878286612b66565b6131946020830185612b75565b6131a16040830184612c1d565b949350505050565b604081016131b78285612b66565b6128f46020830184612c1d565b604081016131b78285612b75565b608081016131e08286612b75565b6131ed6020830185612c1d565b6131fa6040830184612c1d565b8181036060830152610dbc81612f73565b602081016105688284612c14565b602081016105688284612c1d565b606081016132358286612c1d565b6132426020830185613159565b8181036040830152610dbc8184612c2f565b602081016105688284612c26565b602080825281016128f48184612c2f565b6102e080825281016132858185612c2f565b90506128f46020830184612b7e565b61012080825281016132a68185612c2f565b90506128f46020830184612bc9565b602081016105688284612c67565b602080825281016104a481612c70565b602080825281016104a481612cac565b602080825281016104a481612ce1565b602080825281016104a481612d13565b602080825281016104a481612d46565b602080825281016104a481612d82565b602080825281016104a481612dbf565b602080825281016104a481612dee565b602080825281016104a481612e35565b602080825281016104a481612e60565b602080825281016104a481612e9d565b602080825281016104a481612eca565b602080825281016104a481612f03565b602080825281016104a481612f3c565b602080825281016104a481612f85565b602080825281016104a481612fbb565b602080825281016104a481613003565b602080825281016104a481613040565b602080825281016104a481613077565b602080825281016128f481846130c7565b602081016105688284613162565b6040518181016001600160401b038111828210171561343357613433613559565b604052919050565b60006001600160401b0382111561345457613454613559565b5060200290565b60006001600160401b0382111561347457613474613559565b5060209081020190565b60006001600160401b0382111561349757613497613559565b506020601f91909101601f19160190565b90565b50601690565b50600890565b5190565b60200190565b90815260200190565b60006104a4826134f2565b151590565b6001600160e01b03191690565b60006104a4826134ca565b6001600160a01b031690565b63ffffffff1690565b60006104a4826134e7565b60006104a4826134fe565b82818337506000910152565b60005b8381101561354457818101518382015260200161352c565b83811115613553576000848401525b50505050565bfe5b601f01601f191690565b61356e816134ca565b8114610d2c57600080fd5b61356e816134d5565b61356e816134a8565b61356e816134da565b61356e816134e756fef3843eddcfcac65d12d9f26261dab50671fdbf5dc44441816c8bbdace2411afd5f72696768742073686f756c6420626520696e7369646520746865206669656c642fe54c60d3acabf3343a35b6eba15db4821b340f76e741e2249685ed4899af6c496e697469616c697a61626c653a20636f6e747261637420697320616c726561647920696e697469616c697a656430644e72e131a029b85045b68181585d2833e84879b9709143e1f593f00000014d65726b6c6520747265652069732066756c6c2e204e6f206d6f7265206c65617665732063616e206265206164646564a2646970667358221220b659aa1860ac8e14a019bbeddcc2be4be058413573c64869afdae2dd7ec7350564736f6c634300070600335f6c6576656c732073686f756c642062652067726561746572207468616e207a65726f",
  "linkReferences": {},
  "deployedLinkReferences": {}
}