{
  "_format": "hh-sol-artifact-1",
  "contractName": "MerkleTreeWithHistory",
  "sourceName": "contracts/MerkleTreeWithHistory.sol",
  "abi": [
    {
      "inputs": [
        {
          "internalType": "uint32",
          "name": "_levels",
          "type": "uint32"
        },
        {
          "internalType": "address",
          "name": "_hasher",
          "type": "address"
        }
      ],
      "stateMutability": "nonpayable",
      "type": "constructor"
    },
    {
      "inputs": [],
      "name": "FIELD_SIZE",
      "outputs": [
        {
          "internalType": "uint256",
          "name": "",
          "type": "uint256"
        }
      ],
      "stateMutability": "view",
      "type": "function"
    },
    {
      "inputs": [],
      "name": "ROOT_HISTORY_SIZE",
      "outputs": [
        {
          "internalType": "uint32",
          "name": "",
          "type": "uint32"
        }
      ],
      "stateMutability": "view",
      "type": "function"
    },
    {
      "inputs": [],
      "name": "ZERO_VALUE",
      "outputs": [
        {
          "internalType": "uint256",
          "name": "",
          "type": "uint256"
        }
      ],
      "stateMutability": "view",
      "type": "function"
    },
    {
      "inputs": [],
      "name": "currentRootIndex",
      "outputs": [
        {
          "internalType": "uint32",
          "name": "",
          "type": "uint32"
        }
      ],
      "stateMutability": "view",
      "type": "function"
    },
    {
      "inputs": [
        {
          "internalType": "uint256",
          "name": "",
          "type": "uint256"
        }
      ],
      "name": "filledSubtrees",
      "outputs": [
        {
          "internalType": "bytes32",
          "name": "",
          "type": "bytes32"
        }
      ],
      "stateMutability": "view",
      "type": "function"
    },
    {
      "inputs": [],
      "name": "getLastRoot",
      "outputs": [
        {
          "internalType": "bytes32",
          "name": "",
          "type": "bytes32"
        }
      ],
      "stateMutability": "view",
      "type": "function"
    },
    {
      "inputs": [
        {
          "internalType": "bytes32",
          "name": "_left",
          "type": "bytes32"
        },
        {
          "internalType": "bytes32",
          "name": "_right",
          "type": "bytes32"
        }
      ],
      "name": "hashLeftRight",
      "outputs": [
        {
          "internalType": "bytes32",
          "name": "",
          "type": "bytes32"
        }
      ],
      "stateMutability": "view",
      "type": "function"
    },
    {
      "inputs": [],
      "name": "hasher",
      "outputs": [
        {
          "internalType": "contract IHasher",
          "name": "",
          "type": "address"
        }
      ],
      "stateMutability": "view",
      "type": "function"
    },
    {
      "inputs": [
        {
          "internalType": "bytes32",
          "name": "_root",
          "type": "bytes32"
        }
      ],
      "name": "isKnownRoot",
      "outputs": [
        {
          "internalType": "bool",
          "name": "",
          "type": "bool"
        }
      ],
      "stateMutability": "view",
      "type": "function"
    },
    {
      "inputs": [],
      "name": "levels",
      "outputs": [
        {
          "internalType": "uint32",
          "name": "",
          "type": "uint32"
        }
      ],
      "stateMutability": "view",
      "type": "function"
    },
    {
      "inputs": [],
      "name": "nextIndex",
      "outputs": [
        {
          "internalType": "uint32",
          "name": "",
          "type": "uint32"
        }
      ],
      "stateMutability": "view",
      "type": "function"
    },
    {
      "inputs": [
        {
          "internalType": "uint256",
          "name": "",
          "type": "uint256"
        }
      ],
      "name": "roots",
      "outputs": [
        {
          "internalType": "bytes32",
          "name": "",
          "type": "bytes32"
        }
      ],
      "stateMutability": "view",
      "type": "function"
    },
    {
      "inputs": [
        {
          "internalType": "uint256",
          "name": "i",
          "type": "uint256"
        }
      ],
      "name": "zeros",
      "outputs": [
        {
          "internalType": "bytes32",
          "name": "",
          "type": "bytes32"
        }
      ],
      "stateMutability": "pure",
      "type": "function"
    }
  ],
  "bytecode": "0x60c0604052600380546001600160401b031916905534801561002057600080fd5b50604051610d1d380380610d1d8339818101604052604081101561004357600080fd5b50805160209091015163ffffffff821661008e5760405162461bcd60e51b8152600401808060200182810382526023815260200180610cfa6023913960400191505060405180910390fd5b60208263ffffffff16106100e9576040805162461bcd60e51b815260206004820152601e60248201527f5f6c6576656c732073686f756c64206265206c657373207468616e2033320000604482015290519081900360640190fd5b60e082901b6001600160e01b03191660a052606081901b6001600160601b0319166080526001600160a01b03169063ffffffff16610bbb61013f6000398061037b5250806102b85280610abf5250610bbb6000f3fe608060405234801561001057600080fd5b50600436106100af5760003560e01c806338bf282e146100b4578063414a37ba146100e95780634ecf518b146100f15780636d9833e31461011257806390eeb02b14610143578063ba70f7571461014b578063c2b40ae414610153578063cd87a3b414610170578063e829558814610178578063ec73295914610195578063ed33639f1461019d578063f178e47c146101c1578063fc7e9c6f146101de575b600080fd5b6100d7600480360360408110156100ca57600080fd5b50803590602001356101e6565b60408051918252519081900360200190f35b6100d7610367565b6100f9610379565b6040805163ffffffff9092168252519081900360200190f35b61012f6004803603602081101561012857600080fd5b503561039d565b604080519115158252519081900360200190f35b6100f961040f565b6100d761041b565b6100d76004803603602081101561016957600080fd5b5035610436565b6100f9610448565b6100d76004803603602081101561018e57600080fd5b503561044d565b6100d7610aab565b6101a5610abd565b604080516001600160a01b039092168252519081900360200190f35b6100d7600480360360208110156101d757600080fd5b5035610ae1565b6100f9610af3565b6000600080516020610b66833981519152831061024a576040805162461bcd60e51b815260206004820181905260248201527f5f6c6566742073686f756c6420626520696e7369646520746865206669656c64604482015290519081900360640190fd5b600080516020610b6683398151915282106102965760405162461bcd60e51b8152600401808060200182810382526021815260200180610b256021913960400191505060405180910390fd5b61029e610b06565b838152602081018390526040805163014cf2b360e51b81527f00000000000000000000000000000000000000000000000000000000000000006001600160a01b03169163299e56609184916004909101908190839080838360005b838110156103115781810151838201526020016102f9565b5050505090500191505060206040518083038186803b15801561033357600080fd5b505afa158015610347573d6000803e3d6000fd5b505050506040513d602081101561035d57600080fd5b5051949350505050565b600080516020610b6683398151915281565b7f000000000000000000000000000000000000000000000000000000000000000081565b6000816103ac5750600061040a565b60035463ffffffff16805b63ffffffff81166000908152600260205260409020548414156103df5760019250505061040a565b63ffffffff81166103ee575060645b6000190163ffffffff80821690831614156103b7576000925050505b919050565b60035463ffffffff1681565b60035463ffffffff1660009081526002602052604090205490565b60026020526000908152604090205481565b606481565b6000816104695750600080516020610b4683398151915261040a565b816001141561049957507f1a332ca2cd2436bdc6796e6e4244ebf6f7e359868b7252e55342f766e408808261040a565b81600214156104c957507f2fb19ac27499bdf9d7d3b387eff42b6d12bffbc6206e81d0ef0b0d6b24520ebd61040a565b81600314156104f957507f18d0d6e282d4eacbf18efc619a986db763b75095ed122fac7d4a49418daa42e161040a565b816004141561052957507f054dec40f76a0f5aaeff1a85a4a3721b92b4ad244362d30b0ef8ed7033de11d361040a565b816005141561055957507f1d24c91f8d40f1c2591edec19d392905cf5eb01eada48d71836177ef11aea5b261040a565b816006141561058957507f0fb63621cfc047eba2159faecfa55b120d7c81c0722633ef94e20e27675e378f61040a565b81600714156105b957507f277b08f214fe8c5504a79614cdec5abd7b6adc9133fe926398684c82fd798b4461040a565b81600814156105e957507f2633613437c1fd97f7c798e2ea30d52cfddee56d74f856a541320ae86ddaf2de61040a565b816009141561061857507e768963fa4b993fbfece3619bfaa3ca4afd7e3864f11b09a0849dbf4ad2580761040a565b81600a141561064857507f0e63ff9df484c1a21478bd27111763ef203177ec0a7ef3a3cd43ec909f587bb061040a565b81600b141561067857507f0e6a4bfb0dd0ac8bf5517eaac48a95ba783dabe9f64494f9c892d3e8431eaab361040a565b81600c14156106a857507f0164a46b3ffff8baca00de7a130a63d105f1578076838502b99488505d5b3d3561040a565b81600d14156106d857507f145a6f1521c02b250cc76eb35cd67c9b0b22473577de3778e4c51903836c895761040a565b81600e141561070857507f29849fc5b55303a660bad33d986fd156d48516ec58a0f0a561a03b704a80225461040a565b81600f141561073857507f26639dd486b374e98ac6da34e8651b3fca58c51f1c2f857dd82045f27fc8dbe661040a565b816010141561076857507f2aa39214b887ee877e60afdb191390344c68177c30a0b8646649774174de5e3361040a565b816011141561079857507f09b397d253e41a521d042ffe01f8c33ae37d4c7da21af68693aafb63d599d70861040a565b81601214156107c857507f02fbfd397ad901cea38553239aefec016fcb6a19899038503f04814cbb79a51161040a565b81601314156107f857507f266640a877ec97a91f6c95637f843eeac8718f53f311bac9cba7d958df646f9d61040a565b816014141561082857507f29f9a0a07a22ab214d00aaa0190f54509e853f3119009baecb0035347606b0a961040a565b816015141561085857507f0a1fda67bffa0ab3a755f23fdcf922720820b6a96616a5ca34643cd0b935e3d661040a565b816016141561088857507f19507199eb76b5ec5abe538a01471d03efb6c6984739c77ec61ada2ba2afb38961040a565b81601714156108b857507f26bd93d26b751484942282e27acfb6d193537327a831df6927e19cdfc73c3e6461040a565b81601814156108e857507f2eb88a9c6b00a4bc6ea253268090fe1d255f6fe02d2eb745517723aae44d738661040a565b816019141561091857507f13e50d0bda78be97792df40273cbb16f0dc65c0697d81a82d07d0f6eee80a16461040a565b81601a141561094857507f2ea95776929000133246ff8d9fdcba179d0b262b9e910558309bac1c1ec03d7a61040a565b81601b141561097857507f1a640d6ef66e356c795396c0957b06a99891afe0c493f4d0bdfc0450764bae6061040a565b81601c14156109a857507f2b17979f2c2048dd9e4ee5f482cced21435ea8cc54c32f80562e39a5016b049661040a565b81601d14156109d857507f29ba6a30de50542e261abfc7ee0c68911002d3acd4dd4c02ad59aa96805b20bb61040a565b81601e1415610a0857507f103fcf1c8a98ebe50285f6e669077a579308311fd44bb6895d5da7ba7fd3564e61040a565b81601f1415610a3857507f166bdd01780976e655f5278260c638dcf10fe7c136f37c9152cbcaabef901f4d61040a565b8160201415610a6857507f2712c601a9b8b2abd396a619327095d3f1ea86a6c07d6df416a3973a1a4b3ce561040a565b6040805162461bcd60e51b8152602060048201526013602482015272496e646578206f7574206f6620626f756e647360681b604482015290519081900360640190fd5b600080516020610b4683398151915281565b7f000000000000000000000000000000000000000000000000000000000000000081565b60016020526000908152604090205481565b600354600160201b900463ffffffff1681565b6040518060400160405280600290602082028036833750919291505056fe5f72696768742073686f756c6420626520696e7369646520746865206669656c642fe54c60d3acabf3343a35b6eba15db4821b340f76e741e2249685ed4899af6c30644e72e131a029b85045b68181585d2833e84879b9709143e1f593f0000001a2646970667358221220c4db9c152c480375151b0b9a20e4dbf505842c82e9ef056965fa698d28d59d7564736f6c634300070600335f6c6576656c732073686f756c642062652067726561746572207468616e207a65726f",
  "linkReferences": {},
  "deployedLinkReferences": {}
}