{
  "_format": "hh-sol-artifact-1",
  "contractName": "Verifier2",
  "sourceName": "contracts/Verifier2.sol",
  "abi": [
    {
      "inputs": [
        {
          "internalType": "bytes",
          "name": "proof",
          "type": "bytes"
        },
        {
          "internalType": "uint256[8]",
          "name": "input",
          "type": "uint256[8]"
        }
      ],
      "name": "verifyProof",
      "outputs": [
        {
          "internalType": "bool",
          "name": "",
          "type": "bool"
        }
      ],
      "stateMutability": "view",
      "type": "function"
    }
  ],
  "bytecode": "0x608060405234801561001057600080fd5b50610db7806100206000396000f3fe608060405234801561001057600080fd5b506004361061002b5760003560e01c8063449ccd1e14610030575b600080fd5b610102600480360361012081101561004757600080fd5b810190602081018135600160201b81111561006157600080fd5b82018360208201111561007357600080fd5b803590602001918460018302840111600160201b8311171561009457600080fd5b91908080601f016020809104026020016040519081016040528093929190818152602001838380828437600092019190915250506040805161010081810190925293969594818101949350915060089083908390808284376000920191909152509194506101169350505050565b604080519115158252519081900360200190f35b6000808380602001905161010081101561012f57600080fd5b50905060005b60088160ff1610156101a857600080516020610d1b833981519152828260ff166008811061015f57fe5b6020020151106101a05760405162461bcd60e51b8152600401808060200182810382526022815260200180610d606022913960400191505060405180910390fd5b600101610135565b5060006040518060400160405280836000600881106101c357fe5b60200201518152602001836001600881106101da57fe5b602002015190526040805160808101825284820151918101918252919250600091908190606082018660036020020151815250815260200160405180604001604052808660046008811061022a57fe5b602002015181526020018660056008811061024157fe5b6020020151905290526040805180820190915290915060009080856006602002015181526020018560076008811061027557fe5b6020020151905290506000610288610385565b60808101515190915060005b600881101561034f577f30644e72e131a029b85045b68181585d2833e84879b9709143e1f593f00000018982600881106102ca57fe5b60200201511061030b5760405162461bcd60e51b8152600401808060200182810382526025815260200180610d3b6025913960400191505060405180910390fd5b610345826103408560800151846001016009811061032557fe5b60200201518c856008811061033657fe5b60200201516108fc565b610993565b9150600101610294565b5061037861035c86610a31565b8584600001518560200151858760400151898960600151610ab4565b9998505050505050505050565b61038d610c2a565b6040805180820182527f2d4d9aa7e302d9df41749d5507949d05dbea33fbb16c643b22f599a2be6df2e281527f14bedd503c37ceb061d8ec60209fe345ce89830a19230301f076caff004d19266020808301919091529083528151608080820184527f0967032fcbf776d1afc985f88877f182d38480a653f2decaa9794cbc3bf3060c8285019081527f0e187847ad4c798374d0d6732bf501847dd68bc0e071241e0213bc7fc13db7ab606080850191909152908352845180860186527f304cfbd1e08a704a99f5e847d93f8c3caafddec46b7a0d379da69a4d112346a781527f1739c1b1a457a8c7313123d24d2f9192f896b7c63eea05a9d57f06547ad0cec8818601528385015285840192909252835180820185527f198e9393920d483a7260bfb731fb5d25f1aa493335a9e71297e485b7aef312c28186019081527f1800deef121f1e76426a00665e5c4479674322d4f75edadd46debd5cd992f6ed828501528152845180860186527f090689d0585ff075ec9e99ad690c3395bc4b313370b38ef355acdadcd122975b81527f12c85ea5db8c6deb4aab71808dcb408fe3d1e7690c43d37b4ce6cc0166fa7daa818601528185015285850152835180820185527f1c0e1f7d168ab417c75db91696835436445db5d88cb67af9476d4b62b309108f8186019081527f304b4d99ed509021679df004f2198ed19f480302e8259465ab132b849b82245c828501528152845180860186527f1c7754ff24b172ff60b01c083c421c05e5b3c3256e469bfd9007b2bf017d5cf081527f028042527017e88d9d0b8bcd73d4f438d3a4cd1eb3c4784dffe87efd757e084b818601528185015282860152835180850185527e5913bf58eaf47c5b55a7d25cbc90359bd82341cdbc0b6e1389430fa9c2fe8b81527f2acbdb9044401eeba9bd7fdefc90f87250567e0fad1b82f954e09ca4a72e30ed81850152818601805191909152845180860186527f1b99f69d3bf85f19d91b82a2a9faa435432d63248a520ea642e3479cb9595e3781527f1a96e881757fd41a707583f41eb2b57a2ad37f40c95429d202623f4aada51f08818601528151850152845180860186527f301b9159b3d5579a063e0a8f9f820e09a776e2bf050ecdf1c0112153d34d799d81527f1fee257d31f0206a4d7449a7990235b7ef48f6800b605023f0e1ed99c9d60e8d818601528151860152845180860186527f123dd9a7d3bf68e534226b32ea6616225f9712db25288500386153111107b3cf81527f29a6def95605cb6da298c46ace3a8dd5f0b8edc0f52ae64bd68d2773ddd50ad881860152815190930192909252835180850185527f19aae1f809e71a4ca3be185c1c87c6e28c9a1cbacdb8b4cd672e762f9a2837f981527f1efdd4ab60cefec2e050e993cf38507210372e798f9b3983d8ef35281e27c01f81850152825190910152825180840184527f0208af974db09f65dd73ea398fe5f173b742c8e1b189663b4c3703b071f4cd1c81527f1ed2f76fcb1a53a2f013d9976e8ef7dc42417ec8ab04ecc043ebbe0aa616699081840152815160a00152825180840184527f11c8e38a4ba19cd9001318b2905884a952012d1aebec75883b0d1f9a5f27117481527f1f3dfcb7544cb0041aa69c0597646262b4f07167eca923fe7229b751f53e244b81840152815160c00152825180840184527f1660b63a98db8e05052caa2e0a67f607627b3f1f18c3bdbf1371a8ca04bf0be281527f0c8587592458b15227bbe8d898b7b582551a27f9105223dde351d6fe641fa0ad81840152815160e0015282518084019093527f16e0d4b23af2460b42664445d6c527e3afc6e231af5437e9b50379b8a804fc6a83527f2e01f5b49d0e7c56dbbaf939db92b60228e4834866e04b459681bd7383bc614b9183019190915251610100015290565b610904610c76565b60408051606080820183528551825260208087015190830152918101849052906000908360808460076107d05a03fa905080801561094157610943565bfe5b508061098b576040805162461bcd60e51b81526020600482015260126024820152711c185a5c9a5b99cb5b5d5b0b59985a5b195960721b604482015290519081900360640190fd5b505092915050565b61099b610c76565b6000604051806080016040528085600001518152602001856020015181526020018460000151815260200184602001518152509050600060608360c08460066107d05a03fa905080801561094157508061098b576040805162461bcd60e51b81526020600482015260126024820152711c185a5c9a5b99cb5859190b59985a5b195960721b604482015290519081900360640190fd5b610a39610c76565b8151158015610a4a57506020820151155b15610a6957506040805180820190915260008082526020820152610aaf565b604051806040016040528083600001518152602001600080516020610d1b833981519152846020015181610a9957fe5b06600080516020610d1b83398151915203905290505b919050565b6040805161030081018252895181526020808b015181830152895151928201929092528851820151606082015288820180515160808301525182015160a0820152875160c08201528782015160e08201528651516101008201528651820151610120820152868201805151610140830152518201516101608201528551610180820152858201516101a08201528451516101c082015284518201516101e08201528482018051516102008301525182015161022082015283516102408201528382015161026082015282515161028082015282518201516102a08201528282018051516102c083015251909101516102e0820152600090610bb3610c90565b60006020826103008560086107d05a03fa9050808015610941575080610c18576040805162461bcd60e51b81526020600482015260156024820152741c185a5c9a5b99cb5bdc18dbd9194b59985a5b1959605a1b604482015290519081900360640190fd5b505115159a9950505050505050505050565b6040518060a00160405280610c3d610c76565b8152602001610c4a610cae565b8152602001610c57610cae565b8152602001610c64610cae565b8152602001610c71610cce565b905290565b604051806040016040528060008152602001600081525090565b60405180602001604052806001906020820280368337509192915050565b6040518060400160405280610cc1610cfc565b8152602001610c71610cfc565b6040518061012001604052806009905b610ce6610c76565b815260200190600190039081610cde5790505090565b6040518060400160405280600290602082028036833750919291505056fe30644e72e131a029b85045b68181585d97816a916871ca8d3c208c16d87cfd4776657269666965722d696e7075742d6774652d736e61726b2d7363616c61722d6669656c6476657269666965722d70726f6f662d656c656d656e742d6774652d7072696d652d71a2646970667358221220ae2e9a8d1f8c99593e1dbe81dd39805e8ca236310d6a5c3bbecefe4513d448e264736f6c63430007060033",
  "linkReferences": {},
  "deployedLinkReferences": {}
}