{
  "_format": "hh-sol-artifact-1",
  "contractName": "Verifier2",
  "sourceName": "contracts/Verifier2.sol",
  "abi": [
    {
      "inputs": [
        {
          "internalType": "bytes",
          "name": "proof",
          "type": "bytes"
        },
        {
          "internalType": "uint256[8]",
          "name": "input",
          "type": "uint256[8]"
        }
      ],
      "name": "verifyProof",
      "outputs": [
        {
          "internalType": "bool",
          "name": "",
          "type": "bool"
        }
      ],
      "stateMutability": "view",
      "type": "function"
    }
  ],
  "bytecode": "0x608060405234801561001057600080fd5b50610db8806100206000396000f3fe608060405234801561001057600080fd5b506004361061002b5760003560e01c8063449ccd1e14610030575b600080fd5b610102600480360361012081101561004757600080fd5b810190602081018135600160201b81111561006157600080fd5b82018360208201111561007357600080fd5b803590602001918460018302840111600160201b8311171561009457600080fd5b91908080601f016020809104026020016040519081016040528093929190818152602001838380828437600092019190915250506040805161010081810190925293969594818101949350915060089083908390808284376000920191909152509194506101169350505050565b604080519115158252519081900360200190f35b6000808380602001905161010081101561012f57600080fd5b50905060005b60088160ff1610156101a857600080516020610d1c833981519152828260ff166008811061015f57fe5b6020020151106101a05760405162461bcd60e51b8152600401808060200182810382526022815260200180610d616022913960400191505060405180910390fd5b600101610135565b5060006040518060400160405280836000600881106101c357fe5b60200201518152602001836001600881106101da57fe5b602002015190526040805160808101825284820151918101918252919250600091908190606082018660036020020151815250815260200160405180604001604052808660046008811061022a57fe5b602002015181526020018660056008811061024157fe5b6020020151905290526040805180820190915290915060009080856006602002015181526020018560076008811061027557fe5b6020020151905290506000610288610385565b60808101515190915060005b600881101561034f577f30644e72e131a029b85045b68181585d2833e84879b9709143e1f593f00000018982600881106102ca57fe5b60200201511061030b5760405162461bcd60e51b8152600401808060200182810382526025815260200180610d3c6025913960400191505060405180910390fd5b610345826103408560800151846001016009811061032557fe5b60200201518c856008811061033657fe5b60200201516108fd565b610994565b9150600101610294565b5061037861035c86610a32565b8584600001518560200151858760400151898960600151610ab5565b9998505050505050505050565b61038d610c2b565b6040805180820182527f2d4d9aa7e302d9df41749d5507949d05dbea33fbb16c643b22f599a2be6df2e281527f14bedd503c37ceb061d8ec60209fe345ce89830a19230301f076caff004d19266020808301919091529083528151608080820184527f0967032fcbf776d1afc985f88877f182d38480a653f2decaa9794cbc3bf3060c8285019081527f0e187847ad4c798374d0d6732bf501847dd68bc0e071241e0213bc7fc13db7ab606080850191909152908352845180860186527f304cfbd1e08a704a99f5e847d93f8c3caafddec46b7a0d379da69a4d112346a781527f1739c1b1a457a8c7313123d24d2f9192f896b7c63eea05a9d57f06547ad0cec8818601528385015285840192909252835180820185527f198e9393920d483a7260bfb731fb5d25f1aa493335a9e71297e485b7aef312c28186019081527f1800deef121f1e76426a00665e5c4479674322d4f75edadd46debd5cd992f6ed828501528152845180860186527f090689d0585ff075ec9e99ad690c3395bc4b313370b38ef355acdadcd122975b81527f12c85ea5db8c6deb4aab71808dcb408fe3d1e7690c43d37b4ce6cc0166fa7daa818601528185015285850152835180820185527f1871499bb2d9088b27a6725a05da3b939241e096646e0271833b5ecf37d8d48c8186019081527f044cb33b4dcbfaf307b2a40f84632ccc7418449e691aedb1fdbfea8b5a1f3ccb828501528152845180860186527f25e2166a31c9397e5636ab782a78c86bf70a58ac793fcc68cf38c9002509276181527f2ff3ef0cc778f956a97e2c4fb9c91a18bb4ddacf84d2a2bb5ba162cf952390e1818601528185015282860152835180850185527f1c1c76fee92e8d5fc61e471cfa269387a7db4fe353f006c3afabe8ae3604848881527f259b63976c0469b5d0f6359a5e6df57bf6f69e6ee23be92604ba48c887c5e9ff81850152818601805191909152845180860186527f28c7dd59a523e2978c5b9850ff1a002b78746c065cdde8e88e869c39e0e94bb081527f13da85709c9840991e4b669194674ccdcc7470a1dc94310c91c21da2008fd534818601528151850152845180860186527f017081c6d903bc8fc381cb5413caf95f49d2b0c9fd7feb4e9f229aeef6f85a0281527f2ab133fe05742c8aeec9b096959e02eda31a15b65076eec9044936094129b788818601528151860152845180860186527f24d85fa0081004f3d820e14a3034778c66a809836062a834e683678633aeba2581527f22ab802ac61aa2f760a566ec200adf187c7933895fc1812bf046273526c88cbf81860152815190930192909252835180850185527f0cb9c360ce58a2ce5a23afdb74dc423080344930ccffdd8cf29c0ca9ba26ee5281527f0d9099603bdac1edb3a24ea21293817df873c0a73314635d25c0c75143488df481850152825190910152825180840184527f1b421cb0c9f889881bc5cfb156a1fab72f0a9eefdf95deef71eb620dc1cc679881527f1f16fd70578ae8c6141e4f18bf05dc25ab0e9995a39036fe54f99fa637a9670d81840152815160a00152825180840184527f135cf77f8a03d75cda7407c50bb07e7415bb185df23443fdf6614ef66705b59a81527f2b4b063f0407e6e11624ff4be6616721a920f8a6f39a5e3c563e44572c099d5181840152815160c00152825180840184527f0e17169653e5618235f8fb3b2b51e7566c826cc74267807bc1992356608d13fb81527f10a2ca6ca882bffd2a64058905b6a4a6e12f10b43fcfce9decd025380ac9789b81840152815160e0015282518084019093527f0bfaf391e9ca12282a4668be33fe6de45bf304901f104495193c66be0839514f83527f09513afa8a222b344fcda68399e6b5571d7175820085b43df394a515dde5de959183019190915251610100015290565b610905610c77565b60408051606080820183528551825260208087015190830152918101849052906000908360808460076107d05a03fa905080801561094257610944565bfe5b508061098c576040805162461bcd60e51b81526020600482015260126024820152711c185a5c9a5b99cb5b5d5b0b59985a5b195960721b604482015290519081900360640190fd5b505092915050565b61099c610c77565b6000604051806080016040528085600001518152602001856020015181526020018460000151815260200184602001518152509050600060608360c08460066107d05a03fa905080801561094257508061098c576040805162461bcd60e51b81526020600482015260126024820152711c185a5c9a5b99cb5859190b59985a5b195960721b604482015290519081900360640190fd5b610a3a610c77565b8151158015610a4b57506020820151155b15610a6a57506040805180820190915260008082526020820152610ab0565b604051806040016040528083600001518152602001600080516020610d1c833981519152846020015181610a9a57fe5b06600080516020610d1c83398151915203905290505b919050565b6040805161030081018252895181526020808b015181830152895151928201929092528851820151606082015288820180515160808301525182015160a0820152875160c08201528782015160e08201528651516101008201528651820151610120820152868201805151610140830152518201516101608201528551610180820152858201516101a08201528451516101c082015284518201516101e08201528482018051516102008301525182015161022082015283516102408201528382015161026082015282515161028082015282518201516102a08201528282018051516102c083015251909101516102e0820152600090610bb4610c91565b60006020826103008560086107d05a03fa9050808015610942575080610c19576040805162461bcd60e51b81526020600482015260156024820152741c185a5c9a5b99cb5bdc18dbd9194b59985a5b1959605a1b604482015290519081900360640190fd5b505115159a9950505050505050505050565b6040518060a00160405280610c3e610c77565b8152602001610c4b610caf565b8152602001610c58610caf565b8152602001610c65610caf565b8152602001610c72610ccf565b905290565b604051806040016040528060008152602001600081525090565b60405180602001604052806001906020820280368337509192915050565b6040518060400160405280610cc2610cfd565b8152602001610c72610cfd565b6040518061012001604052806009905b610ce7610c77565b815260200190600190039081610cdf5790505090565b6040518060400160405280600290602082028036833750919291505056fe30644e72e131a029b85045b68181585d97816a916871ca8d3c208c16d87cfd4776657269666965722d696e7075742d6774652d736e61726b2d7363616c61722d6669656c6476657269666965722d70726f6f662d656c656d656e742d6774652d7072696d652d71a2646970667358221220d0c251dacb2720839b92452436bf4d0d28597f06fed12255508af7575bd78e5b64736f6c63430007060033",
  "linkReferences": {},
  "deployedLinkReferences": {}
}