{
  "_format": "hh-sol-artifact-1",
  "contractName": "Verifier16",
  "sourceName": "contracts/Verifier16.sol",
  "abi": [
    {
      "inputs": [
        {
          "internalType": "bytes",
          "name": "proof",
          "type": "bytes"
        },
        {
          "internalType": "uint256[22]",
          "name": "input",
          "type": "uint256[22]"
        }
      ],
      "name": "verifyProof",
      "outputs": [
        {
          "internalType": "bool",
          "name": "",
          "type": "bool"
        }
      ],
      "stateMutability": "view",
      "type": "function"
    }
  ],
  "bytecode": "0x608060405234801561001057600080fd5b5061126b806100206000396000f3fe608060405234801561001057600080fd5b506004361061002b5760003560e01c80634a2f947d14610030575b600080fd5b61010260048036036102e081101561004757600080fd5b810190602081018135600160201b81111561006157600080fd5b82018360208201111561007357600080fd5b803590602001918460018302840111600160201b8311171561009457600080fd5b91908080601f01602080910402602001604051908101604052809392919081815260200183838082843760009201919091525050604080516102c081810190925293969594818101949350915060169083908390808284376000920191909152509194506101169350505050565b604080519115158252519081900360200190f35b6000808380602001905161010081101561012f57600080fd5b50905060005b60088160ff1610156101a8576000805160206111cf833981519152828260ff166008811061015f57fe5b6020020151106101a05760405162461bcd60e51b81526004018080602001828103825260228152602001806112146022913960400191505060405180910390fd5b600101610135565b5060006040518060400160405280836000600881106101c357fe5b60200201518152602001836001600881106101da57fe5b602002015190526040805160808101825284820151918101918252919250600091908190606082018660036020020151815250815260200160405180604001604052808660046008811061022a57fe5b602002015181526020018660056008811061024157fe5b6020020151905290526040805180820190915290915060009080856006602002015181526020018560076008811061027557fe5b6020020151905290506000610288610385565b60808101515190915060005b601681101561034f577f30644e72e131a029b85045b68181585d2833e84879b9709143e1f593f00000018982601681106102ca57fe5b60200201511061030b5760405162461bcd60e51b81526004018080602001828103825260258152602001806111ef6025913960400191505060405180910390fd5b610345826103408560800151846001016017811061032557fe5b60200201518c856016811061033657fe5b6020020151610db0565b610e47565b9150600101610294565b5061037861035c86610ee5565b8584600001518560200151858760400151898960600151610f68565b9998505050505050505050565b61038d6110de565b6040805180820182527f2d4d9aa7e302d9df41749d5507949d05dbea33fbb16c643b22f599a2be6df2e281527f14bedd503c37ceb061d8ec60209fe345ce89830a19230301f076caff004d19266020808301919091529083528151608080820184527f0967032fcbf776d1afc985f88877f182d38480a653f2decaa9794cbc3bf3060c8285019081527f0e187847ad4c798374d0d6732bf501847dd68bc0e071241e0213bc7fc13db7ab606080850191909152908352845180860186527f304cfbd1e08a704a99f5e847d93f8c3caafddec46b7a0d379da69a4d112346a781527f1739c1b1a457a8c7313123d24d2f9192f896b7c63eea05a9d57f06547ad0cec8818601528385015285840192909252835180820185527f198e9393920d483a7260bfb731fb5d25f1aa493335a9e71297e485b7aef312c28186019081527f1800deef121f1e76426a00665e5c4479674322d4f75edadd46debd5cd992f6ed828501528152845180860186527f090689d0585ff075ec9e99ad690c3395bc4b313370b38ef355acdadcd122975b81527f12c85ea5db8c6deb4aab71808dcb408fe3d1e7690c43d37b4ce6cc0166fa7daa818601528185015285850152835180820185527f186e2e81b61823dc9f6fac36b243e4cc343f93bdc3025e7fa001f0689593a4118186019081527f1a4ee5f96750704f58b15d7bc52260a7cc7fbbf62e64d2e44f0cd97aa7117429828501528152845180860186527f1c50c0e8fdf15c5ad407fc059490e4e3913940ee95f10ceeaa7c7ba88fdc964081527f13ef2a5cc09b1cf946d984bfffcafb841c7039e5ec7a4938bbb372e0bae23a15818601528185015282860152835180850185527f2b7e23e93a475b047c6077999261740d9ee7f9a8800438c43d58a84733d2920b81527f2061f4465d281ec3b09c47e73784fa34dbd2f100a2d99fc961b6db3704c7375281850152818601805191909152845180860186527f1045638ecf568704205bf3b72bf9422fbbbbf4a3503fe931f65c0d0f8230b20981527f0c2c4a8a013f1c4750f7166deaf31e2d8e8486e8a0cae65be2835bcbd9af1f97818601528151850152845180860186527f2897db34a2cf2226e627323a4af956f40a6fa32f2ed928ed961c5a39d0c4ddba81527f0e17d608ba8f3422efc64bf1b9b05f0ca3337e6eb7072d4c50cfa92ede2d0d0d818601528151860152845180860186527f17b1fddc233db031aee5188e087fd7c804b283ae8cd4a5794fe3c250de11b98881527f1ec4c52677bfb7e9f250064aa679d9eb234e92c93c2e69dc1ea806299c04d5d281860152815190930192909252835180850185527f06d7af9e544a29034f275f91e971b4bbf03d4ac78b18b28d48cb3385c5d982c681527f2c19526513e8fa291c05d46bb5912592101714d94f5077381cde9ac6caef2bb381850152825190910152825180840184527f098edd9186c426a6c49657f1110a682ab34f0a649dfd8ab68d633ae5bb6623b881527f28cfd64e08c2f60d3459f3faf5d032550f4df56a6b8d6c280cf4d7e4f710074281840152815160a00152825180840184527f099c32002ac6dccda634c73f7dedf0ca8aaf482a1029b3d1ab18f6c992ed1fe281527f09909e6fd372fccc339c4385b8f7e0ea7bf13fc97103554758cdb987181d99fa81840152815160c00152825180840184527f05137d3ca4109fd27bae1be7e03a5490d91822536065cbd9ba718544104ba2ce81527f302cbbb4b18fb29502ebd11f55b4ed734e181fcb2b654039742d258e1263af1781840152815160e00152825180840184527f0e9328e286480106c6d46a2f468dd9397035d4b546f6a4a95fdaec8d4969e47281527f2a66c79ded93289b5d095b99578437609034a273b154b8a52469b40f08b588b28184015281516101000152825180840184527f1bbb62a73440abb4781af57e6d4b47dc7b7341785acb972049207114fc29650481527f2d145d2c3b45b9a3e06afc786c73da774ad01290dc6322a1d486c7cedde416128184015281516101200152825180840184527f1097ee4a21b2861b448817ec0db48843fe8364e789b79bcaa30ede5af0202c1281527f2f41d45af409e8ebf527b3579c7ab82a7dd42f11be8c483c7625f8a681f712ce8184015281516101400152825180840184527f1fd5d237d226623b54f88f26056391dff0f762a74f27a1b04d292f83d0070e8881527f20e62adf4011144baff472487f7c01764e838ac2b4fd5652718fe3b811c3b5d58184015281516101600152825180840184527f2356490292e093b4d6fb83f164f2eb609205f2ee680635fce94481779031ed9e81527f281be54d7dcf2c9e303babbccc5c60498f78b7150f6c6a762edba27c81cb88648184015281516101800152825180840184527f0a70196d443d480dafb4288f2becf457131baf5f0fb084e1f11bb62b40c53c2d81527f1be4801b8a58becb9acf37aca715e0e284e628c8da347917ef4d1d2e329efea28184015281516101a00152825180840184527f11c0b6f46baf8dea099f52df8f29df620d29033bfb7e86f0e6340165179e092181527f2bd30e7c21c5c20166a9448c2d0b680fd014649b64e710408f9fb7e216ea96bb8184015281516101c00152825180840184527f1ffe949d995b30a2c036a0b2d7fbe633d9e405ce7059870f6deae85e4dd22e4d81527f02498f8e8f8fc020443b8db1ac8fc2eadae0466fabfe4ec2b2ef555c9c7b4d548184015281516101e00152825180840184527f237df9227a76cf93a50e84bb7817e2bf01cd4ffc093355baa6f03b6be9ea1ce781527f2d9bd9a91f4793332a4798ead824850e81b9547f32e1affa2bf6193dbf5a19ba8184015281516102000152825180840184527f0103ef88755d7e5ba387591606b83b87b098c6e04823f2593a781f036fcf539f81527f0dc693f39dfe86507f1014f9ec52bfd0b4f9c11d02e8cea2dafdff329e923c928184015281516102200152825180840184527f1c074f101fbe8882adfd14fb46b139e75fb1690d2119758feb469e31679b03b581527f09e1fac73a03b5e1e3b70e8293c5fde37978d347dc6f6aaca9df06f8bcf16cde8184015281516102400152825180840184527f2d1bb4152481bed41190b01eaa6047738fae1a90e95712ab79b52efe99bb3b6181527f15cf4281edc9d48d4061c00b1456d377678757ed2f18ff223d563f04b2f4a86f8184015281516102600152825180840184527f0f17a4293301737695a507a643d788569178ac755f9594f1f2eef173c22e07e681527f2dc6e11368e5bc37e0c119b1d3c2eacc1b1af519ed66792530e060d19c3934308184015281516102800152825180840184527f11d3728b931b4458f22da5398cce36b28f5702edf9406a52d103eb94b0a1a80281527f2a41ce3cca54b2671ed71ca9a3125573fe0ea9d64c11a9476af235d94c3562798184015281516102a0015282518084019093527f241e32ce96dc04a9baebab2c54bce33c8ab51f9653bb3e19db55bf5028fb6d8383527e874c59d9cdbf801ab3da0bf51c2cb4791d6eb72a2ee138f3d123f1aeaff44e91830191909152516102c0015290565b610db861112a565b60408051606080820183528551825260208087015190830152918101849052906000908360808460076107d05a03fa9050808015610df557610df7565bfe5b5080610e3f576040805162461bcd60e51b81526020600482015260126024820152711c185a5c9a5b99cb5b5d5b0b59985a5b195960721b604482015290519081900360640190fd5b505092915050565b610e4f61112a565b6000604051806080016040528085600001518152602001856020015181526020018460000151815260200184602001518152509050600060608360c08460066107d05a03fa9050808015610df5575080610e3f576040805162461bcd60e51b81526020600482015260126024820152711c185a5c9a5b99cb5859190b59985a5b195960721b604482015290519081900360640190fd5b610eed61112a565b8151158015610efe57506020820151155b15610f1d57506040805180820190915260008082526020820152610f63565b6040518060400160405280836000015181526020016000805160206111cf833981519152846020015181610f4d57fe5b066000805160206111cf83398151915203905290505b919050565b6040805161030081018252895181526020808b015181830152895151928201929092528851820151606082015288820180515160808301525182015160a0820152875160c08201528782015160e08201528651516101008201528651820151610120820152868201805151610140830152518201516101608201528551610180820152858201516101a08201528451516101c082015284518201516101e08201528482018051516102008301525182015161022082015283516102408201528382015161026082015282515161028082015282518201516102a08201528282018051516102c083015251909101516102e0820152600090611067611144565b60006020826103008560086107d05a03fa9050808015610df55750806110cc576040805162461bcd60e51b81526020600482015260156024820152741c185a5c9a5b99cb5bdc18dbd9194b59985a5b1959605a1b604482015290519081900360640190fd5b505115159a9950505050505050505050565b6040518060a001604052806110f161112a565b81526020016110fe611162565b815260200161110b611162565b8152602001611118611162565b8152602001611125611182565b905290565b604051806040016040528060008152602001600081525090565b60405180602001604052806001906020820280368337509192915050565b60405180604001604052806111756111b0565b81526020016111256111b0565b604051806102e001604052806017905b61119a61112a565b8152602001906001900390816111925790505090565b6040518060400160405280600290602082028036833750919291505056fe30644e72e131a029b85045b68181585d97816a916871ca8d3c208c16d87cfd4776657269666965722d696e7075742d6774652d736e61726b2d7363616c61722d6669656c6476657269666965722d70726f6f662d656c656d656e742d6774652d7072696d652d71a264697066735822122002223ca611ed2fef0638d434e8330d971eda950c88828a8e465cc5c25562d20e64736f6c63430007060033",
  "linkReferences": {},
  "deployedLinkReferences": {}
}