{
  "_format": "hh-sol-artifact-1",
  "contractName": "Verifier16",
  "sourceName": "contracts/Verifier16.sol",
  "abi": [
    {
      "inputs": [
        {
          "internalType": "bytes",
          "name": "proof",
          "type": "bytes"
        },
        {
          "internalType": "uint256[22]",
          "name": "input",
          "type": "uint256[22]"
        }
      ],
      "name": "verifyProof",
      "outputs": [
        {
          "internalType": "bool",
          "name": "",
          "type": "bool"
        }
      ],
      "stateMutability": "view",
      "type": "function"
    }
  ],
  "bytecode": "0x608060405234801561001057600080fd5b5061126b806100206000396000f3fe608060405234801561001057600080fd5b506004361061002b5760003560e01c80634a2f947d14610030575b600080fd5b61010260048036036102e081101561004757600080fd5b810190602081018135600160201b81111561006157600080fd5b82018360208201111561007357600080fd5b803590602001918460018302840111600160201b8311171561009457600080fd5b91908080601f01602080910402602001604051908101604052809392919081815260200183838082843760009201919091525050604080516102c081810190925293969594818101949350915060169083908390808284376000920191909152509194506101169350505050565b604080519115158252519081900360200190f35b6000808380602001905161010081101561012f57600080fd5b50905060005b60088160ff1610156101a8576000805160206111cf833981519152828260ff166008811061015f57fe5b6020020151106101a05760405162461bcd60e51b81526004018080602001828103825260228152602001806112146022913960400191505060405180910390fd5b600101610135565b5060006040518060400160405280836000600881106101c357fe5b60200201518152602001836001600881106101da57fe5b602002015190526040805160808101825284820151918101918252919250600091908190606082018660036020020151815250815260200160405180604001604052808660046008811061022a57fe5b602002015181526020018660056008811061024157fe5b6020020151905290526040805180820190915290915060009080856006602002015181526020018560076008811061027557fe5b6020020151905290506000610288610385565b60808101515190915060005b601681101561034f577f30644e72e131a029b85045b68181585d2833e84879b9709143e1f593f00000018982601681106102ca57fe5b60200201511061030b5760405162461bcd60e51b81526004018080602001828103825260258152602001806111ef6025913960400191505060405180910390fd5b610345826103408560800151846001016017811061032557fe5b60200201518c856016811061033657fe5b6020020151610db0565b610e47565b9150600101610294565b5061037861035c86610ee5565b8584600001518560200151858760400151898960600151610f68565b9998505050505050505050565b61038d6110de565b6040805180820182527f2d4d9aa7e302d9df41749d5507949d05dbea33fbb16c643b22f599a2be6df2e281527f14bedd503c37ceb061d8ec60209fe345ce89830a19230301f076caff004d19266020808301919091529083528151608080820184527f0967032fcbf776d1afc985f88877f182d38480a653f2decaa9794cbc3bf3060c8285019081527f0e187847ad4c798374d0d6732bf501847dd68bc0e071241e0213bc7fc13db7ab606080850191909152908352845180860186527f304cfbd1e08a704a99f5e847d93f8c3caafddec46b7a0d379da69a4d112346a781527f1739c1b1a457a8c7313123d24d2f9192f896b7c63eea05a9d57f06547ad0cec8818601528385015285840192909252835180820185527f198e9393920d483a7260bfb731fb5d25f1aa493335a9e71297e485b7aef312c28186019081527f1800deef121f1e76426a00665e5c4479674322d4f75edadd46debd5cd992f6ed828501528152845180860186527f090689d0585ff075ec9e99ad690c3395bc4b313370b38ef355acdadcd122975b81527f12c85ea5db8c6deb4aab71808dcb408fe3d1e7690c43d37b4ce6cc0166fa7daa818601528185015285850152835180820185527f2b4fe74b1705e0dbcf652712a9a2c1f761de8917d2dab70cc07a76e3201728b78186019081527f2baf850080e34ac85787740dabc75b668cb5367c5534a4359496cc3a4580cb0e828501528152845180860186527f0de6548493f1e0d6f62152e23d9299e04dbf294c91d451971b66ec1c9739034581527f28e81ad0d32cfff5394f216840dd83425e89d4cadbae10c72e4e48cb6ac9dd67818601528185015282860152835180850185527f28efcabf2243fc24b472983774251caa028d33a79f92cdd32da197e2320d6f0381527eb6de5bb48e4890030e25321a9b38ab1d14fd6f7210c36391cac84bd51b254681850152818601805191909152845180860186527f22acf8b812581bc346d9abb1248121a429ffdcdf528da87f51eee76bb85569b981527f2ca34802a7b1e0151cb865947c823b69c3994bde504992294b11250507d3ac77818601528151850152845180860186527f21af375d3f1b12a39a24c6a871cdc39c2f021d4ca5834ccff9b866192f2a0f3581527f1d0815bd7c681738a952f67b9906a9841b21223268195b0b2adb76bd011bbc5b818601528151860152845180860186527f16ceb84c85cd56c9142869ee4c48c5aae1bdadd36806934cc7488bbeeaadd58781527f1a2fa20c6e0dfb695645f25c8b67846a7cc4a0fb46ed2826809ba2ae85ed933381860152815190930192909252835180850185527f0de39eaa634ad1e4f2316b7e8d5d96d3239151933711093e3f776653d8202f4f81527f191199f8f3f10b9370800442f22b438c6dc89bfd55f46291a49a0bc4b8db7dee81850152825190910152825180840184527f0c065e9898ec577872444305e98cbd686ee0c43594b12b973e58e6bd6c9af74581527f0ed355a2c8d361b6124136c763238b6c69dc32e34a783717601335ad3953acfa81840152815160a00152825180840184527f25f84fd00b35a0558894ebebe91f8797177694f87c4a4a095c8b457f6999462b81527f13b1bcd70f860d4fc4e4890ec8f820b4539091e94383fb4fc2ff9b8d27e5cc5781840152815160c00152825180840184527f25800468a6eb3c2544d2b085f9d8a9ecb7b41f2babde919aa30568e567ed281d81527f1aebe69e7d4010bfe5bf5be37ca7059bea32c9f412df82b47a2190ffb12da75981840152815160e00152825180840184527f1c5d0700e506dc5efaf63f4d2e27ed7b1cc4b5cd9295acc9d4628be45019316681527f2254bcfd7034daa485a84808c372ccc2e3a54127df2cd59be88cd228a2cb8a808184015281516101000152825180840184527f15193dfebfe192352e1592c5203058cabced3f02c5c8ac714d528e2418e2533d81527f01f255000fc0d64eb375f52c714668884890b57c5933eb6497e726286956db448184015281516101200152825180840184527f295a01ad00cc382b289c145e397653d66bad048034b2a80422e666234ee32d8581527f17e0597cec2355a1849e435d32b1014f787d66b761be592ca28937eec10fdc138184015281516101400152825180840184527f0b848e0f79ad9b50391c399eaaafd9db4aeaf54163a82b04e72e05643061e9f781527f2d4af34b78f35b8d17ee258959fd8f8aa5ff423dea2b539a5b4563b0994d24878184015281516101600152825180840184527f06a2c18156a5dafc1230ece2b41697b61c616946f67e02c31b993756a11d401581527f191b28b8468e2c31a554619e52e2699b93417443528a9565484e1ebec3d9d5978184015281516101800152825180840184527f2ceca71d35a8baa2eae8677c91054fa953f9d6f1607f5a738c882d80cae7703281527f0a1f9c8f1b580d0fea13386a9eb0ec355884c4e6f045d72dc683f08d9a8828958184015281516101a00152825180840184527f29055e556ec7bf6c5b022dbf570740345ea1fffb807b56cef9654aa2e300b9bf81527f0c544c79cb80d0483ccd103de9b45eb74b9361144e27a240edf1a1f4a74417938184015281516101c00152825180840184527f0af868eb907f26caa6b43c9f4d8c10df0154ec4470c5af09ddf77663c2d3cfb381527f051268467221500ebbf35e0bc065f28cfd441e89916bd28599c964fe428e4b2a8184015281516101e00152825180840184527f2a93464bc032a345c76234fe15236c2d0173eb1bfb9381510c12e12a7c55d1be81527f213d5a7984c59473b8c39127fd906bc18954762e3e795c57fc45ada236b142658184015281516102000152825180840184527f276bed96887670f1f08db4ddaa0f783984da5cc0f5182bd57af080ff8afefe5681527f2dbdadcb675005e082e4873109bdf88683d44424e7c46d4cbc5ce41d13b5a9298184015281516102200152825180840184527f2b35e9c801fdb8410aa7abc925ef3ec04b979e904fdee0bdcb2745dce47f22e981527f1b4c6ed60fb1593bc796ee926b53ea1a4b56ea22cb1524d94b816626159960188184015281516102400152825180840184527f2cea03666329dfcfe64d74bdd441cfd9aa1680b39951e3956179c24e4061269581527f179dc43c970402353f798b0d6c21beb9797c8c048aeebb2bfa94620cb0fb601e8184015281516102600152825180840184527f2976d6defdb37395453c9f436d25fd463029f8cfed5198d744433d750bca94a781527f23981ce27f85b72ad2c98efc7b0e5d590629e10a556cf9f5d324d50920a64e138184015281516102800152825180840184527f2fd4d6331c23c7a4220190f5a87c74ed6c8c93ecd0f3d156a341c8b13dcfcee681527f057ab4b662f11a36193e755194acd23a083e587ad86d745f605c54caf5f9040f8184015281516102a0015282518084019093527f0aa8e8455f3ff3fc505707e31e3650ccaec81aceb899e6bef188cf449ea4775a83527f1b13f997d37a9bdf656374dd617798c9820886deac002d2da9a0e50e793bc89391830191909152516102c0015290565b610db861112a565b60408051606080820183528551825260208087015190830152918101849052906000908360808460076107d05a03fa9050808015610df557610df7565bfe5b5080610e3f576040805162461bcd60e51b81526020600482015260126024820152711c185a5c9a5b99cb5b5d5b0b59985a5b195960721b604482015290519081900360640190fd5b505092915050565b610e4f61112a565b6000604051806080016040528085600001518152602001856020015181526020018460000151815260200184602001518152509050600060608360c08460066107d05a03fa9050808015610df5575080610e3f576040805162461bcd60e51b81526020600482015260126024820152711c185a5c9a5b99cb5859190b59985a5b195960721b604482015290519081900360640190fd5b610eed61112a565b8151158015610efe57506020820151155b15610f1d57506040805180820190915260008082526020820152610f63565b6040518060400160405280836000015181526020016000805160206111cf833981519152846020015181610f4d57fe5b066000805160206111cf83398151915203905290505b919050565b6040805161030081018252895181526020808b015181830152895151928201929092528851820151606082015288820180515160808301525182015160a0820152875160c08201528782015160e08201528651516101008201528651820151610120820152868201805151610140830152518201516101608201528551610180820152858201516101a08201528451516101c082015284518201516101e08201528482018051516102008301525182015161022082015283516102408201528382015161026082015282515161028082015282518201516102a08201528282018051516102c083015251909101516102e0820152600090611067611144565b60006020826103008560086107d05a03fa9050808015610df55750806110cc576040805162461bcd60e51b81526020600482015260156024820152741c185a5c9a5b99cb5bdc18dbd9194b59985a5b1959605a1b604482015290519081900360640190fd5b505115159a9950505050505050505050565b6040518060a001604052806110f161112a565b81526020016110fe611162565b815260200161110b611162565b8152602001611118611162565b8152602001611125611182565b905290565b604051806040016040528060008152602001600081525090565b60405180602001604052806001906020820280368337509192915050565b60405180604001604052806111756111b0565b81526020016111256111b0565b604051806102e001604052806017905b61119a61112a565b8152602001906001900390816111925790505090565b6040518060400160405280600290602082028036833750919291505056fe30644e72e131a029b85045b68181585d97816a916871ca8d3c208c16d87cfd4776657269666965722d696e7075742d6774652d736e61726b2d7363616c61722d6669656c6476657269666965722d70726f6f662d656c656d656e742d6774652d7072696d652d71a2646970667358221220d6f7e97de036b006c276a1aee5b1dfe3e828f12293f0096c62fe678d42228f7c64736f6c63430007060033",
  "linkReferences": {},
  "deployedLinkReferences": {}
}