{
  "_format": "hh-sol-artifact-1",
  "contractName": "ZkInvest",
  "sourceName": "contracts/ZkInvest.sol",
  "abi": [
    {
      "inputs": [
        {
          "internalType": "contract IVerifier[3]",
          "name": "_verifiers",
          "type": "address[3]"
        },
        {
          "internalType": "uint32",
          "name": "_levels",
          "type": "uint32"
        },
        {
          "internalType": "address",
          "name": "_hasher",
          "type": "address"
        },
        {
          "internalType": "contract IERC20",
          "name": "_token",
          "type": "address"
        },
        {
          "internalType": "contract AbstractERC1155",
          "name": "_projectTokensContract",
          "type": "address"
        },
        {
          "internalType": "address",
          "name": "_multisig",
          "type": "address"
        }
      ],
      "stateMutability": "nonpayable",
      "type": "constructor"
    },
    {
      "anonymous": false,
      "inputs": [
        {
          "indexed": false,
          "internalType": "bytes32",
          "name": "commitment",
          "type": "bytes32"
        },
        {
          "indexed": false,
          "internalType": "uint256",
          "name": "index",
          "type": "uint256"
        },
        {
          "indexed": false,
          "internalType": "bytes",
          "name": "encryptedOutput",
          "type": "bytes"
        }
      ],
      "name": "NewCommitment",
      "type": "event"
    },
    {
      "anonymous": false,
      "inputs": [
        {
          "indexed": false,
          "internalType": "bytes32",
          "name": "nullifier",
          "type": "bytes32"
        }
      ],
      "name": "NewNullifier",
      "type": "event"
    },
    {
      "anonymous": false,
      "inputs": [
        {
          "indexed": false,
          "internalType": "bytes32",
          "name": "commitment",
          "type": "bytes32"
        },
        {
          "indexed": false,
          "internalType": "bytes",
          "name": "encryptedOutput",
          "type": "bytes"
        }
      ],
      "name": "NewPendingCommitment",
      "type": "event"
    },
    {
      "anonymous": false,
      "inputs": [
        {
          "indexed": false,
          "internalType": "bytes",
          "name": "creator",
          "type": "bytes"
        },
        {
          "indexed": false,
          "internalType": "uint256",
          "name": "tokenId",
          "type": "uint256"
        },
        {
          "indexed": false,
          "internalType": "string",
          "name": "title",
          "type": "string"
        },
        {
          "indexed": false,
          "internalType": "string",
          "name": "description",
          "type": "string"
        }
      ],
      "name": "NewProjectCreated",
      "type": "event"
    },
    {
      "anonymous": false,
      "inputs": [
        {
          "indexed": true,
          "internalType": "address",
          "name": "owner",
          "type": "address"
        },
        {
          "indexed": false,
          "internalType": "bytes",
          "name": "key",
          "type": "bytes"
        }
      ],
      "name": "PublicKey",
      "type": "event"
    },
    {
      "inputs": [],
      "name": "FIELD_SIZE",
      "outputs": [
        {
          "internalType": "uint256",
          "name": "",
          "type": "uint256"
        }
      ],
      "stateMutability": "view",
      "type": "function"
    },
    {
      "inputs": [],
      "name": "MAX_EXT_AMOUNT",
      "outputs": [
        {
          "internalType": "int256",
          "name": "",
          "type": "int256"
        }
      ],
      "stateMutability": "view",
      "type": "function"
    },
    {
      "inputs": [],
      "name": "MAX_FEE",
      "outputs": [
        {
          "internalType": "uint256",
          "name": "",
          "type": "uint256"
        }
      ],
      "stateMutability": "view",
      "type": "function"
    },
    {
      "inputs": [],
      "name": "MIN_EXT_AMOUNT_LIMIT",
      "outputs": [
        {
          "internalType": "uint256",
          "name": "",
          "type": "uint256"
        }
      ],
      "stateMutability": "view",
      "type": "function"
    },
    {
      "inputs": [],
      "name": "ROOT_HISTORY_SIZE",
      "outputs": [
        {
          "internalType": "uint32",
          "name": "",
          "type": "uint32"
        }
      ],
      "stateMutability": "view",
      "type": "function"
    },
    {
      "inputs": [],
      "name": "ZERO_VALUE",
      "outputs": [
        {
          "internalType": "uint256",
          "name": "",
          "type": "uint256"
        }
      ],
      "stateMutability": "view",
      "type": "function"
    },
    {
      "inputs": [],
      "name": "__gap",
      "outputs": [
        {
          "internalType": "uint256",
          "name": "",
          "type": "uint256"
        }
      ],
      "stateMutability": "view",
      "type": "function"
    },
    {
      "inputs": [
        {
          "components": [
            {
              "internalType": "bytes",
              "name": "proof",
              "type": "bytes"
            },
            {
              "internalType": "bytes32",
              "name": "commitmentReceived",
              "type": "bytes32"
            },
            {
              "internalType": "bytes32",
              "name": "commitmentSent",
              "type": "bytes32"
            },
            {
              "internalType": "uint256",
              "name": "tokenValue",
              "type": "uint256"
            },
            {
              "internalType": "uint256",
              "name": "sentTokenId",
              "type": "uint256"
            }
          ],
          "internalType": "struct ZkInvest.ProjectTokenTransferProof",
          "name": "_args",
          "type": "tuple"
        },
        {
          "components": [
            {
              "internalType": "bytes",
              "name": "encryptedOutput1",
              "type": "bytes"
            },
            {
              "internalType": "bytes",
              "name": "encryptedOutput2",
              "type": "bytes"
            }
          ],
          "internalType": "struct ZkInvest.EncryptedOutputs",
          "name": "_encryptedOutputs",
          "type": "tuple"
        },
        {
          "internalType": "bytes32",
          "name": "_emptyCommitment",
          "type": "bytes32"
        }
      ],
      "name": "acceptInvestment",
      "outputs": [],
      "stateMutability": "nonpayable",
      "type": "function"
    },
    {
      "inputs": [
        {
          "internalType": "int256",
          "name": "_extAmount",
          "type": "int256"
        },
        {
          "internalType": "uint256",
          "name": "_fee",
          "type": "uint256"
        }
      ],
      "name": "calculatePublicAmount",
      "outputs": [
        {
          "internalType": "uint256",
          "name": "",
          "type": "uint256"
        }
      ],
      "stateMutability": "pure",
      "type": "function"
    },
    {
      "inputs": [
        {
          "components": [
            {
              "internalType": "bytes",
              "name": "proof",
              "type": "bytes"
            },
            {
              "internalType": "bytes32",
              "name": "root",
              "type": "bytes32"
            },
            {
              "internalType": "bytes32[]",
              "name": "inputNullifiers",
              "type": "bytes32[]"
            },
            {
              "internalType": "bytes32[2]",
              "name": "outputCommitments",
              "type": "bytes32[2]"
            },
            {
              "internalType": "uint256",
              "name": "publicAmount",
              "type": "uint256"
            },
            {
              "internalType": "uint256",
              "name": "publicTokenId",
              "type": "uint256"
            },
            {
              "internalType": "bytes32",
              "name": "extDataHash",
              "type": "bytes32"
            }
          ],
          "internalType": "struct TornadoPool.Proof",
          "name": "_args",
          "type": "tuple"
        }
      ],
      "name": "cancelInvestment",
      "outputs": [],
      "stateMutability": "nonpayable",
      "type": "function"
    },
    {
      "inputs": [
        {
          "internalType": "uint256",
          "name": "_maximumDepositAmount",
          "type": "uint256"
        }
      ],
      "name": "configureLimits",
      "outputs": [],
      "stateMutability": "nonpayable",
      "type": "function"
    },
    {
      "inputs": [
        {
          "components": [
            {
              "internalType": "address",
              "name": "owner",
              "type": "address"
            },
            {
              "internalType": "bytes",
              "name": "publicKey",
              "type": "bytes"
            }
          ],
          "internalType": "struct TornadoPool.Account",
          "name": "_account",
          "type": "tuple"
        },
        {
          "internalType": "string",
          "name": "_title",
          "type": "string"
        },
        {
          "internalType": "string",
          "name": "_description",
          "type": "string"
        },
        {
          "internalType": "uint256",
          "name": "_tokenValue",
          "type": "uint256"
        }
      ],
      "name": "createProject",
      "outputs": [],
      "stateMutability": "nonpayable",
      "type": "function"
    },
    {
      "inputs": [],
      "name": "currentRootIndex",
      "outputs": [
        {
          "internalType": "uint32",
          "name": "",
          "type": "uint32"
        }
      ],
      "stateMutability": "view",
      "type": "function"
    },
    {
      "inputs": [
        {
          "internalType": "uint256",
          "name": "",
          "type": "uint256"
        }
      ],
      "name": "filledSubtrees",
      "outputs": [
        {
          "internalType": "bytes32",
          "name": "",
          "type": "bytes32"
        }
      ],
      "stateMutability": "view",
      "type": "function"
    },
    {
      "inputs": [],
      "name": "getLastRoot",
      "outputs": [
        {
          "internalType": "bytes32",
          "name": "",
          "type": "bytes32"
        }
      ],
      "stateMutability": "view",
      "type": "function"
    },
    {
      "inputs": [
        {
          "internalType": "bytes32",
          "name": "_left",
          "type": "bytes32"
        },
        {
          "internalType": "bytes32",
          "name": "_right",
          "type": "bytes32"
        }
      ],
      "name": "hashLeftRight",
      "outputs": [
        {
          "internalType": "bytes32",
          "name": "",
          "type": "bytes32"
        }
      ],
      "stateMutability": "view",
      "type": "function"
    },
    {
      "inputs": [],
      "name": "hasher",
      "outputs": [
        {
          "internalType": "contract IHasher",
          "name": "",
          "type": "address"
        }
      ],
      "stateMutability": "view",
      "type": "function"
    },
    {
      "inputs": [
        {
          "internalType": "uint256",
          "name": "_maximumDepositAmount",
          "type": "uint256"
        }
      ],
      "name": "initialize",
      "outputs": [],
      "stateMutability": "nonpayable",
      "type": "function"
    },
    {
      "inputs": [],
      "name": "initializeProjects",
      "outputs": [],
      "stateMutability": "nonpayable",
      "type": "function"
    },
    {
      "inputs": [
        {
          "internalType": "bytes32",
          "name": "_root",
          "type": "bytes32"
        }
      ],
      "name": "isKnownRoot",
      "outputs": [
        {
          "internalType": "bool",
          "name": "",
          "type": "bool"
        }
      ],
      "stateMutability": "view",
      "type": "function"
    },
    {
      "inputs": [
        {
          "internalType": "bytes32",
          "name": "_nullifierHash",
          "type": "bytes32"
        }
      ],
      "name": "isPending",
      "outputs": [
        {
          "internalType": "bool",
          "name": "",
          "type": "bool"
        }
      ],
      "stateMutability": "view",
      "type": "function"
    },
    {
      "inputs": [
        {
          "internalType": "bytes32",
          "name": "_nullifierHash",
          "type": "bytes32"
        }
      ],
      "name": "isSpent",
      "outputs": [
        {
          "internalType": "bool",
          "name": "",
          "type": "bool"
        }
      ],
      "stateMutability": "view",
      "type": "function"
    },
    {
      "inputs": [],
      "name": "lastBalance",
      "outputs": [
        {
          "internalType": "uint256",
          "name": "",
          "type": "uint256"
        }
      ],
      "stateMutability": "view",
      "type": "function"
    },
    {
      "inputs": [],
      "name": "levels",
      "outputs": [
        {
          "internalType": "uint32",
          "name": "",
          "type": "uint32"
        }
      ],
      "stateMutability": "view",
      "type": "function"
    },
    {
      "inputs": [],
      "name": "maximumDepositAmount",
      "outputs": [
        {
          "internalType": "uint256",
          "name": "",
          "type": "uint256"
        }
      ],
      "stateMutability": "view",
      "type": "function"
    },
    {
      "inputs": [],
      "name": "multisig",
      "outputs": [
        {
          "internalType": "address",
          "name": "",
          "type": "address"
        }
      ],
      "stateMutability": "view",
      "type": "function"
    },
    {
      "inputs": [],
      "name": "nextIndex",
      "outputs": [
        {
          "internalType": "uint32",
          "name": "",
          "type": "uint32"
        }
      ],
      "stateMutability": "view",
      "type": "function"
    },
    {
      "inputs": [
        {
          "internalType": "bytes32",
          "name": "",
          "type": "bytes32"
        }
      ],
      "name": "nullifierHashes",
      "outputs": [
        {
          "internalType": "bool",
          "name": "",
          "type": "bool"
        }
      ],
      "stateMutability": "view",
      "type": "function"
    },
    {
      "inputs": [
        {
          "internalType": "address",
          "name": "",
          "type": "address"
        },
        {
          "internalType": "address",
          "name": "",
          "type": "address"
        },
        {
          "internalType": "uint256[]",
          "name": "",
          "type": "uint256[]"
        },
        {
          "internalType": "uint256[]",
          "name": "values",
          "type": "uint256[]"
        },
        {
          "internalType": "bytes",
          "name": "",
          "type": "bytes"
        }
      ],
      "name": "onERC1155BatchReceived",
      "outputs": [
        {
          "internalType": "bytes4",
          "name": "",
          "type": "bytes4"
        }
      ],
      "stateMutability": "pure",
      "type": "function"
    },
    {
      "inputs": [
        {
          "internalType": "address",
          "name": "",
          "type": "address"
        },
        {
          "internalType": "address",
          "name": "",
          "type": "address"
        },
        {
          "internalType": "uint256",
          "name": "",
          "type": "uint256"
        },
        {
          "internalType": "uint256",
          "name": "value",
          "type": "uint256"
        },
        {
          "internalType": "bytes",
          "name": "",
          "type": "bytes"
        }
      ],
      "name": "onERC1155Received",
      "outputs": [
        {
          "internalType": "bytes4",
          "name": "",
          "type": "bytes4"
        }
      ],
      "stateMutability": "pure",
      "type": "function"
    },
    {
      "inputs": [
        {
          "internalType": "bytes32",
          "name": "",
          "type": "bytes32"
        }
      ],
      "name": "pendingCommitmentToCommitment",
      "outputs": [
        {
          "internalType": "bytes32",
          "name": "",
          "type": "bytes32"
        }
      ],
      "stateMutability": "view",
      "type": "function"
    },
    {
      "inputs": [
        {
          "internalType": "bytes32",
          "name": "",
          "type": "bytes32"
        }
      ],
      "name": "pendingCommitmentToEncryptedOutput",
      "outputs": [
        {
          "internalType": "bytes",
          "name": "",
          "type": "bytes"
        }
      ],
      "stateMutability": "view",
      "type": "function"
    },
    {
      "inputs": [
        {
          "internalType": "bytes32",
          "name": "",
          "type": "bytes32"
        },
        {
          "internalType": "uint256",
          "name": "",
          "type": "uint256"
        }
      ],
      "name": "pendingCommitmentToNullifiers",
      "outputs": [
        {
          "internalType": "bytes32",
          "name": "",
          "type": "bytes32"
        }
      ],
      "stateMutability": "view",
      "type": "function"
    },
    {
      "inputs": [
        {
          "internalType": "bytes32",
          "name": "",
          "type": "bytes32"
        }
      ],
      "name": "pendingNullifierHashes",
      "outputs": [
        {
          "internalType": "bool",
          "name": "",
          "type": "bool"
        }
      ],
      "stateMutability": "view",
      "type": "function"
    },
    {
      "inputs": [
        {
          "internalType": "address",
          "name": "",
          "type": "address"
        }
      ],
      "name": "projectOwnerToToken",
      "outputs": [
        {
          "internalType": "uint256",
          "name": "",
          "type": "uint256"
        }
      ],
      "stateMutability": "view",
      "type": "function"
    },
    {
      "inputs": [
        {
          "internalType": "uint256",
          "name": "",
          "type": "uint256"
        }
      ],
      "name": "projectTokenToOwner",
      "outputs": [
        {
          "internalType": "address",
          "name": "",
          "type": "address"
        }
      ],
      "stateMutability": "view",
      "type": "function"
    },
    {
      "inputs": [],
      "name": "projectTokenTransferVerifier",
      "outputs": [
        {
          "internalType": "contract IVerifier",
          "name": "",
          "type": "address"
        }
      ],
      "stateMutability": "view",
      "type": "function"
    },
    {
      "inputs": [
        {
          "internalType": "uint256",
          "name": "",
          "type": "uint256"
        }
      ],
      "name": "projectTokens",
      "outputs": [
        {
          "internalType": "uint256",
          "name": "id",
          "type": "uint256"
        },
        {
          "internalType": "uint256",
          "name": "value",
          "type": "uint256"
        }
      ],
      "stateMutability": "view",
      "type": "function"
    },
    {
      "inputs": [],
      "name": "projectTokensContract",
      "outputs": [
        {
          "internalType": "contract AbstractERC1155",
          "name": "",
          "type": "address"
        }
      ],
      "stateMutability": "view",
      "type": "function"
    },
    {
      "inputs": [
        {
          "internalType": "uint256",
          "name": "",
          "type": "uint256"
        }
      ],
      "name": "projects",
      "outputs": [
        {
          "components": [
            {
              "internalType": "address",
              "name": "owner",
              "type": "address"
            },
            {
              "internalType": "bytes",
              "name": "publicKey",
              "type": "bytes"
            }
          ],
          "internalType": "struct TornadoPool.Account",
          "name": "creator",
          "type": "tuple"
        },
        {
          "internalType": "uint256",
          "name": "tokenId",
          "type": "uint256"
        },
        {
          "internalType": "string",
          "name": "title",
          "type": "string"
        },
        {
          "internalType": "string",
          "name": "description",
          "type": "string"
        }
      ],
      "stateMutability": "view",
      "type": "function"
    },
    {
      "inputs": [
        {
          "components": [
            {
              "internalType": "address",
              "name": "owner",
              "type": "address"
            },
            {
              "internalType": "bytes",
              "name": "publicKey",
              "type": "bytes"
            }
          ],
          "internalType": "struct TornadoPool.Account",
          "name": "_account",
          "type": "tuple"
        }
      ],
      "name": "register",
      "outputs": [],
      "stateMutability": "nonpayable",
      "type": "function"
    },
    {
      "inputs": [
        {
          "components": [
            {
              "internalType": "address",
              "name": "owner",
              "type": "address"
            },
            {
              "internalType": "bytes",
              "name": "publicKey",
              "type": "bytes"
            }
          ],
          "internalType": "struct TornadoPool.Account",
          "name": "_account",
          "type": "tuple"
        },
        {
          "components": [
            {
              "internalType": "bytes",
              "name": "proof",
              "type": "bytes"
            },
            {
              "internalType": "bytes32",
              "name": "root",
              "type": "bytes32"
            },
            {
              "internalType": "bytes32[]",
              "name": "inputNullifiers",
              "type": "bytes32[]"
            },
            {
              "internalType": "bytes32[2]",
              "name": "outputCommitments",
              "type": "bytes32[2]"
            },
            {
              "internalType": "uint256",
              "name": "publicAmount",
              "type": "uint256"
            },
            {
              "internalType": "uint256",
              "name": "publicTokenId",
              "type": "uint256"
            },
            {
              "internalType": "bytes32",
              "name": "extDataHash",
              "type": "bytes32"
            }
          ],
          "internalType": "struct TornadoPool.Proof",
          "name": "_proofArgs",
          "type": "tuple"
        },
        {
          "components": [
            {
              "internalType": "address",
              "name": "recipient",
              "type": "address"
            },
            {
              "internalType": "int256",
              "name": "extAmount",
              "type": "int256"
            },
            {
              "internalType": "uint256",
              "name": "publicTokenId",
              "type": "uint256"
            },
            {
              "internalType": "address",
              "name": "relayer",
              "type": "address"
            },
            {
              "internalType": "uint256",
              "name": "fee",
              "type": "uint256"
            },
            {
              "internalType": "bytes",
              "name": "encryptedOutput1",
              "type": "bytes"
            },
            {
              "internalType": "bytes",
              "name": "encryptedOutput2",
              "type": "bytes"
            }
          ],
          "internalType": "struct TornadoPool.ExtData",
          "name": "_extData",
          "type": "tuple"
        }
      ],
      "name": "registerAndTransact",
      "outputs": [],
      "stateMutability": "nonpayable",
      "type": "function"
    },
    {
      "inputs": [
        {
          "internalType": "contract IERC20",
          "name": "_token",
          "type": "address"
        },
        {
          "internalType": "address payable",
          "name": "_to",
          "type": "address"
        },
        {
          "internalType": "uint256",
          "name": "_balance",
          "type": "uint256"
        }
      ],
      "name": "rescueTokens",
      "outputs": [],
      "stateMutability": "nonpayable",
      "type": "function"
    },
    {
      "inputs": [
        {
          "internalType": "uint256",
          "name": "",
          "type": "uint256"
        }
      ],
      "name": "roots",
      "outputs": [
        {
          "internalType": "bytes32",
          "name": "",
          "type": "bytes32"
        }
      ],
      "stateMutability": "view",
      "type": "function"
    },
    {
      "inputs": [
        {
          "internalType": "string",
          "name": "_newUri",
          "type": "string"
        }
      ],
      "name": "setProjectTokensURI",
      "outputs": [],
      "stateMutability": "nonpayable",
      "type": "function"
    },
    {
      "inputs": [
        {
          "internalType": "bytes4",
          "name": "interfaceID",
          "type": "bytes4"
        }
      ],
      "name": "supportsInterface",
      "outputs": [
        {
          "internalType": "bool",
          "name": "",
          "type": "bool"
        }
      ],
      "stateMutability": "pure",
      "type": "function"
    },
    {
      "inputs": [],
      "name": "token",
      "outputs": [
        {
          "internalType": "contract IERC20",
          "name": "",
          "type": "address"
        }
      ],
      "stateMutability": "view",
      "type": "function"
    },
    {
      "inputs": [
        {
          "components": [
            {
              "internalType": "bytes",
              "name": "proof",
              "type": "bytes"
            },
            {
              "internalType": "bytes32",
              "name": "root",
              "type": "bytes32"
            },
            {
              "internalType": "bytes32[]",
              "name": "inputNullifiers",
              "type": "bytes32[]"
            },
            {
              "internalType": "bytes32[2]",
              "name": "outputCommitments",
              "type": "bytes32[2]"
            },
            {
              "internalType": "uint256",
              "name": "publicAmount",
              "type": "uint256"
            },
            {
              "internalType": "uint256",
              "name": "publicTokenId",
              "type": "uint256"
            },
            {
              "internalType": "bytes32",
              "name": "extDataHash",
              "type": "bytes32"
            }
          ],
          "internalType": "struct TornadoPool.Proof",
          "name": "_args",
          "type": "tuple"
        },
        {
          "components": [
            {
              "internalType": "address",
              "name": "recipient",
              "type": "address"
            },
            {
              "internalType": "int256",
              "name": "extAmount",
              "type": "int256"
            },
            {
              "internalType": "uint256",
              "name": "publicTokenId",
              "type": "uint256"
            },
            {
              "internalType": "address",
              "name": "relayer",
              "type": "address"
            },
            {
              "internalType": "uint256",
              "name": "fee",
              "type": "uint256"
            },
            {
              "internalType": "bytes",
              "name": "encryptedOutput1",
              "type": "bytes"
            },
            {
              "internalType": "bytes",
              "name": "encryptedOutput2",
              "type": "bytes"
            }
          ],
          "internalType": "struct TornadoPool.ExtData",
          "name": "_extData",
          "type": "tuple"
        }
      ],
      "name": "transact",
      "outputs": [],
      "stateMutability": "nonpayable",
      "type": "function"
    },
    {
      "inputs": [
        {
          "components": [
            {
              "internalType": "bytes",
              "name": "proof",
              "type": "bytes"
            },
            {
              "internalType": "bytes32",
              "name": "root",
              "type": "bytes32"
            },
            {
              "internalType": "bytes32[]",
              "name": "inputNullifiers",
              "type": "bytes32[]"
            },
            {
              "internalType": "bytes32[2]",
              "name": "outputCommitments",
              "type": "bytes32[2]"
            },
            {
              "internalType": "uint256",
              "name": "publicAmount",
              "type": "uint256"
            },
            {
              "internalType": "uint256",
              "name": "publicTokenId",
              "type": "uint256"
            },
            {
              "internalType": "bytes32",
              "name": "extDataHash",
              "type": "bytes32"
            }
          ],
          "internalType": "struct TornadoPool.Proof",
          "name": "_args",
          "type": "tuple"
        },
        {
          "components": [
            {
              "internalType": "address",
              "name": "recipient",
              "type": "address"
            },
            {
              "internalType": "int256",
              "name": "extAmount",
              "type": "int256"
            },
            {
              "internalType": "uint256",
              "name": "publicTokenId",
              "type": "uint256"
            },
            {
              "internalType": "address",
              "name": "relayer",
              "type": "address"
            },
            {
              "internalType": "uint256",
              "name": "fee",
              "type": "uint256"
            },
            {
              "internalType": "bytes",
              "name": "encryptedOutput1",
              "type": "bytes"
            },
            {
              "internalType": "bytes",
              "name": "encryptedOutput2",
              "type": "bytes"
            }
          ],
          "internalType": "struct TornadoPool.ExtData",
          "name": "_extData",
          "type": "tuple"
        },
        {
          "components": [
            {
              "internalType": "bytes",
              "name": "encryptedOutput1",
              "type": "bytes"
            },
            {
              "internalType": "bytes",
              "name": "encryptedOutput2",
              "type": "bytes"
            }
          ],
          "internalType": "struct ZkInvest.EncryptedOutputs",
          "name": "_cancellable",
          "type": "tuple"
        }
      ],
      "name": "transactWithProject",
      "outputs": [],
      "stateMutability": "nonpayable",
      "type": "function"
    },
    {
      "inputs": [],
      "name": "verifier16",
      "outputs": [
        {
          "internalType": "contract IVerifier",
          "name": "",
          "type": "address"
        }
      ],
      "stateMutability": "view",
      "type": "function"
    },
    {
      "inputs": [],
      "name": "verifier2",
      "outputs": [
        {
          "internalType": "contract IVerifier",
          "name": "",
          "type": "address"
        }
      ],
      "stateMutability": "view",
      "type": "function"
    },
    {
      "inputs": [
        {
          "components": [
            {
              "internalType": "bytes",
              "name": "proof",
              "type": "bytes"
            },
            {
              "internalType": "bytes32",
              "name": "commitmentReceived",
              "type": "bytes32"
            },
            {
              "internalType": "bytes32",
              "name": "commitmentSent",
              "type": "bytes32"
            },
            {
              "internalType": "uint256",
              "name": "tokenValue",
              "type": "uint256"
            },
            {
              "internalType": "uint256",
              "name": "sentTokenId",
              "type": "uint256"
            }
          ],
          "internalType": "struct ZkInvest.ProjectTokenTransferProof",
          "name": "_args",
          "type": "tuple"
        }
      ],
      "name": "verifyProjectTokenTransferProof",
      "outputs": [
        {
          "internalType": "bool",
          "name": "",
          "type": "bool"
        }
      ],
      "stateMutability": "view",
      "type": "function"
    },
    {
      "inputs": [
        {
          "components": [
            {
              "internalType": "bytes",
              "name": "proof",
              "type": "bytes"
            },
            {
              "internalType": "bytes32",
              "name": "root",
              "type": "bytes32"
            },
            {
              "internalType": "bytes32[]",
              "name": "inputNullifiers",
              "type": "bytes32[]"
            },
            {
              "internalType": "bytes32[2]",
              "name": "outputCommitments",
              "type": "bytes32[2]"
            },
            {
              "internalType": "uint256",
              "name": "publicAmount",
              "type": "uint256"
            },
            {
              "internalType": "uint256",
              "name": "publicTokenId",
              "type": "uint256"
            },
            {
              "internalType": "bytes32",
              "name": "extDataHash",
              "type": "bytes32"
            }
          ],
          "internalType": "struct TornadoPool.Proof",
          "name": "_args",
          "type": "tuple"
        }
      ],
      "name": "verifyProof",
      "outputs": [
        {
          "internalType": "bool",
          "name": "",
          "type": "bool"
        }
      ],
      "stateMutability": "view",
      "type": "function"
    },
    {
      "inputs": [
        {
          "internalType": "uint256",
          "name": "i",
          "type": "uint256"
        }
      ],
      "name": "zeros",
      "outputs": [
        {
          "internalType": "bytes32",
          "name": "",
          "type": "bytes32"
        }
      ],
      "stateMutability": "pure",
      "type": "function"
    }
  ],
  "bytecode": "0x610180604052600380546001600160401b03191690553480156200002257600080fd5b50604051620058d3380380620058d383398101604081905262000045916200021f565b855160208701518686868686848463ffffffff8216620000975760405162461bcd60e51b8152600401808060200182810382526023815260200180620058b06023913960400191505060405180910390fd5b60208263ffffffff1610620000f3576040805162461bcd60e51b815260206004820152601e60248201527f5f6c6576656c732073686f756c64206265206c657373207468616e2033320000604482015290519081900360640190fd5b60e091821b6001600160e01b03191660a052606090811b6001600160601b0319908116608052600160045598811b891660c05296871b8816905291851b861661010052841b851661012052831b841661014052505060409097015190961b9095166101605250620003629350505050565b60006200017b6200017584620002de565b620002b2565b905080828560208602850111156200019257600080fd5b60005b85811015620001c057620001aa878362000205565b8352602092830192919091019060010162000195565b5050509392505050565b8051620001d78162000332565b92915050565b600082601f830112620001ee578081fd5b6003620001fd84828562000164565b949350505050565b8051620001d7816200034c565b8051620001d78162000357565b600080600080600080610100878903121562000239578182fd5b6200024788838901620001dd565b955060606200025989828a0162000212565b95505060806200026c89828a01620001ca565b94505060a06200027f89828a0162000205565b93505060c06200029289828a0162000205565b92505060e0620002a589828a01620001ca565b9150509295509295509295565b6040518181016001600160401b0381118282101715620002d657620002d662000330565b604052919050565b60006001600160401b03821115620002fa57620002fa62000330565b5060200290565b6000620001d7826200031b565b6000620001d78262000301565b6001600160a01b031690565b63ffffffff1690565bfe5b6200033d8162000301565b81146200034957600080fd5b50565b6200033d816200030e565b6200033d8162000327565b60805160601c60a05160e01c60c05160601c60e05160601c6101005160601c6101205160601c6101405160601c6101605160601c61546f620004416000398061093d5280611f7e525080610d9a5280611b5d5280611bae5280611c945280611eef525080610afd5280610b815280611c025280612ac552806131ef525080611cf952806129bf5280612fb052806130bc528061316052806132aa5250806109195280610f3b525080610dce52806114a052508061122952806134a05280613523528061364b52806136b4525080610a4c5280612953525061546f6000f3fe608060405234801561001057600080fd5b50600436106102725760003560e01c806301ffc9a714610277578063107046bd146102a057806317cc915c146102c357806324082014146102d65780632570b7b4146102eb5780632d08050a1461030b5780632fc0355f1461031357806335a688331461032857806335f080051461033057806338bf282e146103505780633c54539214610363578063406fa2051461036b578063414a37ba1461037e5780634783c35b146103865780634c6669dc1461038e5780634ecf518b146103a1578063522b6eaf146103b6578063522d0d70146103c95780636522709c146103d15780636d9833e3146103f157806378abb49b146104045780637fe24ffe1461040c5780638f1c56bd1461041457806390eeb02b1461041c5780639c4c4f5114610424578063a23498de14610437578063a24ca8191461044a578063ae1cdc101461045d578063b269449f14610470578063b2bc6e0f14610491578063b99a4d76146104a4578063ba70f757146104b7578063bb279124146104bf578063bc063e1a1461040c578063bc197c81146104d2578063bda06f07146104f2578063c03575db14610505578063c2b40ae414610518578063cb3dce9d1461052b578063cd87a3b414610533578063cea9d26f1461053b578063d5583c431461054e578063d5af9ef814610556578063e5285dcc14610569578063e531d8c71461057c578063e82955881461058f578063e8aea961146105a2578063ec732959146105b5578063ed33639f146105bd578063f178e47c146105c5578063f23a6e61146105d8578063fc0c546a146105eb578063fc7e9c6f146105f3578063fe4b84df146105fb575b600080fd5b61028a610285366004613f0e565b61060e565b6040516102979190614d5f565b60405180910390f35b6102b36102ae366004613eb9565b610647565b6040516102979493929190615094565b61028a6102d1366004613eb9565b610849565b6102e96102e4366004614081565b61085e565b005b6102fe6102f9366004613ed6565b610876565b6040516102979190614d6d565b6102fe61090b565b61031b610917565b6040516102979190614ec6565b61031b61093b565b61034361033e366004613eb9565b61095f565b6040516102979190614c7c565b6102fe61035e366004613ed6565b61097a565b61031b610afb565b6102e9610379366004613fde565b610b1f565b6102fe610d86565b610343610d98565b61028a61039c366004614198565b610dbc565b6103a9611227565b60405161029791906150c4565b6102e96103c4366004614228565b61124b565b61031b61149e565b6103e46103df366004613eb9565b6114c2565b6040516102979190614e03565b61028a6103ff366004613eb9565b61155d565b6102fe6115cd565b6102fe6115d3565b6102fe6115db565b6103a96115e1565b6102e96104323660046141cc565b6115ed565b61028a610445366004613eb9565b6115fb565b6102fe610458366004613ed6565b611610565b6102fe61046b366004613eb9565b611641565b61048361047e366004613eb9565b611653565b6040516102979291906150b6565b6102e961049f366004613faa565b611681565b6102e96104b236600461413a565b6116b6565b6102fe611aaa565b6102fe6104cd366004613d6e565b611ac5565b6104e56104e0366004613d92565b611ad7565b6040516102979190614df5565b6102e9610500366004613eb9565b611b52565b6102e9610513366004613f76565b611ba3565b6102fe610526366004613eb9565b611c6c565b6102fe611c7e565b6103a9611c84565b6102e9610549366004613f2b565b611c89565b6102e9611ee4565b61028a610564366004614106565b611f36565b61028a610577366004613eb9565b612003565b61028a61058a366004613eb9565b612018565b6102fe61059d366004613eb9565b61202d565b6102e96105b0366004614198565b61268b565b6102fe61293f565b61031b612951565b6102fe6105d3366004613eb9565b612975565b6104e56105e6366004613e47565b612987565b61031b6129bd565b6103a96129e1565b6102e9610609366004613eb9565b6129f4565b60006301ffc9a760e01b6001600160e01b03198316148061063f5750630271189760e51b6001600160e01b03198316145b90505b919050565b6010818154811061065757600080fd5b6000918252602091829020604080518082018252600590930290910180546001600160a01b03168352600180820180548451601f60026000199584161561010002959095019092169390930490810187900487028301870190945283825291955092938593858201939092918301828280156107145780601f106106e957610100808354040283529160200191610714565b820191906000526020600020905b8154815290600101906020018083116106f757829003601f168201915b50505091909252505050600280830154600384018054604080516020601f60001961010060018716150201909416969096049283018690048602810186019091528181529495929492938301828280156107af5780601f10610784576101008083540402835291602001916107af565b820191906000526020600020905b81548152906001019060200180831161079257829003601f168201915b5050505060048301805460408051602060026001851615610100026000190190941693909304601f810184900484028201840190925281815294959493509083018282801561083f5780601f106108145761010080835404028352916020019161083f565b820191906000526020600020905b81548152906001019060200180831161082257829003601f168201915b5050505050905084565b60086020526000908152604090205460ff1681565b61086783611681565b61087182826115ed565b505050565b6000600160f81b82106108a45760405162461bcd60e51b815260040161089b90614f84565b60405180910390fd5b6001600160f81b0319831380156108be5750600160f81b83125b6108da5760405162461bcd60e51b815260040161089b90614f14565b81830360008112156108ff578060000360008051602061538a83398151915203610901565b805b9150505b92915050565b6706f05b59d3b2000081565b7f000000000000000000000000000000000000000000000000000000000000000081565b7f000000000000000000000000000000000000000000000000000000000000000081565b600a602052600090815260409020546001600160a01b031681565b600060008051602061538a83398151915283106109de576040805162461bcd60e51b815260206004820181905260248201527f5f6c6566742073686f756c6420626520696e7369646520746865206669656c64604482015290519081900360640190fd5b60008051602061538a8339815191528210610a2a5760405162461bcd60e51b81526004018080602001828103825260218152602001806152fb6021913960400191505060405180910390fd5b610a32613711565b838152602081018390526040805163014cf2b360e51b81527f00000000000000000000000000000000000000000000000000000000000000006001600160a01b03169163299e56609184916004909101908190839080838360005b83811015610aa5578181015183820152602001610a8d565b5050505090500191505060206040518083038186803b158015610ac757600080fd5b505afa158015610adb573d6000803e3d6000fd5b505050506040513d6020811015610af157600080fd5b5051949350505050565b7f000000000000000000000000000000000000000000000000000000000000000081565b610b2884611681565b83516001600160a01b03166000908152600b602052604090205415610b5f5760405162461bcd60e51b815260040161089b90615044565b610b67612aa7565b600f5460405163731133e960e01b81526001600160a01b037f0000000000000000000000000000000000000000000000000000000000000000169063731133e990610bbb9030908590600090600401614d1c565b600060405180830381600087803b158015610bd557600080fd5b505af1158015610be9573d6000803e3d6000fd5b505086516000848152600a6020908152604080832080546001600160a01b03199081166001600160a01b03968716179091558b5185168452600b8352818420889055815180830183528881528084018a8152600f805460018181018355918852925160008051602061541a83398151915260029094029384015590516000805160206152bb8339815191529092019190915582516080810184528d81528085018a90529283018c9052606083018b9052601080549182018155909452815180516000805160206153ca8339815191526005909602958601805490931696169590951781558483015180519297509095508593610cfa9360008051602061533c8339815191529091019291019061372f565b505050602082810151600283015560408301518051610d1f926003850192019061372f565b5060608201518051610d3b91600484019160209091019061372f565b5050507f02a29705ceb3eb5d567c891caba5e58b982b2fe26bfd8e87c8ccf0daccb3c0bf8560200151828686604051610d779493929190614e76565b60405180910390a15050505050565b60008051602061538a83398151915281565b7f000000000000000000000000000000000000000000000000000000000000000081565b600081604001515160021415610f2b577f00000000000000000000000000000000000000000000000000000000000000006001600160a01b031663449ccd1e8360000151604051806101000160405280866020015160001c8152602001866080015181526020018660a0015181526020018660c0015160001c81526020018660400151600081518110610e4b57fe5b602002602001015160001c81526020018660400151600181518110610e6c57fe5b602002602001015160001c81526020018660600151600060028110610e8d57fe5b602002015160001c81526020018660600151600160028110610eab57fe5b602002015190526040516001600160e01b031960e085901b168152610ed4929190600401614e55565b60206040518083038186803b158015610eec57600080fd5b505afa158015610f00573d6000803e3d6000fd5b505050506040513d601f19601f82011682018060405250810190610f249190613e9c565b9050610642565b8160400151516010141561120f577f00000000000000000000000000000000000000000000000000000000000000006001600160a01b0316634a2f947d8360000151604051806102c00160405280866020015160001c8152602001866080015181526020018660a0015181526020018660c0015160001c81526020018660400151600081518110610fb857fe5b602002602001015160001c81526020018660400151600181518110610fd957fe5b602002602001015160001c81526020018660400151600281518110610ffa57fe5b602002602001015160001c8152602001866040015160038151811061101b57fe5b602002602001015160001c8152602001866040015160048151811061103c57fe5b602002602001015160001c8152602001866040015160058151811061105d57fe5b602002602001015160001c8152602001866040015160068151811061107e57fe5b602002602001015160001c8152602001866040015160078151811061109f57fe5b602002602001015160001c815260200186604001516008815181106110c057fe5b602002602001015160001c815260200186604001516009815181106110e157fe5b602002602001015160001c81526020018660400151600a8151811061110257fe5b602002602001015160001c81526020018660400151600b8151811061112357fe5b602002602001015160001c81526020018660400151600c8151811061114457fe5b602002602001015160001c81526020018660400151600d8151811061116557fe5b602002602001015160001c81526020018660400151600e8151811061118657fe5b602002602001015160001c81526020018660400151600f815181106111a757fe5b602002602001015160001c815260200186606001516000600281106111c857fe5b602002015160001c815260200186606001516001600281106111e657fe5b602002015190526040516001600160e01b031960e085901b168152610ed4929190600401614e14565b60405162461bcd60e51b815260040161089b90615074565b7f000000000000000000000000000000000000000000000000000000000000000081565b60026004541415611291576040805162461bcd60e51b815260206004820152601f602482015260008051602061527b833981519152604482015290519081900360640190fd5b60026004556020820151156112b85760405162461bcd60e51b815260040161089b90614ed4565b6112c28383612cdd565b60005b83604001515181101561131957600160096000866040015184815181106112e857fe5b6020908102919091018101518252810191909152604001600020805460ff19169115159190911790556001016112c5565b506040838101516060850151516000908152600c6020908152929020815161134793919291909101906137bb565b5060608301805160208082015191516000908152600d8252604080822093909355835180519083015182528382205560a08601519351518152600e825291909120825161139a939192919091019061372f565b5060c082015160608401516020908101516000908152600e82526040902082516113c99391929091019061372f565b5060608301515160a08301516040516000805160206152db833981519152926113f3929091614d7b565b60405180910390a160608301516020015160c08301516040516000805160206152db83398151915292611427929091614d7b565b60405180910390a160608301515181516040516000805160206152db83398151915292611455929091614d7b565b60405180910390a160608301516000805160206152db8339815191529060016020020151826020015160405161148c929190614d7b565b60405180910390a15050600160045550565b7f000000000000000000000000000000000000000000000000000000000000000081565b600e6020908152600091825260409182902080548351601f6002600019610100600186161502019093169290920491820184900484028101840190945280845290918301828280156115555780601f1061152a57610100808354040283529160200191611555565b820191906000526020600020905b81548152906001019060200180831161153857829003601f168201915b505050505081565b60008161156c57506000610642565b60035463ffffffff16805b63ffffffff811660009081526002602052604090205484141561159f57600192505050610642565b63ffffffff81166115ae575060645b6000190163ffffffff8082169083161415611577575060009392505050565b60075481565b600160f81b81565b60055481565b60035463ffffffff1681565b6115f78282612eda565b5050565b60096020526000908152604090205460ff1681565b600c602052816000526040600020818154811061162c57600080fd5b90600052602060002001600091509150505481565b600d6020526000908152604090205481565b600f818154811061166357600080fd5b60009182526020909120600290910201805460019091015490915082565b80516001600160a01b031633146116aa5760405162461bcd60e51b815260040161089b90614ee4565b6116b38161343c565b50565b600260045414156116fc576040805162461bcd60e51b815260206004820152601f602482015260008051602061527b833981519152604482015290519081900360640190fd5b60026004556020808401516000908152600d90915260409020546117325760405162461bcd60e51b815260040161089b90614ff4565b336000908152600b60205260409020546080840151146117645760405162461bcd60e51b815260040161089b90614fd4565b600f83608001518154811061177557fe5b9060005260206000209060020201600101548360600151146117a95760405162461bcd60e51b815260040161089b90615034565b6117b283611f36565b6117ce5760405162461bcd60e51b815260040161089b90614f04565b6117dc836040015182613488565b506040838101516003548451925160008051602061529b833981519152936118169392600160201b900463ffffffff166001190191614d9b565b60405180910390a160008051602061529b833981519152816001600360049054906101000a900463ffffffff1603846020015160405161185893929190614d9b565b60405180910390a1602080840180516000908152600d90925260409091205490516118839082613488565b506020848101516003546000828152600e909352604092839020925160008051602061529b833981519152936118cb9392600160201b900463ffffffff166001190191614dc8565b60405180910390a160008051602061529b833981519152816001600360049054906101000a900463ffffffff1603600e600085815260200190815260200160002060405161191b93929190614dc8565b60405180910390a16020808501516000908152600c909152604081205461194f576000828152600c60205260409020611964565b6020808601516000908152600c909152604090205b8054806020026020016040519081016040528092919081815260200182805480156119ae57602002820191906000526020600020905b81548152602001906001019080831161199a575b5050505050905060005b8151811015611a7f576001600860008484815181106119d357fe5b6020026020010151815260200190815260200160002060006101000a81548160ff021916908315150217905550600060096000848481518110611a1257fe5b6020026020010151815260200190815260200160002060006101000a81548160ff0219169083151502179055506000805160206153aa833981519152828281518110611a5a57fe5b6020026020010151604051611a6f9190614d6d565b60405180910390a16001016119b8565b50506000908152600d6020908152604080832083905594015181529283209290925550506001600455565b60035463ffffffff1660009081526002602052604090205490565b600b6020526000908152604090205481565b60006001815b8451811015611b0e57848181518110611af257fe5b6020026020010151600014611b0657600091505b600101611add565b5060018115151415611b43577fbc197c819b3e337a6f9652dd10becd7eef83032af3b9d958d3d42f6694146621915050611b49565b60009150505b95945050505050565b336001600160a01b037f00000000000000000000000000000000000000000000000000000000000000001614611b9a5760405162461bcd60e51b815260040161089b90614f64565b6116b381613630565b336001600160a01b037f00000000000000000000000000000000000000000000000000000000000000001614611beb5760405162461bcd60e51b815260040161089b90614f64565b6040516302fe530560e01b81526001600160a01b037f000000000000000000000000000000000000000000000000000000000000000016906302fe530590611c37908490600401614e03565b600060405180830381600087803b158015611c5157600080fd5b505af1158015611c65573d6000803e3d6000fd5b5050505050565b60026020526000908152604090205481565b60065481565b606481565b336001600160a01b037f00000000000000000000000000000000000000000000000000000000000000001614611cd15760405162461bcd60e51b815260040161089b90614f64565b6001600160a01b038216611cf75760405162461bcd60e51b815260040161089b90615024565b7f00000000000000000000000000000000000000000000000000000000000000006001600160a01b0316836001600160a01b03161415611d495760405162461bcd60e51b815260040161089b90614fb4565b6001600160a01b038316611da9574760008215611d665782611d68565b815b6040519091506001600160a01b0385169082156108fc029083906000818181858888f19350505050158015611da1573d6000803e3d6000fd5b505050610871565b6040516370a0823160e01b81526000906001600160a01b038516906370a0823190611dd8903090600401614c7c565b60206040518083038186803b158015611df057600080fd5b505afa158015611e04573d6000803e3d6000fd5b505050506040513d601f19601f82011682018060405250810190611e2891906142ad565b905060008215611e385782611e3a565b815b905060008111611e5c5760405162461bcd60e51b815260040161089b90615054565b60405163a9059cbb60e01b81526001600160a01b0386169063a9059cbb90611e8a9087908590600401614cba565b602060405180830381600087803b158015611ea457600080fd5b505af1158015611eb8573d6000803e3d6000fd5b505050506040513d601f19601f82011682018060405250810190611edc9190613e9c565b505050505050565b336001600160a01b037f00000000000000000000000000000000000000000000000000000000000000001614611f2c5760405162461bcd60e51b815260040161089b90614f64565b611f34612aa7565b565b805160408051608080820183526020808601518352838601519083015260608086015183850152908501519082015290516335f8315960e11b81526000926001600160a01b037f00000000000000000000000000000000000000000000000000000000000000001692636bf062b292611fb3929190600401614e35565b60206040518083038186803b158015611fcb57600080fd5b505afa158015611fdf573d6000803e3d6000fd5b505050506040513d601f19601f8201168201806040525081019061063f9190613e9c565b60009081526008602052604090205460ff1690565b60009081526009602052604090205460ff1690565b600081612049575060008051602061531c833981519152610642565b816001141561207957507f1a332ca2cd2436bdc6796e6e4244ebf6f7e359868b7252e55342f766e4088082610642565b81600214156120a957507f2fb19ac27499bdf9d7d3b387eff42b6d12bffbc6206e81d0ef0b0d6b24520ebd610642565b81600314156120d957507f18d0d6e282d4eacbf18efc619a986db763b75095ed122fac7d4a49418daa42e1610642565b816004141561210957507f054dec40f76a0f5aaeff1a85a4a3721b92b4ad244362d30b0ef8ed7033de11d3610642565b816005141561213957507f1d24c91f8d40f1c2591edec19d392905cf5eb01eada48d71836177ef11aea5b2610642565b816006141561216957507f0fb63621cfc047eba2159faecfa55b120d7c81c0722633ef94e20e27675e378f610642565b816007141561219957507f277b08f214fe8c5504a79614cdec5abd7b6adc9133fe926398684c82fd798b44610642565b81600814156121c957507f2633613437c1fd97f7c798e2ea30d52cfddee56d74f856a541320ae86ddaf2de610642565b81600914156121f857507e768963fa4b993fbfece3619bfaa3ca4afd7e3864f11b09a0849dbf4ad25807610642565b81600a141561222857507f0e63ff9df484c1a21478bd27111763ef203177ec0a7ef3a3cd43ec909f587bb0610642565b81600b141561225857507f0e6a4bfb0dd0ac8bf5517eaac48a95ba783dabe9f64494f9c892d3e8431eaab3610642565b81600c141561228857507f0164a46b3ffff8baca00de7a130a63d105f1578076838502b99488505d5b3d35610642565b81600d14156122b857507f145a6f1521c02b250cc76eb35cd67c9b0b22473577de3778e4c51903836c8957610642565b81600e14156122e857507f29849fc5b55303a660bad33d986fd156d48516ec58a0f0a561a03b704a802254610642565b81600f141561231857507f26639dd486b374e98ac6da34e8651b3fca58c51f1c2f857dd82045f27fc8dbe6610642565b816010141561234857507f2aa39214b887ee877e60afdb191390344c68177c30a0b8646649774174de5e33610642565b816011141561237857507f09b397d253e41a521d042ffe01f8c33ae37d4c7da21af68693aafb63d599d708610642565b81601214156123a857507f02fbfd397ad901cea38553239aefec016fcb6a19899038503f04814cbb79a511610642565b81601314156123d857507f266640a877ec97a91f6c95637f843eeac8718f53f311bac9cba7d958df646f9d610642565b816014141561240857507f29f9a0a07a22ab214d00aaa0190f54509e853f3119009baecb0035347606b0a9610642565b816015141561243857507f0a1fda67bffa0ab3a755f23fdcf922720820b6a96616a5ca34643cd0b935e3d6610642565b816016141561246857507f19507199eb76b5ec5abe538a01471d03efb6c6984739c77ec61ada2ba2afb389610642565b816017141561249857507f26bd93d26b751484942282e27acfb6d193537327a831df6927e19cdfc73c3e64610642565b81601814156124c857507f2eb88a9c6b00a4bc6ea253268090fe1d255f6fe02d2eb745517723aae44d7386610642565b81601914156124f857507f13e50d0bda78be97792df40273cbb16f0dc65c0697d81a82d07d0f6eee80a164610642565b81601a141561252857507f2ea95776929000133246ff8d9fdcba179d0b262b9e910558309bac1c1ec03d7a610642565b81601b141561255857507f1a640d6ef66e356c795396c0957b06a99891afe0c493f4d0bdfc0450764bae60610642565b81601c141561258857507f2b17979f2c2048dd9e4ee5f482cced21435ea8cc54c32f80562e39a5016b0496610642565b81601d14156125b857507f29ba6a30de50542e261abfc7ee0c68911002d3acd4dd4c02ad59aa96805b20bb610642565b81601e14156125e857507f103fcf1c8a98ebe50285f6e669077a579308311fd44bb6895d5da7ba7fd3564e610642565b81601f141561261857507f166bdd01780976e655f5278260c638dcf10fe7c136f37c9152cbcaabef901f4d610642565b816020141561264857507f2712c601a9b8b2abd396a619327095d3f1ea86a6c07d6df416a3973a1a4b3ce5610642565b6040805162461bcd60e51b8152602060048201526013602482015272496e646578206f7574206f6620626f756e647360681b604482015290519081900360640190fd5b612698816020015161155d565b6126b45760405162461bcd60e51b815260040161089b90614f34565b606081015160208082015191516000908152600d9091526040902054146126ed5760405162461bcd60e51b815260040161089b90614f24565b606081015180516020918201516000908152600d909252604090912054146127275760405162461bcd60e51b815260040161089b90615004565b60005b81604001515181101561277c576127578260400151828151811061274a57fe5b6020026020010151612003565b156127745760405162461bcd60e51b815260040161089b90615064565b60010161272a565b5061278681610dbc565b6127a25760405162461bcd60e51b815260040161089b90614fc4565b600080600c600084606001516000600281106127ba57fe5b6020020151815260200190815260200160002080549050116127f45760608201516020908101516000908152600c90915260409020612809565b6060820151516000908152600c602052604090205b80548060200260200160405190810160405280929190818152602001828054801561285357602002820191906000526020600020905b81548152602001906001019080831161283f575b5050505050905060005b81518110156128a0576009600083838151811061287657fe5b6020908102919091018101518252810191909152604001600020805460ff1916905560010161285d565b50606082018051516000908152600d60209081526040808320839055835182015183528083208390559251518252600c90529081206128de916137f5565b60608201516020908101516000908152600c90915260408120612900916137f5565b6060820151516000908152600e6020526040812061291d91613813565b60608201516020908101516000908152600e909152604081206115f791613813565b60008051602061531c83398151915281565b7f000000000000000000000000000000000000000000000000000000000000000081565b60016020526000908152604090205481565b6000826129b557507ff23a6e612e1ff4830e658fe43f4e3cb4a5f8170bd5d9e69fb5d7a7fa9e4fdf97611b49565b506000611b49565b7f000000000000000000000000000000000000000000000000000000000000000081565b600354600160201b900463ffffffff1681565b600054610100900460ff1680612a0d5750612a0d613635565b80612a1b575060005460ff16155b612a565760405162461bcd60e51b815260040180806020018281038252602e81526020018061535c602e913960400191505060405180910390fd5b600054610100900460ff16158015612a81576000805460ff1961ff0019909116610100171660011790555b612a8a82613630565b612a92613646565b80156115f7576000805461ff00191690555050565b601054611f345760405163731133e960e01b81526001600160a01b037f0000000000000000000000000000000000000000000000000000000000000000169063731133e990612aff9030906000908190600401614cd5565b600060405180830381600087803b158015612b1957600080fd5b505af1158015612b2d573d6000803e3d6000fd5b505060408051808201825260008082526020808301828152600f805460018082018355918552945160008051602061541a83398151915260029096029586015590516000805160206152bb83398151915290940193909355835160c08101855230608082019081528551808401875284815260a0830152815280820183905284518086018652600881526714995cd95c9d995960c21b8184015281860152845180860190955260048552636e6f6e6560e01b858301526060810194909452601080549384018155909152825180516000805160206153ca833981519152600590940293840180546001600160a01b0319166001600160a01b0390921691909117815581830151805195975090955090938593612c5d9360008051602061533c83398151915290910192019061372f565b505050602082810151600283015560408301518051612c82926003850192019061372f565b5060608201518051612c9e91600484019160209091019061372f565b50506000805250600a6020527f13da86008ba1c6922daee3e07db95305ef49ebced9f5467a0b8613fcc6b343e380546001600160a01b03191630179055565b612cea826020015161155d565b612d065760405162461bcd60e51b815260040161089b90614f34565b60005b826040015151811015612d8b57612d298360400151828151811061274a57fe5b15612d465760405162461bcd60e51b815260040161089b90615014565b612d6683604001518281518110612d5957fe5b6020026020010151612018565b15612d835760405162461bcd60e51b815260040161089b90614fa4565b600101612d09565b5060008051602061538a83398151915281604051602001612dac91906150a5565b6040516020818303038152906040528051906020012060001c81612dcc57fe5b068260c0015160001c14612df25760405162461bcd60e51b815260040161089b90614f44565b80604001518260a0015114612e195760405162461bcd60e51b815260040161089b90614f94565b60a08201516000908152600a60205260409020546001600160a01b0316612e525760405162461bcd60e51b815260040161089b90614fe4565b612e6481602001518260800151610876565b826080015114612e865760405162461bcd60e51b815260040161089b90614ef4565b600081602001511315612eb557604081015115612eb55760405162461bcd60e51b815260040161089b90614f74565b612ebe82610dbc565b6115f75760405162461bcd60e51b815260040161089b90614fc4565b60026004541415612f20576040805162461bcd60e51b815260206004820152601f602482015260008051602061527b833981519152604482015290519081900360640190fd5b6002600455612f2f8282612cdd565b60005b826040015151811015612f865760016008600085604001518481518110612f5557fe5b6020908102919091018101518252810191909152604001600020805460ff1916911515919091179055600101612f32565b506000816020015113156130615760208101516040516323b872dd60e01b81526001600160a01b037f000000000000000000000000000000000000000000000000000000000000000016916323b872dd91612fe8913391309190600401614c8a565b602060405180830381600087803b15801561300257600080fd5b505af1158015613016573d6000803e3d6000fd5b505050506040513d601f19601f8201168201806040525081019061303a9190613e9c565b50600754816020015111156130615760405162461bcd60e51b815260040161089b90615084565b60008160200151121561327f5780516001600160a01b03166130955760405162461bcd60e51b815260040161089b90614f54565b60408101516131ed578051602082015160405163a9059cbb60e01b81526001600160a01b037f0000000000000000000000000000000000000000000000000000000000000000169263a9059cbb926130f69260009190910390600401614d0e565b602060405180830381600087803b15801561311057600080fd5b505af1158015613124573d6000803e3d6000fd5b505050506040513d601f19601f820116820180604052508101906131489190613e9c565b506040516370a0823160e01b81526001600160a01b037f000000000000000000000000000000000000000000000000000000000000000016906370a0823190613195903090600401614c7c565b60206040518083038186803b1580156131ad57600080fd5b505afa1580156131c1573d6000803e3d6000fd5b505050506040513d601f19601f820116820180604052508101906131e591906142ad565b60055561327f565b7f00000000000000000000000000000000000000000000000000000000000000006001600160a01b031663731133e98260000151836040015184602001516000036040518463ffffffff1660e01b815260040161324c93929190614d37565b600060405180830381600087803b15801561326657600080fd5b505af115801561327a573d6000803e3d6000fd5b505050505b608081015115613331576060810151608082015160405163a9059cbb60e01b81526001600160a01b037f0000000000000000000000000000000000000000000000000000000000000000169263a9059cbb926132dd92600401614d0e565b602060405180830381600087803b1580156132f757600080fd5b505af115801561330b573d6000803e3d6000fd5b505050506040513d601f19601f8201168201806040525081019061332f9190613e9c565b505b606082015180516020909101516133489190613488565b5060608201515160035460a083015160405160008051602061529b83398151915293613388939092600160201b90910463ffffffff166001190191614d9b565b60405180910390a1606082015160008051602061529b83398151915290600160200201516001600360049054906101000a900463ffffffff16038360c001516040516133d693929190614d9b565b60405180910390a160005b826040015151811015613432576000805160206153aa8339815191528360400151828151811061340d57fe5b60200260200101516040516134229190614d6d565b60405180910390a16001016133e1565b5050600160045550565b80600001516001600160a01b03167f2c1ca5c14df2aba59d26842c5ff53f6817052ef34f6f7537f8b4c9e3805a5e50826020015160405161347d9190614e03565b60405180910390a250565b60035460009063ffffffff600160201b9091048116907f0000000000000000000000000000000000000000000000000000000000000000811660020a168114156135035760405162461bcd60e51b81526004018080602001828103825260308152602001806153ea6030913960400191505060405180910390fd5b600263ffffffff8216046000613519868661097a565b905060008060015b7f000000000000000000000000000000000000000000000000000000000000000063ffffffff168163ffffffff1610156135ca576001851661358e5783925061356f8163ffffffff1661202d565b63ffffffff8216600090815260016020526040902085905591506135aa565b63ffffffff811660009081526001602052604090205492508391505b6135b4838361097a565b9350600263ffffffff8616049450600101613521565b50506003805463ffffffff1981166064600163ffffffff9384160183160682169081178355600090815260026020819052604090912094909455815463ffffffff60201b1916600160201b94870190911693909302929092179091555090949350505050565b600755565b60006136403061370b565b15905090565b60005b7f000000000000000000000000000000000000000000000000000000000000000063ffffffff168163ffffffff1610156136ae5761368c8163ffffffff1661202d565b63ffffffff821660009081526001602081905260409091209190915501613649565b506136de7f000000000000000000000000000000000000000000000000000000000000000063ffffffff1661202d565b6000805260026020527fac33ff75c19e70fe83507db0d683fd3465c996598dc972688b7ace676c89077b55565b3b151590565b60405180604001604052806002906020820280368337509192915050565b828054600181600116156101000203166002900490600052602060002090601f01602090048101928261376557600085556137ab565b82601f1061377e57805160ff19168380011785556137ab565b828001600101855582156137ab579182015b828111156137ab578251825591602001919060010190613790565b506137b7929150613853565b5090565b8280548282559060005260206000209081019282156137ab57916020028201828111156137ab578251825591602001919060010190613790565b50805460008255906000526020600020908101906116b39190613853565b50805460018160011615610100020316600290046000825580601f1061383957506116b3565b601f0160209004906000526020600020908101906116b391905b5b808211156137b75760008155600101613854565b600061387b613876846150fb565b6150d2565b9050808285602086028501111561389157600080fd5b60005b858110156138bb576138a68783613a1f565b83526020928301929190910190600101613894565b5050509392505050565b60006138d36138768461511b565b905080838252602082019050828560208602850111156138f257600080fd5b60005b858110156138bb576139078783613a1f565b835260209283019291909101906001016138f5565b600061392a6138768461511b565b9050808382526020820190508285602086028501111561394957600080fd5b60005b858110156138bb5761395e8783613a1f565b8352602092830192919091019060010161394c565b60006139816138768461513e565b90508281526020810184848401111561399957600080fd5b6139a48482856151fa565b509392505050565b803561090581615242565b600082601f8301126139c7578081fd5b6002610901848285613868565b600082601f8301126139e4578081fd5b81356109018482602086016138c5565b600082601f830112613a04578081fd5b813561090184826020860161391c565b805161090581615256565b80356109058161525f565b803561090581615268565b600082601f830112613a45578081fd5b8135610901848260208601613973565b803561090581615271565b600060408284031215613a71578081fd5b613a7b60406150d2565b90506000613a8984846139ac565b8282015260208301356001600160401b03811115613aa5578182fd5b613ab185828601613a35565b6020840152505092915050565b600060408284031215613acf578081fd5b613ad960406150d2565b905081356001600160401b03811115613af157600080fd5b613afd84828501613a35565b82525060208201356001600160401b03811115613b1957600080fd5b613b2584828501613a35565b60208301525092915050565b600060e08284031215613b42578081fd5b613b4c60e06150d2565b90506000613b5a84846139ac565b818301526020613b6c85828601613a1f565b908301526040613b7e85858301613a1f565b908301526060613b90858583016139ac565b908301526080613ba285858301613a1f565b9083015260a08301356001600160401b03811115613bbe578182fd5b613bca85828601613a35565b60a08401525060c08301356001600160401b03811115613be8578182fd5b613bf485828601613a35565b60c0840152505092915050565b600060a08284031215613c12578081fd5b613c1c60a06150d2565b905081356001600160401b03811115613c3457600080fd5b613c4084828501613a35565b8252506020613c5184848301613a1f565b908201526040613c6384848301613a1f565b908201526060613c7584848301613a1f565b908201526080613c8784848301613a1f565b9082015292915050565b60006101008284031215613ca3578081fd5b613cad60e06150d2565b905081356001600160401b03811115613cc557600080fd5b613cd184828501613a35565b8252506020613ce284848301613a1f565b9082015260408201356001600160401b03811115613cff57600080fd5b613d0b848285016139d4565b6040830152506060613d1f848285016139b7565b9082015260a0613d3184848301613a1f565b608083015260c0613d4485828601613a1f565b8284015260e09150613d5885838601613a1f565b908301525092915050565b80516109058161525f565b600060208284031215613d7f578081fd5b613d8b838284016139ac565b9392505050565b600080600080600060a08688031215613da9578081fd5b613db5878288016139ac565b94506020613dc5888289016139ac565b94505060408601356001600160401b03811115613de0578182fd5b613dec888289016139f4565b93505060608601356001600160401b03811115613e07578182fd5b613e13888289016139f4565b92505060808601356001600160401b03811115613e2e578182fd5b613e3a88828901613a35565b9150509295509295909350565b600080600080600060a08688031215613e5e578283fd5b613e6a878488016139ac565b94506020613e7a888289016139ac565b9450506040613e8b88828901613a1f565b9350506060613e1388828901613a1f565b600060208284031215613ead578081fd5b613d8b83828401613a14565b600060208284031215613eca578081fd5b613d8b83828401613a1f565b60008060408385031215613ee8578182fd5b613ef484838501613a1f565b91506020613f0485828601613a1f565b9150509250929050565b600060208284031215613f1f578081fd5b613d8b83828401613a2a565b600080600060608486031215613f3f578081fd5b613f4b85828601613a55565b92506020613f5b868287016139ac565b9250506040613f6c86828701613a1f565b9150509250925092565b600060208284031215613f87578081fd5b818101356001600160401b03811115613f9e578182fd5b61090184828501613a35565b600060208284031215613fbb578081fd5b818101356001600160401b03811115613fd2578182fd5b61090184828501613a60565b60008060008060808587031215613ff3578182fd5b848201356001600160401b0381111561400a578283fd5b61401687828801613a60565b94505060208501356001600160401b03811115614031578283fd5b61403d87828801613a35565b93505060408501356001600160401b03811115614058578283fd5b61406487828801613a35565b925050606061407587828801613a1f565b91505092959194509250565b600080600060608486031215614095578081fd5b838101356001600160401b038111156140ac578182fd5b6140b886828701613a60565b93505060208401356001600160401b038111156140d3578182fd5b6140df86828701613c91565b92505060408401356001600160401b038111156140fa578182fd5b613f6c86828701613b31565b600060208284031215614117578081fd5b818101356001600160401b0381111561412e578182fd5b61090184828501613c01565b60008060006060848603121561414e578081fd5b838101356001600160401b03811115614165578182fd5b61417186828701613c01565b93505060208401356001600160401b0381111561418c578182fd5b613f5b86828701613abe565b6000602082840312156141a9578081fd5b818101356001600160401b038111156141c0578182fd5b61090184828501613c91565b600080604083850312156141de578182fd5b828201356001600160401b038111156141f5578283fd5b61420185828601613c91565b92505060208301356001600160401b0381111561421c578182fd5b613f0485828601613b31565b60008060006060848603121561423c578081fd5b838101356001600160401b03811115614253578182fd5b61425f86828701613c91565b93505060208401356001600160401b0381111561427a578182fd5b61428686828701613b31565b92505060408401356001600160401b038111156142a1578182fd5b613f6c86828701613abe565b6000602082840312156142be578081fd5b613d8b83828401613d63565b60006142d683836143e0565b505060200190565b6142e7816151d9565b82525050565b6142e78161519c565b6142ff81615177565b6143098184610642565b925061431482615168565b60005b82811015611c6557815161432b86826142ca565b9550506143378261518d565b9150600101614317565b61434a8161517d565b6143548184610642565b925061435f82615168565b60005b82811015611c6557815161437686826142ca565b9550506143828261518d565b9150600101614362565b61439581615183565b61439f8184610642565b92506143aa82615168565b60005b82811015611c655781516143c186826142ca565b9550506143cd8261518d565b91506001016143ad565b6142e7816151a7565b6142e781615168565b6142e7816151ac565b60006143fd82615189565b6144078185615193565b9350614417818560208601615206565b61442081615238565b9093019392505050565b600081546001811660008114614447576001811461446d576144ac565b607f60028304166144588187615193565b60ff19841681529550506020850192506144ac565b6002820461447b8187615193565b95506144868561516b565b60005b828110156144a557815488820152600190910190602001614489565b8701945050505b505092915050565b6142e7816151b9565b6142e7816151e4565b60006144d3602b83615193565b7f496e766573746d656e74206f6e6c7920706f737369626c652066726f6d207368918101919091526a1a595b191959081c1bdbdb60aa1b6020820152604001919050565b6000614524601c83615193565b7b1bdb9b1e481bdddb995c8818d85b881899481c9959da5cdd195c995960221b91810191909152602001919050565b6000614560601583615193565b74125b9d985b1a59081c1d589b1a58c8185b5bdd5b9d605a1b91810191909152602001919050565b6000614595602483615193565b7f496e76616c69642070726f6a65637420746f6b656e207472616e73666572207091810191909152633937b7b360e11b6020820152604001919050565b60006145df601283615193565b71125b9d985b1a5908195e1d08185b5bdd5b9d60721b91810191909152602001919050565b6000614611602a83615193565b7f50656e64696e6720636f6d6d69746d656e742031206d757374207374696c6c20918101919091526962652070656e64696e6760b01b6020820152604001919050565b6000614661601383615193565b72125b9d985b1a59081b595c9adb19481c9bdbdd606a1b91810191909152602001919050565b6000614694601c83615193565b7b092dcc6dee4e4cac6e840caf0e8cae4dcc2d840c8c2e8c240d0c2e6d60231b91810191909152602001919050565b60006146d0601e83615193565b7f43616e277420776974686472617720746f207a65726f2061646472657373000091810191909152602001919050565b600061470d600f83615193565b6e6f6e6c7920676f7665726e616e636560881b91810191909152602001919050565b600061473c602183615193565b7f4465706f73697473206f6e6c7920696e206d61696e20747261646520746f6b6591810191909152603760f91b6020820152604001919050565b6000614783600b83615193565b6a496e76616c69642066656560a81b91810191909152602001919050565b60006147ae601d83615193565b7f4e6f6e2d6d61746368696e67207075626c696320746f6b656e2049447300000091810191909152602001919050565b60006147eb600d83615193565b6c496e7075742070656e64696e6760981b91810191909152602001919050565b6000614818601983615193565b7818d85b881b9bdd081c995cd8dd59481c1bdbdb08185cdcd95d603a1b91810191909152602001919050565b6000614851601983615193565b7824b73b30b634b2103a3930b739b0b1ba34b7b710383937b7b360391b91810191909152602001919050565b600061488a602283615193565b7f546f6b656e4964206d7573742062652066726f6d2070726f6a656374206f776e918101919091526132b960f11b6020820152604001919050565b60006148d2601783615193565b76125b9d985b1a59081c1d589b1a58c81d1bdad95b881251604a1b91810191909152602001919050565b6000614909602883615193565b7f50656e64696e6720636f6d6d69746d656e74206d757374207374696c6c20626591810191909152672070656e64696e6760c01b6020820152604001919050565b6000614957602a83615193565b7f50656e64696e6720636f6d6d69746d656e742032206d757374207374696c6c20918101919091526962652070656e64696e6760b01b6020820152604001919050565b60006149a68183615193565b01919050565b60006149b9601683615193565b75125b9c1d5d081a5cc8185b1c9958591e481cdc195b9d60521b91810191909152602001919050565b60006149ef602283615193565b7f544f524e3a2063616e206e6f742073656e6420746f207a65726f2061646472659181019190915261737360f01b6020820152604001919050565b6000614a37602983615193565b7f56616c7565206f6620746f6b656e206d7573742062652073616d6520617320619181019190915268191d995c9d1a5e995960ba1b6020820152604001919050565b6000614a86601c83615193565b7b6f6e6c79206f6e652070726f6a65637420706572206164647265737360201b91810191909152602001919050565b6000614ac2601e83615193565b7f544f524e3a20747279696e6720746f2073656e6420302062616c616e6365000091810191909152602001919050565b6000614aff601383615193565b72125b9c1d5d08185b1c9958591e481cdc195b9d606a1b91810191909152602001919050565b6000614b32601783615193565b761d5b9cdd5c1c1bdc9d1959081a5b9c1d5d0818dbdd5b9d604a1b91810191909152602001919050565b6000614b69602a83615193565b7f616d6f756e74206973206c6172676572207468616e206d6178696d756d44657091810191909152691bdcda5d105b5bdd5b9d60b21b6020820152604001919050565b80516000906040840190614bc085826142ed565b5060208301518482036020860152611b4982826143f2565b805160009060e0840190614bec85826142ed565b506020830151614bff60208601826143e0565b506040830151614c1260408601826143e0565b506060830151614c2560608601826142ed565b506080830151614c3860808601826143e0565b5060a083015184820360a0860152614c5082826143f2565b91505060c083015184820360c0860152611b4982826143f2565b6142e7816151ef565b6142e7816151d0565b6020810161090582846142ed565b60608101614c9882866142de565b614ca560208301856142ed565b614cb260408301846143e0565b949350505050565b60408101614cc882856142de565b613d8b60208301846143e0565b60808101614ce382866142ed565b614cf060208301856144bd565b614cfd60408301846144bd565b8181036060830152611b498161499a565b60408101614cc882856142ed565b60808101614d2a82866142ed565b614cf060208301856143e0565b60808101614d4582866142ed565b614d5260208301856143e0565b614cfd60408301846143e0565b6020810161090582846143d7565b6020810161090582846143e0565b60408101614d8982856143e0565b8181036020830152614cb281846143f2565b60608101614da982866143e0565b614db66020830185614c6a565b8181036040830152611b4981846143f2565b60608101614dd682866143e0565b614de36020830185614c6a565b8181036040830152611b49818461442a565b6020810161090582846143e9565b60208082528101613d8b81846143f2565b6102e08082528101614e2681856143f2565b9050613d8b60208301846142f6565b60a08082528101614e4681856143f2565b9050613d8b6020830184614341565b6101208082528101614e6781856143f2565b9050613d8b602083018461438c565b60808082528101614e8781876143f2565b9050614e9660208301866143e0565b8181036040830152614ea881856143f2565b90508181036060830152614ebc81846143f2565b9695505050505050565b6020810161090582846144b4565b6020808252810161063f816144c6565b6020808252810161063f81614517565b6020808252810161063f81614553565b6020808252810161063f81614588565b6020808252810161063f816145d2565b6020808252810161063f81614604565b6020808252810161063f81614654565b6020808252810161063f81614687565b6020808252810161063f816146c3565b6020808252810161063f81614700565b6020808252810161063f8161472f565b6020808252810161063f81614776565b6020808252810161063f816147a1565b6020808252810161063f816147de565b6020808252810161063f8161480b565b6020808252810161063f81614844565b6020808252810161063f8161487d565b6020808252810161063f816148c5565b6020808252810161063f816148fc565b6020808252810161063f8161494a565b6020808252810161063f816149ac565b6020808252810161063f816149e2565b6020808252810161063f81614a2a565b6020808252810161063f81614a79565b6020808252810161063f81614ab5565b6020808252810161063f81614af2565b6020808252810161063f81614b25565b6020808252810161063f81614b5c565b60808082528101614e878187614bac565b60208082528101613d8b8184614bd8565b60408101614cc882856143e0565b602081016109058284614c73565b6040518181016001600160401b03811182821017156150f3576150f3615236565b604052919050565b60006001600160401b0382111561511457615114615236565b5060200290565b60006001600160401b0382111561513457615134615236565b5060209081020190565b60006001600160401b0382111561515757615157615236565b506020601f91909101601f19160190565b90565b60009081526020902090565b50601690565b50600490565b50600890565b5190565b60200190565b90815260200190565b600061063f826151c4565b151590565b6001600160e01b03191690565b600061063f8261519c565b6001600160a01b031690565b63ffffffff1690565b600061063f826151b9565b600061063f82615168565b600061063f826151d0565b82818337506000910152565b60005b83811015615221578181015183820152602001615209565b83811115615230576000848401525b50505050565bfe5b601f01601f191690565b61524b8161519c565b81146116b357600080fd5b61524b816151a7565b61524b81615168565b61524b816151ac565b61524b816151b956fe5265656e7472616e637947756172643a207265656e7472616e742063616c6c00f3843eddcfcac65d12d9f26261dab50671fdbf5dc44441816c8bbdace2411afd8d1108e10bcb7c27dddfc02ed9d693a074039d026cf4ea4240b40f7d581ac8039696f970955787e07d2d6986525b90f8e6c571474b35e1002db8443e65c9ee9e5f72696768742073686f756c6420626520696e7369646520746865206669656c642fe54c60d3acabf3343a35b6eba15db4821b340f76e741e2249685ed4899af6c1b6847dc741a1b0cd08d278845f9d819d87b734759afb55fe2de5cb82a9ae673496e697469616c697a61626c653a20636f6e747261637420697320616c726561647920696e697469616c697a656430644e72e131a029b85045b68181585d2833e84879b9709143e1f593f00000015e58f77bbf94b46d8d896e29753e4458c6e59b48581e20ed58c9558e96f297ce1b6847dc741a1b0cd08d278845f9d819d87b734759afb55fe2de5cb82a9ae6724d65726b6c6520747265652069732066756c6c2e204e6f206d6f7265206c65617665732063616e2062652061646465648d1108e10bcb7c27dddfc02ed9d693a074039d026cf4ea4240b40f7d581ac802a264697066735822122056c8d36a40d08d7023fa2515de76fdffc37a595a383e60259a5e7a733b708c3f64736f6c634300070600335f6c6576656c732073686f756c642062652067726561746572207468616e207a65726f",
  "linkReferences": {},
  "deployedLinkReferences": {}
}