{
  "_format": "hh-sol-artifact-1",
  "contractName": "ZkInvest",
  "sourceName": "contracts/ZkInvest.sol",
  "abi": [
    {
      "inputs": [
        {
          "internalType": "contract IVerifier[3]",
          "name": "_verifiers",
          "type": "address[3]"
        },
        {
          "internalType": "uint32",
          "name": "_levels",
          "type": "uint32"
        },
        {
          "internalType": "address",
          "name": "_hasher",
          "type": "address"
        },
        {
          "internalType": "contract IERC20",
          "name": "_token",
          "type": "address"
        },
        {
          "internalType": "contract AbstractERC1155",
          "name": "_projectTokensContract",
          "type": "address"
        },
        {
          "internalType": "address",
          "name": "_multisig",
          "type": "address"
        }
      ],
      "stateMutability": "nonpayable",
      "type": "constructor"
    },
    {
      "anonymous": false,
      "inputs": [
        {
          "indexed": false,
          "internalType": "bytes32",
          "name": "commitment",
          "type": "bytes32"
        },
        {
          "indexed": false,
          "internalType": "uint256",
          "name": "index",
          "type": "uint256"
        },
        {
          "indexed": false,
          "internalType": "bytes",
          "name": "encryptedOutput",
          "type": "bytes"
        }
      ],
      "name": "NewCommitment",
      "type": "event"
    },
    {
      "anonymous": false,
      "inputs": [
        {
          "indexed": false,
          "internalType": "bytes32",
          "name": "nullifier",
          "type": "bytes32"
        }
      ],
      "name": "NewNullifier",
      "type": "event"
    },
    {
      "anonymous": false,
      "inputs": [
        {
          "indexed": false,
          "internalType": "bytes32",
          "name": "commitment",
          "type": "bytes32"
        },
        {
          "indexed": false,
          "internalType": "bytes",
          "name": "encryptedOutput",
          "type": "bytes"
        }
      ],
      "name": "NewPendingCommitment",
      "type": "event"
    },
    {
      "anonymous": false,
      "inputs": [
        {
          "indexed": false,
          "internalType": "bytes",
          "name": "creator",
          "type": "bytes"
        },
        {
          "indexed": false,
          "internalType": "uint256",
          "name": "tokenId",
          "type": "uint256"
        },
        {
          "indexed": false,
          "internalType": "string",
          "name": "title",
          "type": "string"
        },
        {
          "indexed": false,
          "internalType": "string",
          "name": "description",
          "type": "string"
        }
      ],
      "name": "NewProjectCreated",
      "type": "event"
    },
    {
      "anonymous": false,
      "inputs": [
        {
          "indexed": true,
          "internalType": "address",
          "name": "owner",
          "type": "address"
        },
        {
          "indexed": false,
          "internalType": "bytes",
          "name": "key",
          "type": "bytes"
        }
      ],
      "name": "PublicKey",
      "type": "event"
    },
    {
      "inputs": [],
      "name": "FIELD_SIZE",
      "outputs": [
        {
          "internalType": "uint256",
          "name": "",
          "type": "uint256"
        }
      ],
      "stateMutability": "view",
      "type": "function"
    },
    {
      "inputs": [],
      "name": "MAX_EXT_AMOUNT",
      "outputs": [
        {
          "internalType": "int256",
          "name": "",
          "type": "int256"
        }
      ],
      "stateMutability": "view",
      "type": "function"
    },
    {
      "inputs": [],
      "name": "MAX_FEE",
      "outputs": [
        {
          "internalType": "uint256",
          "name": "",
          "type": "uint256"
        }
      ],
      "stateMutability": "view",
      "type": "function"
    },
    {
      "inputs": [],
      "name": "MIN_EXT_AMOUNT_LIMIT",
      "outputs": [
        {
          "internalType": "uint256",
          "name": "",
          "type": "uint256"
        }
      ],
      "stateMutability": "view",
      "type": "function"
    },
    {
      "inputs": [],
      "name": "ROOT_HISTORY_SIZE",
      "outputs": [
        {
          "internalType": "uint32",
          "name": "",
          "type": "uint32"
        }
      ],
      "stateMutability": "view",
      "type": "function"
    },
    {
      "inputs": [],
      "name": "ZERO_VALUE",
      "outputs": [
        {
          "internalType": "uint256",
          "name": "",
          "type": "uint256"
        }
      ],
      "stateMutability": "view",
      "type": "function"
    },
    {
      "inputs": [],
      "name": "__gap",
      "outputs": [
        {
          "internalType": "uint256",
          "name": "",
          "type": "uint256"
        }
      ],
      "stateMutability": "view",
      "type": "function"
    },
    {
      "inputs": [
        {
          "components": [
            {
              "internalType": "bytes",
              "name": "proof",
              "type": "bytes"
            },
            {
              "internalType": "bytes32",
              "name": "commitmentReceived",
              "type": "bytes32"
            },
            {
              "internalType": "bytes32",
              "name": "commitmentSent",
              "type": "bytes32"
            },
            {
              "internalType": "uint256",
              "name": "tokenValue",
              "type": "uint256"
            },
            {
              "internalType": "uint256",
              "name": "sentTokenId",
              "type": "uint256"
            }
          ],
          "internalType": "struct ZkInvest.ProjectTokenTransferProof",
          "name": "_args",
          "type": "tuple"
        },
        {
          "components": [
            {
              "internalType": "bytes",
              "name": "encryptedOutput1",
              "type": "bytes"
            },
            {
              "internalType": "bytes",
              "name": "encryptedOutput2",
              "type": "bytes"
            }
          ],
          "internalType": "struct ZkInvest.EncryptedOutputs",
          "name": "_encryptedOutputs",
          "type": "tuple"
        },
        {
          "internalType": "bytes32",
          "name": "_emptyCommitment",
          "type": "bytes32"
        }
      ],
      "name": "acceptInvestment",
      "outputs": [],
      "stateMutability": "nonpayable",
      "type": "function"
    },
    {
      "inputs": [
        {
          "internalType": "int256",
          "name": "_extAmount",
          "type": "int256"
        },
        {
          "internalType": "uint256",
          "name": "_fee",
          "type": "uint256"
        }
      ],
      "name": "calculatePublicAmount",
      "outputs": [
        {
          "internalType": "uint256",
          "name": "",
          "type": "uint256"
        }
      ],
      "stateMutability": "pure",
      "type": "function"
    },
    {
      "inputs": [
        {
          "components": [
            {
              "internalType": "bytes",
              "name": "proof",
              "type": "bytes"
            },
            {
              "internalType": "bytes32",
              "name": "root",
              "type": "bytes32"
            },
            {
              "internalType": "bytes32[]",
              "name": "inputNullifiers",
              "type": "bytes32[]"
            },
            {
              "internalType": "bytes32[2]",
              "name": "outputCommitments",
              "type": "bytes32[2]"
            },
            {
              "internalType": "uint256",
              "name": "publicAmount",
              "type": "uint256"
            },
            {
              "internalType": "uint256",
              "name": "publicTokenId",
              "type": "uint256"
            },
            {
              "internalType": "bytes32",
              "name": "extDataHash",
              "type": "bytes32"
            }
          ],
          "internalType": "struct TornadoPool.Proof",
          "name": "_args",
          "type": "tuple"
        }
      ],
      "name": "cancelInvestment",
      "outputs": [],
      "stateMutability": "nonpayable",
      "type": "function"
    },
    {
      "inputs": [
        {
          "internalType": "uint256",
          "name": "_maximumDepositAmount",
          "type": "uint256"
        }
      ],
      "name": "configureLimits",
      "outputs": [],
      "stateMutability": "nonpayable",
      "type": "function"
    },
    {
      "inputs": [
        {
          "components": [
            {
              "internalType": "address",
              "name": "owner",
              "type": "address"
            },
            {
              "internalType": "bytes",
              "name": "publicKey",
              "type": "bytes"
            }
          ],
          "internalType": "struct TornadoPool.Account",
          "name": "_account",
          "type": "tuple"
        },
        {
          "internalType": "string",
          "name": "_title",
          "type": "string"
        },
        {
          "internalType": "string",
          "name": "_description",
          "type": "string"
        },
        {
          "internalType": "uint256",
          "name": "_tokenValue",
          "type": "uint256"
        }
      ],
      "name": "createProject",
      "outputs": [],
      "stateMutability": "nonpayable",
      "type": "function"
    },
    {
      "inputs": [],
      "name": "currentRootIndex",
      "outputs": [
        {
          "internalType": "uint32",
          "name": "",
          "type": "uint32"
        }
      ],
      "stateMutability": "view",
      "type": "function"
    },
    {
      "inputs": [
        {
          "internalType": "uint256",
          "name": "",
          "type": "uint256"
        }
      ],
      "name": "filledSubtrees",
      "outputs": [
        {
          "internalType": "bytes32",
          "name": "",
          "type": "bytes32"
        }
      ],
      "stateMutability": "view",
      "type": "function"
    },
    {
      "inputs": [],
      "name": "getLastRoot",
      "outputs": [
        {
          "internalType": "bytes32",
          "name": "",
          "type": "bytes32"
        }
      ],
      "stateMutability": "view",
      "type": "function"
    },
    {
      "inputs": [
        {
          "internalType": "bytes32",
          "name": "_left",
          "type": "bytes32"
        },
        {
          "internalType": "bytes32",
          "name": "_right",
          "type": "bytes32"
        }
      ],
      "name": "hashLeftRight",
      "outputs": [
        {
          "internalType": "bytes32",
          "name": "",
          "type": "bytes32"
        }
      ],
      "stateMutability": "view",
      "type": "function"
    },
    {
      "inputs": [],
      "name": "hasher",
      "outputs": [
        {
          "internalType": "contract IHasher",
          "name": "",
          "type": "address"
        }
      ],
      "stateMutability": "view",
      "type": "function"
    },
    {
      "inputs": [
        {
          "internalType": "uint256",
          "name": "_maximumDepositAmount",
          "type": "uint256"
        }
      ],
      "name": "initialize",
      "outputs": [],
      "stateMutability": "nonpayable",
      "type": "function"
    },
    {
      "inputs": [
        {
          "internalType": "bytes32",
          "name": "_root",
          "type": "bytes32"
        }
      ],
      "name": "isKnownRoot",
      "outputs": [
        {
          "internalType": "bool",
          "name": "",
          "type": "bool"
        }
      ],
      "stateMutability": "view",
      "type": "function"
    },
    {
      "inputs": [
        {
          "internalType": "bytes32",
          "name": "_nullifierHash",
          "type": "bytes32"
        }
      ],
      "name": "isPending",
      "outputs": [
        {
          "internalType": "bool",
          "name": "",
          "type": "bool"
        }
      ],
      "stateMutability": "view",
      "type": "function"
    },
    {
      "inputs": [
        {
          "internalType": "bytes32",
          "name": "_nullifierHash",
          "type": "bytes32"
        }
      ],
      "name": "isSpent",
      "outputs": [
        {
          "internalType": "bool",
          "name": "",
          "type": "bool"
        }
      ],
      "stateMutability": "view",
      "type": "function"
    },
    {
      "inputs": [],
      "name": "lastBalance",
      "outputs": [
        {
          "internalType": "uint256",
          "name": "",
          "type": "uint256"
        }
      ],
      "stateMutability": "view",
      "type": "function"
    },
    {
      "inputs": [],
      "name": "levels",
      "outputs": [
        {
          "internalType": "uint32",
          "name": "",
          "type": "uint32"
        }
      ],
      "stateMutability": "view",
      "type": "function"
    },
    {
      "inputs": [],
      "name": "maximumDepositAmount",
      "outputs": [
        {
          "internalType": "uint256",
          "name": "",
          "type": "uint256"
        }
      ],
      "stateMutability": "view",
      "type": "function"
    },
    {
      "inputs": [],
      "name": "multisig",
      "outputs": [
        {
          "internalType": "address",
          "name": "",
          "type": "address"
        }
      ],
      "stateMutability": "view",
      "type": "function"
    },
    {
      "inputs": [],
      "name": "nextIndex",
      "outputs": [
        {
          "internalType": "uint32",
          "name": "",
          "type": "uint32"
        }
      ],
      "stateMutability": "view",
      "type": "function"
    },
    {
      "inputs": [
        {
          "internalType": "bytes32",
          "name": "",
          "type": "bytes32"
        }
      ],
      "name": "nullifierHashes",
      "outputs": [
        {
          "internalType": "bool",
          "name": "",
          "type": "bool"
        }
      ],
      "stateMutability": "view",
      "type": "function"
    },
    {
      "inputs": [
        {
          "internalType": "address",
          "name": "",
          "type": "address"
        },
        {
          "internalType": "address",
          "name": "",
          "type": "address"
        },
        {
          "internalType": "uint256[]",
          "name": "",
          "type": "uint256[]"
        },
        {
          "internalType": "uint256[]",
          "name": "values",
          "type": "uint256[]"
        },
        {
          "internalType": "bytes",
          "name": "",
          "type": "bytes"
        }
      ],
      "name": "onERC1155BatchReceived",
      "outputs": [
        {
          "internalType": "bytes4",
          "name": "",
          "type": "bytes4"
        }
      ],
      "stateMutability": "pure",
      "type": "function"
    },
    {
      "inputs": [
        {
          "internalType": "address",
          "name": "",
          "type": "address"
        },
        {
          "internalType": "address",
          "name": "",
          "type": "address"
        },
        {
          "internalType": "uint256",
          "name": "",
          "type": "uint256"
        },
        {
          "internalType": "uint256",
          "name": "value",
          "type": "uint256"
        },
        {
          "internalType": "bytes",
          "name": "",
          "type": "bytes"
        }
      ],
      "name": "onERC1155Received",
      "outputs": [
        {
          "internalType": "bytes4",
          "name": "",
          "type": "bytes4"
        }
      ],
      "stateMutability": "pure",
      "type": "function"
    },
    {
      "inputs": [
        {
          "internalType": "bytes32",
          "name": "",
          "type": "bytes32"
        }
      ],
      "name": "pendingCommitmentToCommitment",
      "outputs": [
        {
          "internalType": "bytes32",
          "name": "",
          "type": "bytes32"
        }
      ],
      "stateMutability": "view",
      "type": "function"
    },
    {
      "inputs": [
        {
          "internalType": "bytes32",
          "name": "",
          "type": "bytes32"
        }
      ],
      "name": "pendingCommitmentToEncryptedOutput",
      "outputs": [
        {
          "internalType": "bytes",
          "name": "",
          "type": "bytes"
        }
      ],
      "stateMutability": "view",
      "type": "function"
    },
    {
      "inputs": [
        {
          "internalType": "bytes32",
          "name": "",
          "type": "bytes32"
        },
        {
          "internalType": "uint256",
          "name": "",
          "type": "uint256"
        }
      ],
      "name": "pendingCommitmentToNullifiers",
      "outputs": [
        {
          "internalType": "bytes32",
          "name": "",
          "type": "bytes32"
        }
      ],
      "stateMutability": "view",
      "type": "function"
    },
    {
      "inputs": [
        {
          "internalType": "bytes32",
          "name": "",
          "type": "bytes32"
        }
      ],
      "name": "pendingNullifierHashes",
      "outputs": [
        {
          "internalType": "bool",
          "name": "",
          "type": "bool"
        }
      ],
      "stateMutability": "view",
      "type": "function"
    },
    {
      "inputs": [
        {
          "internalType": "address",
          "name": "",
          "type": "address"
        }
      ],
      "name": "projectOwnerToToken",
      "outputs": [
        {
          "internalType": "uint256",
          "name": "",
          "type": "uint256"
        }
      ],
      "stateMutability": "view",
      "type": "function"
    },
    {
      "inputs": [
        {
          "internalType": "uint256",
          "name": "",
          "type": "uint256"
        }
      ],
      "name": "projectTokenToOwner",
      "outputs": [
        {
          "internalType": "address",
          "name": "",
          "type": "address"
        }
      ],
      "stateMutability": "view",
      "type": "function"
    },
    {
      "inputs": [],
      "name": "projectTokenTransferVerifier",
      "outputs": [
        {
          "internalType": "contract IVerifier",
          "name": "",
          "type": "address"
        }
      ],
      "stateMutability": "view",
      "type": "function"
    },
    {
      "inputs": [
        {
          "internalType": "uint256",
          "name": "",
          "type": "uint256"
        }
      ],
      "name": "projectTokens",
      "outputs": [
        {
          "internalType": "uint256",
          "name": "id",
          "type": "uint256"
        },
        {
          "internalType": "uint256",
          "name": "value",
          "type": "uint256"
        }
      ],
      "stateMutability": "view",
      "type": "function"
    },
    {
      "inputs": [],
      "name": "projectTokensContract",
      "outputs": [
        {
          "internalType": "contract AbstractERC1155",
          "name": "",
          "type": "address"
        }
      ],
      "stateMutability": "view",
      "type": "function"
    },
    {
      "inputs": [
        {
          "internalType": "uint256",
          "name": "",
          "type": "uint256"
        }
      ],
      "name": "projects",
      "outputs": [
        {
          "components": [
            {
              "internalType": "address",
              "name": "owner",
              "type": "address"
            },
            {
              "internalType": "bytes",
              "name": "publicKey",
              "type": "bytes"
            }
          ],
          "internalType": "struct TornadoPool.Account",
          "name": "creator",
          "type": "tuple"
        },
        {
          "internalType": "uint256",
          "name": "tokenId",
          "type": "uint256"
        },
        {
          "internalType": "string",
          "name": "title",
          "type": "string"
        },
        {
          "internalType": "string",
          "name": "description",
          "type": "string"
        }
      ],
      "stateMutability": "view",
      "type": "function"
    },
    {
      "inputs": [
        {
          "components": [
            {
              "internalType": "address",
              "name": "owner",
              "type": "address"
            },
            {
              "internalType": "bytes",
              "name": "publicKey",
              "type": "bytes"
            }
          ],
          "internalType": "struct TornadoPool.Account",
          "name": "_account",
          "type": "tuple"
        }
      ],
      "name": "register",
      "outputs": [],
      "stateMutability": "nonpayable",
      "type": "function"
    },
    {
      "inputs": [
        {
          "components": [
            {
              "internalType": "address",
              "name": "owner",
              "type": "address"
            },
            {
              "internalType": "bytes",
              "name": "publicKey",
              "type": "bytes"
            }
          ],
          "internalType": "struct TornadoPool.Account",
          "name": "_account",
          "type": "tuple"
        },
        {
          "components": [
            {
              "internalType": "bytes",
              "name": "proof",
              "type": "bytes"
            },
            {
              "internalType": "bytes32",
              "name": "root",
              "type": "bytes32"
            },
            {
              "internalType": "bytes32[]",
              "name": "inputNullifiers",
              "type": "bytes32[]"
            },
            {
              "internalType": "bytes32[2]",
              "name": "outputCommitments",
              "type": "bytes32[2]"
            },
            {
              "internalType": "uint256",
              "name": "publicAmount",
              "type": "uint256"
            },
            {
              "internalType": "uint256",
              "name": "publicTokenId",
              "type": "uint256"
            },
            {
              "internalType": "bytes32",
              "name": "extDataHash",
              "type": "bytes32"
            }
          ],
          "internalType": "struct TornadoPool.Proof",
          "name": "_proofArgs",
          "type": "tuple"
        },
        {
          "components": [
            {
              "internalType": "address",
              "name": "recipient",
              "type": "address"
            },
            {
              "internalType": "int256",
              "name": "extAmount",
              "type": "int256"
            },
            {
              "internalType": "uint256",
              "name": "publicTokenId",
              "type": "uint256"
            },
            {
              "internalType": "address",
              "name": "relayer",
              "type": "address"
            },
            {
              "internalType": "uint256",
              "name": "fee",
              "type": "uint256"
            },
            {
              "internalType": "bytes",
              "name": "encryptedOutput1",
              "type": "bytes"
            },
            {
              "internalType": "bytes",
              "name": "encryptedOutput2",
              "type": "bytes"
            }
          ],
          "internalType": "struct TornadoPool.ExtData",
          "name": "_extData",
          "type": "tuple"
        }
      ],
      "name": "registerAndTransact",
      "outputs": [],
      "stateMutability": "nonpayable",
      "type": "function"
    },
    {
      "inputs": [
        {
          "internalType": "contract IERC20",
          "name": "_token",
          "type": "address"
        },
        {
          "internalType": "address payable",
          "name": "_to",
          "type": "address"
        },
        {
          "internalType": "uint256",
          "name": "_balance",
          "type": "uint256"
        }
      ],
      "name": "rescueTokens",
      "outputs": [],
      "stateMutability": "nonpayable",
      "type": "function"
    },
    {
      "inputs": [
        {
          "internalType": "uint256",
          "name": "",
          "type": "uint256"
        }
      ],
      "name": "roots",
      "outputs": [
        {
          "internalType": "bytes32",
          "name": "",
          "type": "bytes32"
        }
      ],
      "stateMutability": "view",
      "type": "function"
    },
    {
      "inputs": [
        {
          "internalType": "string",
          "name": "_newUri",
          "type": "string"
        }
      ],
      "name": "setProjectTokensURI",
      "outputs": [],
      "stateMutability": "nonpayable",
      "type": "function"
    },
    {
      "inputs": [
        {
          "internalType": "bytes4",
          "name": "interfaceID",
          "type": "bytes4"
        }
      ],
      "name": "supportsInterface",
      "outputs": [
        {
          "internalType": "bool",
          "name": "",
          "type": "bool"
        }
      ],
      "stateMutability": "pure",
      "type": "function"
    },
    {
      "inputs": [],
      "name": "token",
      "outputs": [
        {
          "internalType": "contract IERC20",
          "name": "",
          "type": "address"
        }
      ],
      "stateMutability": "view",
      "type": "function"
    },
    {
      "inputs": [
        {
          "components": [
            {
              "internalType": "bytes",
              "name": "proof",
              "type": "bytes"
            },
            {
              "internalType": "bytes32",
              "name": "root",
              "type": "bytes32"
            },
            {
              "internalType": "bytes32[]",
              "name": "inputNullifiers",
              "type": "bytes32[]"
            },
            {
              "internalType": "bytes32[2]",
              "name": "outputCommitments",
              "type": "bytes32[2]"
            },
            {
              "internalType": "uint256",
              "name": "publicAmount",
              "type": "uint256"
            },
            {
              "internalType": "uint256",
              "name": "publicTokenId",
              "type": "uint256"
            },
            {
              "internalType": "bytes32",
              "name": "extDataHash",
              "type": "bytes32"
            }
          ],
          "internalType": "struct TornadoPool.Proof",
          "name": "_args",
          "type": "tuple"
        },
        {
          "components": [
            {
              "internalType": "address",
              "name": "recipient",
              "type": "address"
            },
            {
              "internalType": "int256",
              "name": "extAmount",
              "type": "int256"
            },
            {
              "internalType": "uint256",
              "name": "publicTokenId",
              "type": "uint256"
            },
            {
              "internalType": "address",
              "name": "relayer",
              "type": "address"
            },
            {
              "internalType": "uint256",
              "name": "fee",
              "type": "uint256"
            },
            {
              "internalType": "bytes",
              "name": "encryptedOutput1",
              "type": "bytes"
            },
            {
              "internalType": "bytes",
              "name": "encryptedOutput2",
              "type": "bytes"
            }
          ],
          "internalType": "struct TornadoPool.ExtData",
          "name": "_extData",
          "type": "tuple"
        }
      ],
      "name": "transact",
      "outputs": [],
      "stateMutability": "nonpayable",
      "type": "function"
    },
    {
      "inputs": [
        {
          "components": [
            {
              "internalType": "bytes",
              "name": "proof",
              "type": "bytes"
            },
            {
              "internalType": "bytes32",
              "name": "root",
              "type": "bytes32"
            },
            {
              "internalType": "bytes32[]",
              "name": "inputNullifiers",
              "type": "bytes32[]"
            },
            {
              "internalType": "bytes32[2]",
              "name": "outputCommitments",
              "type": "bytes32[2]"
            },
            {
              "internalType": "uint256",
              "name": "publicAmount",
              "type": "uint256"
            },
            {
              "internalType": "uint256",
              "name": "publicTokenId",
              "type": "uint256"
            },
            {
              "internalType": "bytes32",
              "name": "extDataHash",
              "type": "bytes32"
            }
          ],
          "internalType": "struct TornadoPool.Proof",
          "name": "_args",
          "type": "tuple"
        },
        {
          "components": [
            {
              "internalType": "address",
              "name": "recipient",
              "type": "address"
            },
            {
              "internalType": "int256",
              "name": "extAmount",
              "type": "int256"
            },
            {
              "internalType": "uint256",
              "name": "publicTokenId",
              "type": "uint256"
            },
            {
              "internalType": "address",
              "name": "relayer",
              "type": "address"
            },
            {
              "internalType": "uint256",
              "name": "fee",
              "type": "uint256"
            },
            {
              "internalType": "bytes",
              "name": "encryptedOutput1",
              "type": "bytes"
            },
            {
              "internalType": "bytes",
              "name": "encryptedOutput2",
              "type": "bytes"
            }
          ],
          "internalType": "struct TornadoPool.ExtData",
          "name": "_extData",
          "type": "tuple"
        },
        {
          "components": [
            {
              "internalType": "bytes",
              "name": "encryptedOutput1",
              "type": "bytes"
            },
            {
              "internalType": "bytes",
              "name": "encryptedOutput2",
              "type": "bytes"
            }
          ],
          "internalType": "struct ZkInvest.EncryptedOutputs",
          "name": "_cancellable",
          "type": "tuple"
        }
      ],
      "name": "transactWithProject",
      "outputs": [],
      "stateMutability": "nonpayable",
      "type": "function"
    },
    {
      "inputs": [],
      "name": "verifier16",
      "outputs": [
        {
          "internalType": "contract IVerifier",
          "name": "",
          "type": "address"
        }
      ],
      "stateMutability": "view",
      "type": "function"
    },
    {
      "inputs": [],
      "name": "verifier2",
      "outputs": [
        {
          "internalType": "contract IVerifier",
          "name": "",
          "type": "address"
        }
      ],
      "stateMutability": "view",
      "type": "function"
    },
    {
      "inputs": [
        {
          "components": [
            {
              "internalType": "bytes",
              "name": "proof",
              "type": "bytes"
            },
            {
              "internalType": "bytes32",
              "name": "commitmentReceived",
              "type": "bytes32"
            },
            {
              "internalType": "bytes32",
              "name": "commitmentSent",
              "type": "bytes32"
            },
            {
              "internalType": "uint256",
              "name": "tokenValue",
              "type": "uint256"
            },
            {
              "internalType": "uint256",
              "name": "sentTokenId",
              "type": "uint256"
            }
          ],
          "internalType": "struct ZkInvest.ProjectTokenTransferProof",
          "name": "_args",
          "type": "tuple"
        }
      ],
      "name": "verifyProjectTokenTransferProof",
      "outputs": [
        {
          "internalType": "bool",
          "name": "",
          "type": "bool"
        }
      ],
      "stateMutability": "view",
      "type": "function"
    },
    {
      "inputs": [
        {
          "components": [
            {
              "internalType": "bytes",
              "name": "proof",
              "type": "bytes"
            },
            {
              "internalType": "bytes32",
              "name": "root",
              "type": "bytes32"
            },
            {
              "internalType": "bytes32[]",
              "name": "inputNullifiers",
              "type": "bytes32[]"
            },
            {
              "internalType": "bytes32[2]",
              "name": "outputCommitments",
              "type": "bytes32[2]"
            },
            {
              "internalType": "uint256",
              "name": "publicAmount",
              "type": "uint256"
            },
            {
              "internalType": "uint256",
              "name": "publicTokenId",
              "type": "uint256"
            },
            {
              "internalType": "bytes32",
              "name": "extDataHash",
              "type": "bytes32"
            }
          ],
          "internalType": "struct TornadoPool.Proof",
          "name": "_args",
          "type": "tuple"
        }
      ],
      "name": "verifyProof",
      "outputs": [
        {
          "internalType": "bool",
          "name": "",
          "type": "bool"
        }
      ],
      "stateMutability": "view",
      "type": "function"
    },
    {
      "inputs": [
        {
          "internalType": "uint256",
          "name": "i",
          "type": "uint256"
        }
      ],
      "name": "zeros",
      "outputs": [
        {
          "internalType": "bytes32",
          "name": "",
          "type": "bytes32"
        }
      ],
      "stateMutability": "pure",
      "type": "function"
    }
  ],
  "bytecode": "0x610180604052600380546001600160401b03191690553480156200002257600080fd5b506040516200586a3803806200586a83398101604081905262000045916200021f565b855160208701518686868686848463ffffffff8216620000975760405162461bcd60e51b8152600401808060200182810382526023815260200180620058476023913960400191505060405180910390fd5b60208263ffffffff1610620000f3576040805162461bcd60e51b815260206004820152601e60248201527f5f6c6576656c732073686f756c64206265206c657373207468616e2033320000604482015290519081900360640190fd5b60e091821b6001600160e01b03191660a052606090811b6001600160601b0319908116608052600160045598811b891660c05296871b8816905291851b861661010052841b851661012052831b841661014052505060409097015190961b9095166101605250620003629350505050565b60006200017b6200017584620002de565b620002b2565b905080828560208602850111156200019257600080fd5b60005b85811015620001c057620001aa878362000205565b8352602092830192919091019060010162000195565b5050509392505050565b8051620001d78162000332565b92915050565b600082601f830112620001ee578081fd5b6003620001fd84828562000164565b949350505050565b8051620001d7816200034c565b8051620001d78162000357565b600080600080600080610100878903121562000239578182fd5b6200024788838901620001dd565b955060606200025989828a0162000212565b95505060806200026c89828a01620001ca565b94505060a06200027f89828a0162000205565b93505060c06200029289828a0162000205565b92505060e0620002a589828a01620001ca565b9150509295509295509295565b6040518181016001600160401b0381118282101715620002d657620002d662000330565b604052919050565b60006001600160401b03821115620002fa57620002fa62000330565b5060200290565b6000620001d7826200031b565b6000620001d78262000301565b6001600160a01b031690565b63ffffffff1690565bfe5b6200033d8162000301565b81146200034957600080fd5b50565b6200033d816200030e565b6200033d8162000327565b60805160601c60a05160e01c60c05160601c60e05160601c6101005160601c6101205160601c6101405160601c6101605160601c61540b6200043c6000398061092a5280611f19525080610d875280611b4a5280611b9b5280611c81525080610aea5280610b6e5280611bef5280612a60528061318b525080611ce6528061295a5280612f4c528061305852806130fc52806132465250806109065280610f28525080610dbb528061148d525080611216528061343c52806134bf52806135e75280613650525080610a3952806128ee525061540b6000f3fe608060405234801561001057600080fd5b50600436106102675760003560e01c806301ffc9a71461026c578063107046bd1461029557806317cc915c146102b857806324082014146102cb5780632570b7b4146102e05780632d08050a146103005780632fc0355f1461030857806335a688331461031d57806335f080051461032557806338bf282e146103455780633c54539214610358578063406fa20514610360578063414a37ba146103735780634783c35b1461037b5780634c6669dc146103835780634ecf518b14610396578063522b6eaf146103ab578063522d0d70146103be5780636522709c146103c65780636d9833e3146103e657806378abb49b146103f95780637fe24ffe146104015780638f1c56bd1461040957806390eeb02b146104115780639c4c4f5114610419578063a23498de1461042c578063a24ca8191461043f578063ae1cdc1014610452578063b269449f14610465578063b2bc6e0f14610486578063b99a4d7614610499578063ba70f757146104ac578063bb279124146104b4578063bc063e1a14610401578063bc197c81146104c7578063bda06f07146104e7578063c03575db146104fa578063c2b40ae41461050d578063cb3dce9d14610520578063cd87a3b414610528578063cea9d26f14610530578063d5af9ef814610543578063e5285dcc14610556578063e531d8c714610569578063e82955881461057c578063e8aea9611461058f578063ec732959146105a2578063ed33639f146105aa578063f178e47c146105b2578063f23a6e61146105c5578063fc0c546a146105d8578063fc7e9c6f146105e0578063fe4b84df146105e8575b600080fd5b61027f61027a366004613eaa565b6105fb565b60405161028c9190614cfb565b60405180910390f35b6102a86102a3366004613e55565b610634565b60405161028c9493929190615030565b61027f6102c6366004613e55565b610836565b6102de6102d936600461401d565b61084b565b005b6102f36102ee366004613e72565b610863565b60405161028c9190614d09565b6102f36108f8565b610310610904565b60405161028c9190614e62565b610310610928565b610338610333366004613e55565b61094c565b60405161028c9190614c18565b6102f3610353366004613e72565b610967565b610310610ae8565b6102de61036e366004613f7a565b610b0c565b6102f3610d73565b610338610d85565b61027f610391366004614134565b610da9565b61039e611214565b60405161028c9190615060565b6102de6103b93660046141c4565b611238565b61031061148b565b6103d96103d4366004613e55565b6114af565b60405161028c9190614d9f565b61027f6103f4366004613e55565b61154a565b6102f36115ba565b6102f36115c0565b6102f36115c8565b61039e6115ce565b6102de610427366004614168565b6115da565b61027f61043a366004613e55565b6115e8565b6102f361044d366004613e72565b6115fd565b6102f3610460366004613e55565b61162e565b610478610473366004613e55565b611640565b60405161028c929190615052565b6102de610494366004613f46565b61166e565b6102de6104a73660046140d6565b6116a3565b6102f3611a97565b6102f36104c2366004613d0a565b611ab2565b6104da6104d5366004613d2e565b611ac4565b60405161028c9190614d91565b6102de6104f5366004613e55565b611b3f565b6102de610508366004613f12565b611b90565b6102f361051b366004613e55565b611c59565b6102f3611c6b565b61039e611c71565b6102de61053e366004613ec7565b611c76565b61027f6105513660046140a2565b611ed1565b61027f610564366004613e55565b611f9e565b61027f610577366004613e55565b611fb3565b6102f361058a366004613e55565b611fc8565b6102de61059d366004614134565b612626565b6102f36128da565b6103106128ec565b6102f36105c0366004613e55565b612910565b6104da6105d3366004613de3565b612922565b610310612958565b61039e61297c565b6102de6105f6366004613e55565b61298f565b60006301ffc9a760e01b6001600160e01b03198316148061062c5750630271189760e51b6001600160e01b03198316145b90505b919050565b6010818154811061064457600080fd5b6000918252602091829020604080518082018252600590930290910180546001600160a01b03168352600180820180548451601f60026000199584161561010002959095019092169390930490810187900487028301870190945283825291955092938593858201939092918301828280156107015780601f106106d657610100808354040283529160200191610701565b820191906000526020600020905b8154815290600101906020018083116106e457829003601f168201915b50505091909252505050600280830154600384018054604080516020601f600019610100600187161502019094169690960492830186900486028101860190915281815294959294929383018282801561079c5780601f106107715761010080835404028352916020019161079c565b820191906000526020600020905b81548152906001019060200180831161077f57829003601f168201915b5050505060048301805460408051602060026001851615610100026000190190941693909304601f810184900484028201840190925281815294959493509083018282801561082c5780601f106108015761010080835404028352916020019161082c565b820191906000526020600020905b81548152906001019060200180831161080f57829003601f168201915b5050505050905084565b60086020526000908152604090205460ff1681565b6108548361166e565b61085e82826115da565b505050565b6000600160f81b82106108915760405162461bcd60e51b815260040161088890614f20565b60405180910390fd5b6001600160f81b0319831380156108ab5750600160f81b83125b6108c75760405162461bcd60e51b815260040161088890614eb0565b81830360008112156108ec5780600003600080516020615326833981519152036108ee565b805b9150505b92915050565b6706f05b59d3b2000081565b7f000000000000000000000000000000000000000000000000000000000000000081565b7f000000000000000000000000000000000000000000000000000000000000000081565b600a602052600090815260409020546001600160a01b031681565b600060008051602061532683398151915283106109cb576040805162461bcd60e51b815260206004820181905260248201527f5f6c6566742073686f756c6420626520696e7369646520746865206669656c64604482015290519081900360640190fd5b6000805160206153268339815191528210610a175760405162461bcd60e51b81526004018080602001828103825260218152602001806152976021913960400191505060405180910390fd5b610a1f6136ad565b838152602081018390526040805163014cf2b360e51b81527f00000000000000000000000000000000000000000000000000000000000000006001600160a01b03169163299e56609184916004909101908190839080838360005b83811015610a92578181015183820152602001610a7a565b5050505090500191505060206040518083038186803b158015610ab457600080fd5b505afa158015610ac8573d6000803e3d6000fd5b505050506040513d6020811015610ade57600080fd5b5051949350505050565b7f000000000000000000000000000000000000000000000000000000000000000081565b610b158461166e565b83516001600160a01b03166000908152600b602052604090205415610b4c5760405162461bcd60e51b815260040161088890614fe0565b610b54612a42565b600f5460405163731133e960e01b81526001600160a01b037f0000000000000000000000000000000000000000000000000000000000000000169063731133e990610ba89030908590600090600401614cb8565b600060405180830381600087803b158015610bc257600080fd5b505af1158015610bd6573d6000803e3d6000fd5b505086516000848152600a6020908152604080832080546001600160a01b03199081166001600160a01b03968716179091558b5185168452600b8352818420889055815180830183528881528084018a8152600f80546001818101835591885292516000805160206153b683398151915260029094029384015590516000805160206152578339815191529092019190915582516080810184528d81528085018a90529283018c9052606083018b9052601080549182018155909452815180516000805160206153668339815191526005909602958601805490931696169590951781558483015180519297509095508593610ce7936000805160206152d8833981519152909101929101906136cb565b505050602082810151600283015560408301518051610d0c92600385019201906136cb565b5060608201518051610d289160048401916020909101906136cb565b5050507f02a29705ceb3eb5d567c891caba5e58b982b2fe26bfd8e87c8ccf0daccb3c0bf8560200151828686604051610d649493929190614e12565b60405180910390a15050505050565b60008051602061532683398151915281565b7f000000000000000000000000000000000000000000000000000000000000000081565b600081604001515160021415610f18577f00000000000000000000000000000000000000000000000000000000000000006001600160a01b031663449ccd1e8360000151604051806101000160405280866020015160001c8152602001866080015181526020018660a0015181526020018660c0015160001c81526020018660400151600081518110610e3857fe5b602002602001015160001c81526020018660400151600181518110610e5957fe5b602002602001015160001c81526020018660600151600060028110610e7a57fe5b602002015160001c81526020018660600151600160028110610e9857fe5b602002015190526040516001600160e01b031960e085901b168152610ec1929190600401614df1565b60206040518083038186803b158015610ed957600080fd5b505afa158015610eed573d6000803e3d6000fd5b505050506040513d601f19601f82011682018060405250810190610f119190613e38565b905061062f565b816040015151601014156111fc577f00000000000000000000000000000000000000000000000000000000000000006001600160a01b0316634a2f947d8360000151604051806102c00160405280866020015160001c8152602001866080015181526020018660a0015181526020018660c0015160001c81526020018660400151600081518110610fa557fe5b602002602001015160001c81526020018660400151600181518110610fc657fe5b602002602001015160001c81526020018660400151600281518110610fe757fe5b602002602001015160001c8152602001866040015160038151811061100857fe5b602002602001015160001c8152602001866040015160048151811061102957fe5b602002602001015160001c8152602001866040015160058151811061104a57fe5b602002602001015160001c8152602001866040015160068151811061106b57fe5b602002602001015160001c8152602001866040015160078151811061108c57fe5b602002602001015160001c815260200186604001516008815181106110ad57fe5b602002602001015160001c815260200186604001516009815181106110ce57fe5b602002602001015160001c81526020018660400151600a815181106110ef57fe5b602002602001015160001c81526020018660400151600b8151811061111057fe5b602002602001015160001c81526020018660400151600c8151811061113157fe5b602002602001015160001c81526020018660400151600d8151811061115257fe5b602002602001015160001c81526020018660400151600e8151811061117357fe5b602002602001015160001c81526020018660400151600f8151811061119457fe5b602002602001015160001c815260200186606001516000600281106111b557fe5b602002015160001c815260200186606001516001600281106111d357fe5b602002015190526040516001600160e01b031960e085901b168152610ec1929190600401614db0565b60405162461bcd60e51b815260040161088890615010565b7f000000000000000000000000000000000000000000000000000000000000000081565b6002600454141561127e576040805162461bcd60e51b815260206004820152601f6024820152600080516020615217833981519152604482015290519081900360640190fd5b60026004556020820151156112a55760405162461bcd60e51b815260040161088890614e70565b6112af8383612c79565b60005b83604001515181101561130657600160096000866040015184815181106112d557fe5b6020908102919091018101518252810191909152604001600020805460ff19169115159190911790556001016112b2565b506040838101516060850151516000908152600c602090815292902081516113349391929190910190613757565b5060608301805160208082015191516000908152600d8252604080822093909355835180519083015182528382205560a08601519351518152600e825291909120825161138793919291909101906136cb565b5060c082015160608401516020908101516000908152600e82526040902082516113b6939192909101906136cb565b5060608301515160a0830151604051600080516020615277833981519152926113e0929091614d17565b60405180910390a160608301516020015160c083015160405160008051602061527783398151915292611414929091614d17565b60405180910390a1606083015151815160405160008051602061527783398151915292611442929091614d17565b60405180910390a1606083015160008051602061527783398151915290600160200201518260200151604051611479929190614d17565b60405180910390a15050600160045550565b7f000000000000000000000000000000000000000000000000000000000000000081565b600e6020908152600091825260409182902080548351601f6002600019610100600186161502019093169290920491820184900484028101840190945280845290918301828280156115425780601f1061151757610100808354040283529160200191611542565b820191906000526020600020905b81548152906001019060200180831161152557829003601f168201915b505050505081565b6000816115595750600061062f565b60035463ffffffff16805b63ffffffff811660009081526002602052604090205484141561158c5760019250505061062f565b63ffffffff811661159b575060645b6000190163ffffffff8082169083161415611564575060009392505050565b60075481565b600160f81b81565b60055481565b60035463ffffffff1681565b6115e48282612e76565b5050565b60096020526000908152604090205460ff1681565b600c602052816000526040600020818154811061161957600080fd5b90600052602060002001600091509150505481565b600d6020526000908152604090205481565b600f818154811061165057600080fd5b60009182526020909120600290910201805460019091015490915082565b80516001600160a01b031633146116975760405162461bcd60e51b815260040161088890614e80565b6116a0816133d8565b50565b600260045414156116e9576040805162461bcd60e51b815260206004820152601f6024820152600080516020615217833981519152604482015290519081900360640190fd5b60026004556020808401516000908152600d909152604090205461171f5760405162461bcd60e51b815260040161088890614f90565b336000908152600b60205260409020546080840151146117515760405162461bcd60e51b815260040161088890614f70565b600f83608001518154811061176257fe5b9060005260206000209060020201600101548360600151146117965760405162461bcd60e51b815260040161088890614fd0565b61179f83611ed1565b6117bb5760405162461bcd60e51b815260040161088890614ea0565b6117c9836040015182613424565b5060408381015160035484519251600080516020615237833981519152936118039392600160201b900463ffffffff166001190191614d37565b60405180910390a1600080516020615237833981519152816001600360049054906101000a900463ffffffff1603846020015160405161184593929190614d37565b60405180910390a1602080840180516000908152600d90925260409091205490516118709082613424565b506020848101516003546000828152600e9093526040928390209251600080516020615237833981519152936118b89392600160201b900463ffffffff166001190191614d64565b60405180910390a1600080516020615237833981519152816001600360049054906101000a900463ffffffff1603600e600085815260200190815260200160002060405161190893929190614d64565b60405180910390a16020808501516000908152600c909152604081205461193c576000828152600c60205260409020611951565b6020808601516000908152600c909152604090205b80548060200260200160405190810160405280929190818152602001828054801561199b57602002820191906000526020600020905b815481526020019060010190808311611987575b5050505050905060005b8151811015611a6c576001600860008484815181106119c057fe5b6020026020010151815260200190815260200160002060006101000a81548160ff0219169083151502179055506000600960008484815181106119ff57fe5b6020026020010151815260200190815260200160002060006101000a81548160ff021916908315150217905550600080516020615346833981519152828281518110611a4757fe5b6020026020010151604051611a5c9190614d09565b60405180910390a16001016119a5565b50506000908152600d6020908152604080832083905594015181529283209290925550506001600455565b60035463ffffffff1660009081526002602052604090205490565b600b6020526000908152604090205481565b60006001815b8451811015611afb57848181518110611adf57fe5b6020026020010151600014611af357600091505b600101611aca565b5060018115151415611b30577fbc197c819b3e337a6f9652dd10becd7eef83032af3b9d958d3d42f6694146621915050611b36565b60009150505b95945050505050565b336001600160a01b037f00000000000000000000000000000000000000000000000000000000000000001614611b875760405162461bcd60e51b815260040161088890614f00565b6116a0816135cc565b336001600160a01b037f00000000000000000000000000000000000000000000000000000000000000001614611bd85760405162461bcd60e51b815260040161088890614f00565b6040516302fe530560e01b81526001600160a01b037f000000000000000000000000000000000000000000000000000000000000000016906302fe530590611c24908490600401614d9f565b600060405180830381600087803b158015611c3e57600080fd5b505af1158015611c52573d6000803e3d6000fd5b5050505050565b60026020526000908152604090205481565b60065481565b606481565b336001600160a01b037f00000000000000000000000000000000000000000000000000000000000000001614611cbe5760405162461bcd60e51b815260040161088890614f00565b6001600160a01b038216611ce45760405162461bcd60e51b815260040161088890614fc0565b7f00000000000000000000000000000000000000000000000000000000000000006001600160a01b0316836001600160a01b03161415611d365760405162461bcd60e51b815260040161088890614f50565b6001600160a01b038316611d96574760008215611d535782611d55565b815b6040519091506001600160a01b0385169082156108fc029083906000818181858888f19350505050158015611d8e573d6000803e3d6000fd5b50505061085e565b6040516370a0823160e01b81526000906001600160a01b038516906370a0823190611dc5903090600401614c18565b60206040518083038186803b158015611ddd57600080fd5b505afa158015611df1573d6000803e3d6000fd5b505050506040513d601f19601f82011682018060405250810190611e159190614249565b905060008215611e255782611e27565b815b905060008111611e495760405162461bcd60e51b815260040161088890614ff0565b60405163a9059cbb60e01b81526001600160a01b0386169063a9059cbb90611e779087908590600401614c56565b602060405180830381600087803b158015611e9157600080fd5b505af1158015611ea5573d6000803e3d6000fd5b505050506040513d601f19601f82011682018060405250810190611ec99190613e38565b505050505050565b805160408051608080820183526020808601518352838601519083015260608086015183850152908501519082015290516335f8315960e11b81526000926001600160a01b037f00000000000000000000000000000000000000000000000000000000000000001692636bf062b292611f4e929190600401614dd1565b60206040518083038186803b158015611f6657600080fd5b505afa158015611f7a573d6000803e3d6000fd5b505050506040513d601f19601f8201168201806040525081019061062c9190613e38565b60009081526008602052604090205460ff1690565b60009081526009602052604090205460ff1690565b600081611fe457506000805160206152b883398151915261062f565b816001141561201457507f1a332ca2cd2436bdc6796e6e4244ebf6f7e359868b7252e55342f766e408808261062f565b816002141561204457507f2fb19ac27499bdf9d7d3b387eff42b6d12bffbc6206e81d0ef0b0d6b24520ebd61062f565b816003141561207457507f18d0d6e282d4eacbf18efc619a986db763b75095ed122fac7d4a49418daa42e161062f565b81600414156120a457507f054dec40f76a0f5aaeff1a85a4a3721b92b4ad244362d30b0ef8ed7033de11d361062f565b81600514156120d457507f1d24c91f8d40f1c2591edec19d392905cf5eb01eada48d71836177ef11aea5b261062f565b816006141561210457507f0fb63621cfc047eba2159faecfa55b120d7c81c0722633ef94e20e27675e378f61062f565b816007141561213457507f277b08f214fe8c5504a79614cdec5abd7b6adc9133fe926398684c82fd798b4461062f565b816008141561216457507f2633613437c1fd97f7c798e2ea30d52cfddee56d74f856a541320ae86ddaf2de61062f565b816009141561219357507e768963fa4b993fbfece3619bfaa3ca4afd7e3864f11b09a0849dbf4ad2580761062f565b81600a14156121c357507f0e63ff9df484c1a21478bd27111763ef203177ec0a7ef3a3cd43ec909f587bb061062f565b81600b14156121f357507f0e6a4bfb0dd0ac8bf5517eaac48a95ba783dabe9f64494f9c892d3e8431eaab361062f565b81600c141561222357507f0164a46b3ffff8baca00de7a130a63d105f1578076838502b99488505d5b3d3561062f565b81600d141561225357507f145a6f1521c02b250cc76eb35cd67c9b0b22473577de3778e4c51903836c895761062f565b81600e141561228357507f29849fc5b55303a660bad33d986fd156d48516ec58a0f0a561a03b704a80225461062f565b81600f14156122b357507f26639dd486b374e98ac6da34e8651b3fca58c51f1c2f857dd82045f27fc8dbe661062f565b81601014156122e357507f2aa39214b887ee877e60afdb191390344c68177c30a0b8646649774174de5e3361062f565b816011141561231357507f09b397d253e41a521d042ffe01f8c33ae37d4c7da21af68693aafb63d599d70861062f565b816012141561234357507f02fbfd397ad901cea38553239aefec016fcb6a19899038503f04814cbb79a51161062f565b816013141561237357507f266640a877ec97a91f6c95637f843eeac8718f53f311bac9cba7d958df646f9d61062f565b81601414156123a357507f29f9a0a07a22ab214d00aaa0190f54509e853f3119009baecb0035347606b0a961062f565b81601514156123d357507f0a1fda67bffa0ab3a755f23fdcf922720820b6a96616a5ca34643cd0b935e3d661062f565b816016141561240357507f19507199eb76b5ec5abe538a01471d03efb6c6984739c77ec61ada2ba2afb38961062f565b816017141561243357507f26bd93d26b751484942282e27acfb6d193537327a831df6927e19cdfc73c3e6461062f565b816018141561246357507f2eb88a9c6b00a4bc6ea253268090fe1d255f6fe02d2eb745517723aae44d738661062f565b816019141561249357507f13e50d0bda78be97792df40273cbb16f0dc65c0697d81a82d07d0f6eee80a16461062f565b81601a14156124c357507f2ea95776929000133246ff8d9fdcba179d0b262b9e910558309bac1c1ec03d7a61062f565b81601b14156124f357507f1a640d6ef66e356c795396c0957b06a99891afe0c493f4d0bdfc0450764bae6061062f565b81601c141561252357507f2b17979f2c2048dd9e4ee5f482cced21435ea8cc54c32f80562e39a5016b049661062f565b81601d141561255357507f29ba6a30de50542e261abfc7ee0c68911002d3acd4dd4c02ad59aa96805b20bb61062f565b81601e141561258357507f103fcf1c8a98ebe50285f6e669077a579308311fd44bb6895d5da7ba7fd3564e61062f565b81601f14156125b357507f166bdd01780976e655f5278260c638dcf10fe7c136f37c9152cbcaabef901f4d61062f565b81602014156125e357507f2712c601a9b8b2abd396a619327095d3f1ea86a6c07d6df416a3973a1a4b3ce561062f565b6040805162461bcd60e51b8152602060048201526013602482015272496e646578206f7574206f6620626f756e647360681b604482015290519081900360640190fd5b612633816020015161154a565b61264f5760405162461bcd60e51b815260040161088890614ed0565b606081015160208082015191516000908152600d9091526040902054146126885760405162461bcd60e51b815260040161088890614ec0565b606081015180516020918201516000908152600d909252604090912054146126c25760405162461bcd60e51b815260040161088890614fa0565b60005b816040015151811015612717576126f2826040015182815181106126e557fe5b6020026020010151611f9e565b1561270f5760405162461bcd60e51b815260040161088890615000565b6001016126c5565b5061272181610da9565b61273d5760405162461bcd60e51b815260040161088890614f60565b600080600c6000846060015160006002811061275557fe5b60200201518152602001908152602001600020805490501161278f5760608201516020908101516000908152600c909152604090206127a4565b6060820151516000908152600c602052604090205b8054806020026020016040519081016040528092919081815260200182805480156127ee57602002820191906000526020600020905b8154815260200190600101908083116127da575b5050505050905060005b815181101561283b576009600083838151811061281157fe5b6020908102919091018101518252810191909152604001600020805460ff191690556001016127f8565b50606082018051516000908152600d60209081526040808320839055835182015183528083208390559251518252600c905290812061287991613791565b60608201516020908101516000908152600c9091526040812061289b91613791565b6060820151516000908152600e602052604081206128b8916137af565b60608201516020908101516000908152600e909152604081206115e4916137af565b6000805160206152b883398151915281565b7f000000000000000000000000000000000000000000000000000000000000000081565b60016020526000908152604090205481565b60008261295057507ff23a6e612e1ff4830e658fe43f4e3cb4a5f8170bd5d9e69fb5d7a7fa9e4fdf97611b36565b506000611b36565b7f000000000000000000000000000000000000000000000000000000000000000081565b600354600160201b900463ffffffff1681565b600054610100900460ff16806129a857506129a86135d1565b806129b6575060005460ff16155b6129f15760405162461bcd60e51b815260040180806020018281038252602e8152602001806152f8602e913960400191505060405180910390fd5b600054610100900460ff16158015612a1c576000805460ff1961ff0019909116610100171660011790555b612a25826135cc565b612a2d6135e2565b80156115e4576000805461ff00191690555050565b601054612c775760405163731133e960e01b81526001600160a01b037f0000000000000000000000000000000000000000000000000000000000000000169063731133e990612a9a9030906000908190600401614c71565b600060405180830381600087803b158015612ab457600080fd5b505af1158015612ac8573d6000803e3d6000fd5b505060408051808201825260008082526020808301828152600f80546001808201835591855294516000805160206153b6833981519152600290960295860155905160008051602061525783398151915290940193909355835160c08101855230608082019081528551808401875284815260a0830152815280820183905284518086018652600881526714995cd95c9d995960c21b8184015281860152845180860190955260048552636e6f6e6560e01b85830152606081019490945260108054938401815590915282518051600080516020615366833981519152600590940293840180546001600160a01b0319166001600160a01b0390921691909117815581830151805195975090955090938593612bf8936000805160206152d88339815191529091019201906136cb565b505050602082810151600283015560408301518051612c1d92600385019201906136cb565b5060608201518051612c399160048401916020909101906136cb565b50506000805250600a6020527f13da86008ba1c6922daee3e07db95305ef49ebced9f5467a0b8613fcc6b343e380546001600160a01b031916301790555b565b612c86826020015161154a565b612ca25760405162461bcd60e51b815260040161088890614ed0565b60005b826040015151811015612d2757612cc5836040015182815181106126e557fe5b15612ce25760405162461bcd60e51b815260040161088890614fb0565b612d0283604001518281518110612cf557fe5b6020026020010151611fb3565b15612d1f5760405162461bcd60e51b815260040161088890614f40565b600101612ca5565b5060008051602061532683398151915281604051602001612d489190615041565b6040516020818303038152906040528051906020012060001c81612d6857fe5b068260c0015160001c14612d8e5760405162461bcd60e51b815260040161088890614ee0565b80604001518260a0015114612db55760405162461bcd60e51b815260040161088890614f30565b60a08201516000908152600a60205260409020546001600160a01b0316612dee5760405162461bcd60e51b815260040161088890614f80565b612e0081602001518260800151610863565b826080015114612e225760405162461bcd60e51b815260040161088890614e90565b600081602001511315612e5157604081015115612e515760405162461bcd60e51b815260040161088890614f10565b612e5a82610da9565b6115e45760405162461bcd60e51b815260040161088890614f60565b60026004541415612ebc576040805162461bcd60e51b815260206004820152601f6024820152600080516020615217833981519152604482015290519081900360640190fd5b6002600455612ecb8282612c79565b60005b826040015151811015612f225760016008600085604001518481518110612ef157fe5b6020908102919091018101518252810191909152604001600020805460ff1916911515919091179055600101612ece565b50600081602001511315612ffd5760208101516040516323b872dd60e01b81526001600160a01b037f000000000000000000000000000000000000000000000000000000000000000016916323b872dd91612f84913391309190600401614c26565b602060405180830381600087803b158015612f9e57600080fd5b505af1158015612fb2573d6000803e3d6000fd5b505050506040513d601f19601f82011682018060405250810190612fd69190613e38565b5060075481602001511115612ffd5760405162461bcd60e51b815260040161088890615020565b60008160200151121561321b5780516001600160a01b03166130315760405162461bcd60e51b815260040161088890614ef0565b6040810151613189578051602082015160405163a9059cbb60e01b81526001600160a01b037f0000000000000000000000000000000000000000000000000000000000000000169263a9059cbb926130929260009190910390600401614caa565b602060405180830381600087803b1580156130ac57600080fd5b505af11580156130c0573d6000803e3d6000fd5b505050506040513d601f19601f820116820180604052508101906130e49190613e38565b506040516370a0823160e01b81526001600160a01b037f000000000000000000000000000000000000000000000000000000000000000016906370a0823190613131903090600401614c18565b60206040518083038186803b15801561314957600080fd5b505afa15801561315d573d6000803e3d6000fd5b505050506040513d601f19601f820116820180604052508101906131819190614249565b60055561321b565b7f00000000000000000000000000000000000000000000000000000000000000006001600160a01b031663731133e98260000151836040015184602001516000036040518463ffffffff1660e01b81526004016131e893929190614cd3565b600060405180830381600087803b15801561320257600080fd5b505af1158015613216573d6000803e3d6000fd5b505050505b6080810151156132cd576060810151608082015160405163a9059cbb60e01b81526001600160a01b037f0000000000000000000000000000000000000000000000000000000000000000169263a9059cbb9261327992600401614caa565b602060405180830381600087803b15801561329357600080fd5b505af11580156132a7573d6000803e3d6000fd5b505050506040513d601f19601f820116820180604052508101906132cb9190613e38565b505b606082015180516020909101516132e49190613424565b5060608201515160035460a083015160405160008051602061523783398151915293613324939092600160201b90910463ffffffff166001190191614d37565b60405180910390a1606082015160008051602061523783398151915290600160200201516001600360049054906101000a900463ffffffff16038360c0015160405161337293929190614d37565b60405180910390a160005b8260400151518110156133ce57600080516020615346833981519152836040015182815181106133a957fe5b60200260200101516040516133be9190614d09565b60405180910390a160010161337d565b5050600160045550565b80600001516001600160a01b03167f2c1ca5c14df2aba59d26842c5ff53f6817052ef34f6f7537f8b4c9e3805a5e5082602001516040516134199190614d9f565b60405180910390a250565b60035460009063ffffffff600160201b9091048116907f0000000000000000000000000000000000000000000000000000000000000000811660020a1681141561349f5760405162461bcd60e51b81526004018080602001828103825260308152602001806153866030913960400191505060405180910390fd5b600263ffffffff82160460006134b58686610967565b905060008060015b7f000000000000000000000000000000000000000000000000000000000000000063ffffffff168163ffffffff161015613566576001851661352a5783925061350b8163ffffffff16611fc8565b63ffffffff821660009081526001602052604090208590559150613546565b63ffffffff811660009081526001602052604090205492508391505b6135508383610967565b9350600263ffffffff86160494506001016134bd565b50506003805463ffffffff1981166064600163ffffffff9384160183160682169081178355600090815260026020819052604090912094909455815463ffffffff60201b1916600160201b94870190911693909302929092179091555090949350505050565b600755565b60006135dc306136a7565b15905090565b60005b7f000000000000000000000000000000000000000000000000000000000000000063ffffffff168163ffffffff16101561364a576136288163ffffffff16611fc8565b63ffffffff8216600090815260016020819052604090912091909155016135e5565b5061367a7f000000000000000000000000000000000000000000000000000000000000000063ffffffff16611fc8565b6000805260026020527fac33ff75c19e70fe83507db0d683fd3465c996598dc972688b7ace676c89077b55565b3b151590565b60405180604001604052806002906020820280368337509192915050565b828054600181600116156101000203166002900490600052602060002090601f0160209004810192826137015760008555613747565b82601f1061371a57805160ff1916838001178555613747565b82800160010185558215613747579182015b8281111561374757825182559160200191906001019061372c565b506137539291506137ef565b5090565b828054828255906000526020600020908101928215613747579160200282018281111561374757825182559160200191906001019061372c565b50805460008255906000526020600020908101906116a091906137ef565b50805460018160011615610100020316600290046000825580601f106137d557506116a0565b601f0160209004906000526020600020908101906116a091905b5b8082111561375357600081556001016137f0565b600061381761381284615097565b61506e565b9050808285602086028501111561382d57600080fd5b60005b858110156138575761384287836139bb565b83526020928301929190910190600101613830565b5050509392505050565b600061386f613812846150b7565b9050808382526020820190508285602086028501111561388e57600080fd5b60005b85811015613857576138a387836139bb565b83526020928301929190910190600101613891565b60006138c6613812846150b7565b905080838252602082019050828560208602850111156138e557600080fd5b60005b85811015613857576138fa87836139bb565b835260209283019291909101906001016138e8565b600061391d613812846150da565b90508281526020810184848401111561393557600080fd5b613940848285615196565b509392505050565b80356108f2816151de565b600082601f830112613963578081fd5b60026108ee848285613804565b600082601f830112613980578081fd5b81356108ee848260208601613861565b600082601f8301126139a0578081fd5b81356108ee8482602086016138b8565b80516108f2816151f2565b80356108f2816151fb565b80356108f281615204565b600082601f8301126139e1578081fd5b81356108ee84826020860161390f565b80356108f28161520d565b600060408284031215613a0d578081fd5b613a17604061506e565b90506000613a258484613948565b8282015260208301356001600160401b03811115613a41578182fd5b613a4d858286016139d1565b6020840152505092915050565b600060408284031215613a6b578081fd5b613a75604061506e565b905081356001600160401b03811115613a8d57600080fd5b613a99848285016139d1565b82525060208201356001600160401b03811115613ab557600080fd5b613ac1848285016139d1565b60208301525092915050565b600060e08284031215613ade578081fd5b613ae860e061506e565b90506000613af68484613948565b818301526020613b08858286016139bb565b908301526040613b1a858583016139bb565b908301526060613b2c85858301613948565b908301526080613b3e858583016139bb565b9083015260a08301356001600160401b03811115613b5a578182fd5b613b66858286016139d1565b60a08401525060c08301356001600160401b03811115613b84578182fd5b613b90858286016139d1565b60c0840152505092915050565b600060a08284031215613bae578081fd5b613bb860a061506e565b905081356001600160401b03811115613bd057600080fd5b613bdc848285016139d1565b8252506020613bed848483016139bb565b908201526040613bff848483016139bb565b908201526060613c11848483016139bb565b908201526080613c23848483016139bb565b9082015292915050565b60006101008284031215613c3f578081fd5b613c4960e061506e565b905081356001600160401b03811115613c6157600080fd5b613c6d848285016139d1565b8252506020613c7e848483016139bb565b9082015260408201356001600160401b03811115613c9b57600080fd5b613ca784828501613970565b6040830152506060613cbb84828501613953565b9082015260a0613ccd848483016139bb565b608083015260c0613ce0858286016139bb565b8284015260e09150613cf4858386016139bb565b908301525092915050565b80516108f2816151fb565b600060208284031215613d1b578081fd5b613d2783828401613948565b9392505050565b600080600080600060a08688031215613d45578081fd5b613d5187828801613948565b94506020613d6188828901613948565b94505060408601356001600160401b03811115613d7c578182fd5b613d8888828901613990565b93505060608601356001600160401b03811115613da3578182fd5b613daf88828901613990565b92505060808601356001600160401b03811115613dca578182fd5b613dd6888289016139d1565b9150509295509295909350565b600080600080600060a08688031215613dfa578283fd5b613e0687848801613948565b94506020613e1688828901613948565b9450506040613e27888289016139bb565b9350506060613daf888289016139bb565b600060208284031215613e49578081fd5b613d27838284016139b0565b600060208284031215613e66578081fd5b613d27838284016139bb565b60008060408385031215613e84578182fd5b613e90848385016139bb565b91506020613ea0858286016139bb565b9150509250929050565b600060208284031215613ebb578081fd5b613d27838284016139c6565b600080600060608486031215613edb578081fd5b613ee7858286016139f1565b92506020613ef786828701613948565b9250506040613f08868287016139bb565b9150509250925092565b600060208284031215613f23578081fd5b818101356001600160401b03811115613f3a578182fd5b6108ee848285016139d1565b600060208284031215613f57578081fd5b818101356001600160401b03811115613f6e578182fd5b6108ee848285016139fc565b60008060008060808587031215613f8f578182fd5b848201356001600160401b03811115613fa6578283fd5b613fb2878288016139fc565b94505060208501356001600160401b03811115613fcd578283fd5b613fd9878288016139d1565b93505060408501356001600160401b03811115613ff4578283fd5b614000878288016139d1565b9250506060614011878288016139bb565b91505092959194509250565b600080600060608486031215614031578081fd5b838101356001600160401b03811115614048578182fd5b614054868287016139fc565b93505060208401356001600160401b0381111561406f578182fd5b61407b86828701613c2d565b92505060408401356001600160401b03811115614096578182fd5b613f0886828701613acd565b6000602082840312156140b3578081fd5b818101356001600160401b038111156140ca578182fd5b6108ee84828501613b9d565b6000806000606084860312156140ea578081fd5b838101356001600160401b03811115614101578182fd5b61410d86828701613b9d565b93505060208401356001600160401b03811115614128578182fd5b613ef786828701613a5a565b600060208284031215614145578081fd5b818101356001600160401b0381111561415c578182fd5b6108ee84828501613c2d565b6000806040838503121561417a578182fd5b828201356001600160401b03811115614191578283fd5b61419d85828601613c2d565b92505060208301356001600160401b038111156141b8578182fd5b613ea085828601613acd565b6000806000606084860312156141d8578081fd5b838101356001600160401b038111156141ef578182fd5b6141fb86828701613c2d565b93505060208401356001600160401b03811115614216578182fd5b61422286828701613acd565b92505060408401356001600160401b0381111561423d578182fd5b613f0886828701613a5a565b60006020828403121561425a578081fd5b613d2783828401613cff565b6000614272838361437c565b505060200190565b61428381615175565b82525050565b61428381615138565b61429b81615113565b6142a5818461062f565b92506142b082615104565b60005b82811015611c525781516142c78682614266565b9550506142d382615129565b91506001016142b3565b6142e681615119565b6142f0818461062f565b92506142fb82615104565b60005b82811015611c525781516143128682614266565b95505061431e82615129565b91506001016142fe565b6143318161511f565b61433b818461062f565b925061434682615104565b60005b82811015611c5257815161435d8682614266565b95505061436982615129565b9150600101614349565b61428381615143565b61428381615104565b61428381615148565b600061439982615125565b6143a3818561512f565b93506143b38185602086016151a2565b6143bc816151d4565b9093019392505050565b6000815460018116600081146143e3576001811461440957614448565b607f60028304166143f4818761512f565b60ff1984168152955050602085019250614448565b60028204614417818761512f565b955061442285615107565b60005b8281101561444157815488820152600190910190602001614425565b8701945050505b505092915050565b61428381615155565b61428381615180565b600061446f602b8361512f565b7f496e766573746d656e74206f6e6c7920706f737369626c652066726f6d207368918101919091526a1a595b191959081c1bdbdb60aa1b6020820152604001919050565b60006144c0601c8361512f565b7b1bdb9b1e481bdddb995c8818d85b881899481c9959da5cdd195c995960221b91810191909152602001919050565b60006144fc60158361512f565b74125b9d985b1a59081c1d589b1a58c8185b5bdd5b9d605a1b91810191909152602001919050565b600061453160248361512f565b7f496e76616c69642070726f6a65637420746f6b656e207472616e73666572207091810191909152633937b7b360e11b6020820152604001919050565b600061457b60128361512f565b71125b9d985b1a5908195e1d08185b5bdd5b9d60721b91810191909152602001919050565b60006145ad602a8361512f565b7f50656e64696e6720636f6d6d69746d656e742031206d757374207374696c6c20918101919091526962652070656e64696e6760b01b6020820152604001919050565b60006145fd60138361512f565b72125b9d985b1a59081b595c9adb19481c9bdbdd606a1b91810191909152602001919050565b6000614630601c8361512f565b7b092dcc6dee4e4cac6e840caf0e8cae4dcc2d840c8c2e8c240d0c2e6d60231b91810191909152602001919050565b600061466c601e8361512f565b7f43616e277420776974686472617720746f207a65726f2061646472657373000091810191909152602001919050565b60006146a9600f8361512f565b6e6f6e6c7920676f7665726e616e636560881b91810191909152602001919050565b60006146d860218361512f565b7f4465706f73697473206f6e6c7920696e206d61696e20747261646520746f6b6591810191909152603760f91b6020820152604001919050565b600061471f600b8361512f565b6a496e76616c69642066656560a81b91810191909152602001919050565b600061474a601d8361512f565b7f4e6f6e2d6d61746368696e67207075626c696320746f6b656e2049447300000091810191909152602001919050565b6000614787600d8361512f565b6c496e7075742070656e64696e6760981b91810191909152602001919050565b60006147b460198361512f565b7818d85b881b9bdd081c995cd8dd59481c1bdbdb08185cdcd95d603a1b91810191909152602001919050565b60006147ed60198361512f565b7824b73b30b634b2103a3930b739b0b1ba34b7b710383937b7b360391b91810191909152602001919050565b600061482660228361512f565b7f546f6b656e4964206d7573742062652066726f6d2070726f6a656374206f776e918101919091526132b960f11b6020820152604001919050565b600061486e60178361512f565b76125b9d985b1a59081c1d589b1a58c81d1bdad95b881251604a1b91810191909152602001919050565b60006148a560288361512f565b7f50656e64696e6720636f6d6d69746d656e74206d757374207374696c6c20626591810191909152672070656e64696e6760c01b6020820152604001919050565b60006148f3602a8361512f565b7f50656e64696e6720636f6d6d69746d656e742032206d757374207374696c6c20918101919091526962652070656e64696e6760b01b6020820152604001919050565b6000614942818361512f565b01919050565b600061495560168361512f565b75125b9c1d5d081a5cc8185b1c9958591e481cdc195b9d60521b91810191909152602001919050565b600061498b60228361512f565b7f544f524e3a2063616e206e6f742073656e6420746f207a65726f2061646472659181019190915261737360f01b6020820152604001919050565b60006149d360298361512f565b7f56616c7565206f6620746f6b656e206d7573742062652073616d6520617320619181019190915268191d995c9d1a5e995960ba1b6020820152604001919050565b6000614a22601c8361512f565b7b6f6e6c79206f6e652070726f6a65637420706572206164647265737360201b91810191909152602001919050565b6000614a5e601e8361512f565b7f544f524e3a20747279696e6720746f2073656e6420302062616c616e6365000091810191909152602001919050565b6000614a9b60138361512f565b72125b9c1d5d08185b1c9958591e481cdc195b9d606a1b91810191909152602001919050565b6000614ace60178361512f565b761d5b9cdd5c1c1bdc9d1959081a5b9c1d5d0818dbdd5b9d604a1b91810191909152602001919050565b6000614b05602a8361512f565b7f616d6f756e74206973206c6172676572207468616e206d6178696d756d44657091810191909152691bdcda5d105b5bdd5b9d60b21b6020820152604001919050565b80516000906040840190614b5c8582614289565b5060208301518482036020860152611b36828261438e565b805160009060e0840190614b888582614289565b506020830151614b9b602086018261437c565b506040830151614bae604086018261437c565b506060830151614bc16060860182614289565b506080830151614bd4608086018261437c565b5060a083015184820360a0860152614bec828261438e565b91505060c083015184820360c0860152611b36828261438e565b6142838161518b565b6142838161516c565b602081016108f28284614289565b60608101614c34828661427a565b614c416020830185614289565b614c4e604083018461437c565b949350505050565b60408101614c64828561427a565b613d27602083018461437c565b60808101614c7f8286614289565b614c8c6020830185614459565b614c996040830184614459565b8181036060830152611b3681614936565b60408101614c648285614289565b60808101614cc68286614289565b614c8c602083018561437c565b60808101614ce18286614289565b614cee602083018561437c565b614c99604083018461437c565b602081016108f28284614373565b602081016108f2828461437c565b60408101614d25828561437c565b8181036020830152614c4e818461438e565b60608101614d45828661437c565b614d526020830185614c06565b8181036040830152611b36818461438e565b60608101614d72828661437c565b614d7f6020830185614c06565b8181036040830152611b3681846143c6565b602081016108f28284614385565b60208082528101613d27818461438e565b6102e08082528101614dc2818561438e565b9050613d276020830184614292565b60a08082528101614de2818561438e565b9050613d2760208301846142dd565b6101208082528101614e03818561438e565b9050613d276020830184614328565b60808082528101614e23818761438e565b9050614e32602083018661437c565b8181036040830152614e44818561438e565b90508181036060830152614e58818461438e565b9695505050505050565b602081016108f28284614450565b6020808252810161062c81614462565b6020808252810161062c816144b3565b6020808252810161062c816144ef565b6020808252810161062c81614524565b6020808252810161062c8161456e565b6020808252810161062c816145a0565b6020808252810161062c816145f0565b6020808252810161062c81614623565b6020808252810161062c8161465f565b6020808252810161062c8161469c565b6020808252810161062c816146cb565b6020808252810161062c81614712565b6020808252810161062c8161473d565b6020808252810161062c8161477a565b6020808252810161062c816147a7565b6020808252810161062c816147e0565b6020808252810161062c81614819565b6020808252810161062c81614861565b6020808252810161062c81614898565b6020808252810161062c816148e6565b6020808252810161062c81614948565b6020808252810161062c8161497e565b6020808252810161062c816149c6565b6020808252810161062c81614a15565b6020808252810161062c81614a51565b6020808252810161062c81614a8e565b6020808252810161062c81614ac1565b6020808252810161062c81614af8565b60808082528101614e238187614b48565b60208082528101613d278184614b74565b60408101614c64828561437c565b602081016108f28284614c0f565b6040518181016001600160401b038111828210171561508f5761508f6151d2565b604052919050565b60006001600160401b038211156150b0576150b06151d2565b5060200290565b60006001600160401b038211156150d0576150d06151d2565b5060209081020190565b60006001600160401b038211156150f3576150f36151d2565b506020601f91909101601f19160190565b90565b60009081526020902090565b50601690565b50600490565b50600890565b5190565b60200190565b90815260200190565b600061062c82615160565b151590565b6001600160e01b03191690565b600061062c82615138565b6001600160a01b031690565b63ffffffff1690565b600061062c82615155565b600061062c82615104565b600061062c8261516c565b82818337506000910152565b60005b838110156151bd5781810151838201526020016151a5565b838111156151cc576000848401525b50505050565bfe5b601f01601f191690565b6151e781615138565b81146116a057600080fd5b6151e781615143565b6151e781615104565b6151e781615148565b6151e78161515556fe5265656e7472616e637947756172643a207265656e7472616e742063616c6c00f3843eddcfcac65d12d9f26261dab50671fdbf5dc44441816c8bbdace2411afd8d1108e10bcb7c27dddfc02ed9d693a074039d026cf4ea4240b40f7d581ac8039696f970955787e07d2d6986525b90f8e6c571474b35e1002db8443e65c9ee9e5f72696768742073686f756c6420626520696e7369646520746865206669656c642fe54c60d3acabf3343a35b6eba15db4821b340f76e741e2249685ed4899af6c1b6847dc741a1b0cd08d278845f9d819d87b734759afb55fe2de5cb82a9ae673496e697469616c697a61626c653a20636f6e747261637420697320616c726561647920696e697469616c697a656430644e72e131a029b85045b68181585d2833e84879b9709143e1f593f00000015e58f77bbf94b46d8d896e29753e4458c6e59b48581e20ed58c9558e96f297ce1b6847dc741a1b0cd08d278845f9d819d87b734759afb55fe2de5cb82a9ae6724d65726b6c6520747265652069732066756c6c2e204e6f206d6f7265206c65617665732063616e2062652061646465648d1108e10bcb7c27dddfc02ed9d693a074039d026cf4ea4240b40f7d581ac802a264697066735822122024bcaae493d6c4553c1a44a7122810e7b3a0557ffb56291c8d4ab258d43fc5e564736f6c634300070600335f6c6576656c732073686f756c642062652067726561746572207468616e207a65726f",
  "linkReferences": {},
  "deployedLinkReferences": {}
}