{
  "_format": "hh-sol-artifact-1",
  "contractName": "ProjectTokenTransferVerifier",
  "sourceName": "contracts/ProjectTokenTransferVerifier.sol",
  "abi": [
    {
      "inputs": [
        {
          "internalType": "bytes",
          "name": "proof",
          "type": "bytes"
        },
        {
          "internalType": "uint256[4]",
          "name": "input",
          "type": "uint256[4]"
        }
      ],
      "name": "verifyProof",
      "outputs": [
        {
          "internalType": "bool",
          "name": "",
          "type": "bool"
        }
      ],
      "stateMutability": "view",
      "type": "function"
    }
  ],
  "bytecode": "0x608060405234801561001057600080fd5b50610c5e806100206000396000f3fe608060405234801561001057600080fd5b506004361061002b5760003560e01c80636bf062b214610030575b600080fd5b610100600480360360a081101561004657600080fd5b810190602081018135600160201b81111561006057600080fd5b82018360208201111561007257600080fd5b803590602001918460018302840111600160201b8311171561009357600080fd5b91908080601f0160208091040260200160405190810160405280939291908181526020018383808284376000920191909152505060408051608081810190925293969594818101949350915060049083908390808284376000920191909152509194506101149350505050565b604080519115158252519081900360200190f35b6000808380602001905161010081101561012d57600080fd5b50905060005b60088160ff1610156101a657600080516020610bc2833981519152828260ff166008811061015d57fe5b60200201511061019e5760405162461bcd60e51b8152600401808060200182810382526022815260200180610c076022913960400191505060405180910390fd5b600101610133565b5060006040518060400160405280836000600881106101c157fe5b60200201518152602001836001600881106101d857fe5b602002015190526040805160808101825284820151918101918252919250600091908190606082018660036020020151815250815260200160405180604001604052808660046008811061022857fe5b602002015181526020018660056008811061023f57fe5b6020020151905290526040805180820190915290915060009080856006602002015181526020018560076008811061027357fe5b6020020151905290506000610286610383565b60808101515190915060005b600481101561034d577f30644e72e131a029b85045b68181585d2833e84879b9709143e1f593f00000018982600481106102c857fe5b6020020151106103095760405162461bcd60e51b8152600401808060200182810382526025815260200180610be26025913960400191505060405180910390fd5b6103438261033e8560800151846001016005811061032357fe5b60200201518c856004811061033457fe5b60200201516107a4565b61083b565b9150600101610292565b5061037661035a866108d9565b858460000151856020015185876040015189896060015161095c565b9998505050505050505050565b61038b610ad2565b6040805180820182527f2d4d9aa7e302d9df41749d5507949d05dbea33fbb16c643b22f599a2be6df2e281527f14bedd503c37ceb061d8ec60209fe345ce89830a19230301f076caff004d19266020808301919091529083528151608080820184527f0967032fcbf776d1afc985f88877f182d38480a653f2decaa9794cbc3bf3060c8285019081527f0e187847ad4c798374d0d6732bf501847dd68bc0e071241e0213bc7fc13db7ab606080850191909152908352845180860186527f304cfbd1e08a704a99f5e847d93f8c3caafddec46b7a0d379da69a4d112346a781527f1739c1b1a457a8c7313123d24d2f9192f896b7c63eea05a9d57f06547ad0cec8818601528385015285840192909252835180820185527f198e9393920d483a7260bfb731fb5d25f1aa493335a9e71297e485b7aef312c28186019081527f1800deef121f1e76426a00665e5c4479674322d4f75edadd46debd5cd992f6ed828501528152845180860186527f090689d0585ff075ec9e99ad690c3395bc4b313370b38ef355acdadcd122975b81527f12c85ea5db8c6deb4aab71808dcb408fe3d1e7690c43d37b4ce6cc0166fa7daa818601528185015285850152835180820185527f2e9de3182fd99af6a063322a441e0907d8d12853b41ec8c70fcdd5ab9d66426b8186019081527f2418eadfd35c4578925d8fac29a1148cadb362f584002b6f73c6cdeeba856ce7828501528152845180860186527f188a22d1cf3c2b0cdb7cf10a963820c59105efa17e25b9b56ed00ef88139e27381527f13c65c2bd35488ea1308de1e643c2bb341d2f503697dc8c7dddf44f9c0237fa7818601528185015282860152835180850185527f234feee6c43001ac5526c10eba80625fc84b2dc40313227cb7e0ca80e599dc5781527f02db62430356ddd316909bd9668ceff45d0f37d8ef94fcdcafb202c16bd3aca981850152818601805191909152845180860186527f0e05ab58353045852df8e8c9ab0097b84b8d70c1dd14efa8c9ee6349fd11f30081527f14c86dacfc9bf6782fe92f24a52af6cd8c4fef63e7d946b3bd00822e9ba71ca8818601528151850152845180860186527f1fac122b9afda1053efaa3bf703ea03f4ba02c4f6256e84dce93aad3cf9ac17b81527f042cac9b290e7710f061b62288e1592df01505941cd48c96d9df65f4a3dd017d818601528151860152845180860186527f2eedf218c1192da2fa2d344c67039a85fd9d1ba582cdbaae095fbb0edbfadd9481527f21f6b812a6e6c8ef0d75c2fc58d6d00a6ee49899908a7c510ac87f95a376eb818186015281519093019290925283518085019094527f2e7e1ce82ebc27ed408d9d5b6d53f573409af885d494ddecaa05d57d7828496e84527f016f6be46167832e853bebd04adf88d16a9942f9f1d66b75c71e8a0f0a82cc059284019290925251015290565b6107ac610b1e565b60408051606080820183528551825260208087015190830152918101849052906000908360808460076107d05a03fa90508080156107e9576107eb565bfe5b5080610833576040805162461bcd60e51b81526020600482015260126024820152711c185a5c9a5b99cb5b5d5b0b59985a5b195960721b604482015290519081900360640190fd5b505092915050565b610843610b1e565b6000604051806080016040528085600001518152602001856020015181526020018460000151815260200184602001518152509050600060608360c08460066107d05a03fa90508080156107e9575080610833576040805162461bcd60e51b81526020600482015260126024820152711c185a5c9a5b99cb5859190b59985a5b195960721b604482015290519081900360640190fd5b6108e1610b1e565b81511580156108f257506020820151155b1561091157506040805180820190915260008082526020820152610957565b604051806040016040528083600001518152602001600080516020610bc283398151915284602001518161094157fe5b06600080516020610bc283398151915203905290505b919050565b6040805161030081018252895181526020808b015181830152895151928201929092528851820151606082015288820180515160808301525182015160a0820152875160c08201528782015160e08201528651516101008201528651820151610120820152868201805151610140830152518201516101608201528551610180820152858201516101a08201528451516101c082015284518201516101e08201528482018051516102008301525182015161022082015283516102408201528382015161026082015282515161028082015282518201516102a08201528282018051516102c083015251909101516102e0820152600090610a5b610b38565b60006020826103008560086107d05a03fa90508080156107e9575080610ac0576040805162461bcd60e51b81526020600482015260156024820152741c185a5c9a5b99cb5bdc18dbd9194b59985a5b1959605a1b604482015290519081900360640190fd5b505115159a9950505050505050505050565b6040518060a00160405280610ae5610b1e565b8152602001610af2610b56565b8152602001610aff610b56565b8152602001610b0c610b56565b8152602001610b19610b76565b905290565b604051806040016040528060008152602001600081525090565b60405180602001604052806001906020820280368337509192915050565b6040518060400160405280610b69610ba3565b8152602001610b19610ba3565b6040518060a001604052806005905b610b8d610b1e565b815260200190600190039081610b855790505090565b6040518060400160405280600290602082028036833750919291505056fe30644e72e131a029b85045b68181585d97816a916871ca8d3c208c16d87cfd4776657269666965722d696e7075742d6774652d736e61726b2d7363616c61722d6669656c6476657269666965722d70726f6f662d656c656d656e742d6774652d7072696d652d71a26469706673582212203489fed9eadcdfc88a052b33855f3bfa9d825897943e3ed81c944a3e7f4fcba564736f6c63430007060033",
  "linkReferences": {},
  "deployedLinkReferences": {}
}