{
  "_format": "hh-sol-artifact-1",
  "contractName": "OwnableERC1155",
  "sourceName": "contracts/tokens/OwnableERC1155.sol",
  "abi": [
    {
      "inputs": [
        {
          "internalType": "string",
          "name": "_tokensUri",
          "type": "string"
        }
      ],
      "stateMutability": "nonpayable",
      "type": "constructor"
    },
    {
      "anonymous": false,
      "inputs": [
        {
          "indexed": true,
          "internalType": "address",
          "name": "account",
          "type": "address"
        },
        {
          "indexed": true,
          "internalType": "address",
          "name": "operator",
          "type": "address"
        },
        {
          "indexed": false,
          "internalType": "bool",
          "name": "approved",
          "type": "bool"
        }
      ],
      "name": "ApprovalForAll",
      "type": "event"
    },
    {
      "anonymous": false,
      "inputs": [
        {
          "indexed": true,
          "internalType": "address",
          "name": "operator",
          "type": "address"
        },
        {
          "indexed": true,
          "internalType": "address",
          "name": "from",
          "type": "address"
        },
        {
          "indexed": true,
          "internalType": "address",
          "name": "to",
          "type": "address"
        },
        {
          "indexed": false,
          "internalType": "uint256[]",
          "name": "ids",
          "type": "uint256[]"
        },
        {
          "indexed": false,
          "internalType": "uint256[]",
          "name": "values",
          "type": "uint256[]"
        }
      ],
      "name": "TransferBatch",
      "type": "event"
    },
    {
      "anonymous": false,
      "inputs": [
        {
          "indexed": true,
          "internalType": "address",
          "name": "operator",
          "type": "address"
        },
        {
          "indexed": true,
          "internalType": "address",
          "name": "from",
          "type": "address"
        },
        {
          "indexed": true,
          "internalType": "address",
          "name": "to",
          "type": "address"
        },
        {
          "indexed": false,
          "internalType": "uint256",
          "name": "id",
          "type": "uint256"
        },
        {
          "indexed": false,
          "internalType": "uint256",
          "name": "value",
          "type": "uint256"
        }
      ],
      "name": "TransferSingle",
      "type": "event"
    },
    {
      "anonymous": false,
      "inputs": [
        {
          "indexed": false,
          "internalType": "string",
          "name": "value",
          "type": "string"
        },
        {
          "indexed": true,
          "internalType": "uint256",
          "name": "id",
          "type": "uint256"
        }
      ],
      "name": "URI",
      "type": "event"
    },
    {
      "inputs": [
        {
          "internalType": "address",
          "name": "account",
          "type": "address"
        },
        {
          "internalType": "uint256",
          "name": "id",
          "type": "uint256"
        }
      ],
      "name": "balanceOf",
      "outputs": [
        {
          "internalType": "uint256",
          "name": "",
          "type": "uint256"
        }
      ],
      "stateMutability": "view",
      "type": "function"
    },
    {
      "inputs": [
        {
          "internalType": "address[]",
          "name": "accounts",
          "type": "address[]"
        },
        {
          "internalType": "uint256[]",
          "name": "ids",
          "type": "uint256[]"
        }
      ],
      "name": "balanceOfBatch",
      "outputs": [
        {
          "internalType": "uint256[]",
          "name": "",
          "type": "uint256[]"
        }
      ],
      "stateMutability": "view",
      "type": "function"
    },
    {
      "inputs": [
        {
          "internalType": "address",
          "name": "_newOwner",
          "type": "address"
        }
      ],
      "name": "changeOwner",
      "outputs": [],
      "stateMutability": "nonpayable",
      "type": "function"
    },
    {
      "inputs": [
        {
          "internalType": "address",
          "name": "account",
          "type": "address"
        },
        {
          "internalType": "address",
          "name": "operator",
          "type": "address"
        }
      ],
      "name": "isApprovedForAll",
      "outputs": [
        {
          "internalType": "bool",
          "name": "",
          "type": "bool"
        }
      ],
      "stateMutability": "view",
      "type": "function"
    },
    {
      "inputs": [],
      "name": "isOwner",
      "outputs": [
        {
          "internalType": "bool",
          "name": "",
          "type": "bool"
        }
      ],
      "stateMutability": "view",
      "type": "function"
    },
    {
      "inputs": [
        {
          "internalType": "address",
          "name": "_account",
          "type": "address"
        },
        {
          "internalType": "uint256",
          "name": "_id",
          "type": "uint256"
        },
        {
          "internalType": "uint256",
          "name": "_amount",
          "type": "uint256"
        },
        {
          "internalType": "bytes",
          "name": "_data",
          "type": "bytes"
        }
      ],
      "name": "mint",
      "outputs": [],
      "stateMutability": "nonpayable",
      "type": "function"
    },
    {
      "inputs": [],
      "name": "owner",
      "outputs": [
        {
          "internalType": "address",
          "name": "",
          "type": "address"
        }
      ],
      "stateMutability": "view",
      "type": "function"
    },
    {
      "inputs": [
        {
          "internalType": "address",
          "name": "from",
          "type": "address"
        },
        {
          "internalType": "address",
          "name": "to",
          "type": "address"
        },
        {
          "internalType": "uint256[]",
          "name": "ids",
          "type": "uint256[]"
        },
        {
          "internalType": "uint256[]",
          "name": "amounts",
          "type": "uint256[]"
        },
        {
          "internalType": "bytes",
          "name": "data",
          "type": "bytes"
        }
      ],
      "name": "safeBatchTransferFrom",
      "outputs": [],
      "stateMutability": "nonpayable",
      "type": "function"
    },
    {
      "inputs": [
        {
          "internalType": "address",
          "name": "from",
          "type": "address"
        },
        {
          "internalType": "address",
          "name": "to",
          "type": "address"
        },
        {
          "internalType": "uint256",
          "name": "id",
          "type": "uint256"
        },
        {
          "internalType": "uint256",
          "name": "amount",
          "type": "uint256"
        },
        {
          "internalType": "bytes",
          "name": "data",
          "type": "bytes"
        }
      ],
      "name": "safeTransferFrom",
      "outputs": [],
      "stateMutability": "nonpayable",
      "type": "function"
    },
    {
      "inputs": [
        {
          "internalType": "address",
          "name": "operator",
          "type": "address"
        },
        {
          "internalType": "bool",
          "name": "approved",
          "type": "bool"
        }
      ],
      "name": "setApprovalForAll",
      "outputs": [],
      "stateMutability": "nonpayable",
      "type": "function"
    },
    {
      "inputs": [
        {
          "internalType": "string",
          "name": "_newUri",
          "type": "string"
        }
      ],
      "name": "setURI",
      "outputs": [],
      "stateMutability": "nonpayable",
      "type": "function"
    },
    {
      "inputs": [
        {
          "internalType": "bytes4",
          "name": "interfaceId",
          "type": "bytes4"
        }
      ],
      "name": "supportsInterface",
      "outputs": [
        {
          "internalType": "bool",
          "name": "",
          "type": "bool"
        }
      ],
      "stateMutability": "view",
      "type": "function"
    },
    {
      "inputs": [
        {
          "internalType": "uint256",
          "name": "",
          "type": "uint256"
        }
      ],
      "name": "uri",
      "outputs": [
        {
          "internalType": "string",
          "name": "",
          "type": "string"
        }
      ],
      "stateMutability": "view",
      "type": "function"
    }
  ],
  "bytecode": "0x60806040523480156200001157600080fd5b5060405162001d7a38038062001d7a833981810160405260208110156200003757600080fd5b81019080805160405193929190846401000000008211156200005857600080fd5b9083019060208201858111156200006e57600080fd5b82516401000000008111828201881017156200008957600080fd5b82525081516020918201929091019080838360005b83811015620000b85781810151838201526020016200009e565b50505050905090810190601f168015620000e65780820380516001836020036101000a031916815260200191505b50604052508291506200010290506301ffc9a760e01b6200014b565b6200010d81620001d0565b6200011f636cdb3d1360e11b6200014b565b620001316303a24d0760e21b6200014b565b5050600480546001600160a01b0319163317905562000295565b6001600160e01b03198082161415620001ab576040805162461bcd60e51b815260206004820152601c60248201527f4552433136353a20696e76616c696420696e7465726661636520696400000000604482015290519081900360640190fd5b6001600160e01b0319166000908152602081905260409020805460ff19166001179055565b8051620001e5906003906020840190620001e9565b5050565b828054600181600116156101000203166002900490600052602060002090601f0160209004810192826200022157600085556200026c565b82601f106200023c57805160ff19168380011785556200026c565b828001600101855582156200026c579182015b828111156200026c5782518255916020019190600101906200024f565b506200027a9291506200027e565b5090565b5b808211156200027a57600081556001016200027f565b611ad580620002a56000396000f3fe608060405234801561001057600080fd5b50600436106100ae5760003560e01c8062fdd58e146100b357806301ffc9a7146100f157806302fe53051461012c5780630e89341c146101d25780632eb2c2d6146102645780634e1273f414610425578063731133e9146105985780638da5cb5b146106585780638f32d59b1461067c578063a22cb46514610684578063a6f9dae1146106b2578063e985e9c5146106d8578063f242432a14610706575b600080fd5b6100df600480360360408110156100c957600080fd5b506001600160a01b0381351690602001356107cf565b60408051918252519081900360200190f35b6101186004803603602081101561010757600080fd5b50356001600160e01b03191661083e565b604080519115158252519081900360200190f35b6101d06004803603602081101561014257600080fd5b810190602081018135600160201b81111561015c57600080fd5b82018360208201111561016e57600080fd5b803590602001918460018302840111600160201b8311171561018f57600080fd5b91908080601f01602080910402602001604051908101604052809392919081815260200183838082843760009201919091525092955061085d945050505050565b005b6101ef600480360360208110156101e857600080fd5b50356108ac565b6040805160208082528351818301528351919283929083019185019080838360005b83811015610229578181015183820152602001610211565b50505050905090810190601f1680156102565780820380516001836020036101000a031916815260200191505b509250505060405180910390f35b6101d0600480360360a081101561027a57600080fd5b6001600160a01b038235811692602081013590911691810190606081016040820135600160201b8111156102ad57600080fd5b8201836020820111156102bf57600080fd5b803590602001918460208302840111600160201b831117156102e057600080fd5b9190808060200260200160405190810160405280939291908181526020018383602002808284376000920191909152509295949360208101935035915050600160201b81111561032f57600080fd5b82018360208201111561034157600080fd5b803590602001918460208302840111600160201b8311171561036257600080fd5b9190808060200260200160405190810160405280939291908181526020018383602002808284376000920191909152509295949360208101935035915050600160201b8111156103b157600080fd5b8201836020820111156103c357600080fd5b803590602001918460018302840111600160201b831117156103e457600080fd5b91908080601f016020809104026020016040519081016040528093929190818152602001838380828437600092019190915250929550610944945050505050565b6105486004803603604081101561043b57600080fd5b810190602081018135600160201b81111561045557600080fd5b82018360208201111561046757600080fd5b803590602001918460208302840111600160201b8311171561048857600080fd5b9190808060200260200160405190810160405280939291908181526020018383602002808284376000920191909152509295949360208101935035915050600160201b8111156104d757600080fd5b8201836020820111156104e957600080fd5b803590602001918460208302840111600160201b8311171561050a57600080fd5b919080806020026020016040519081016040528093929190818152602001838360200280828437600092019190915250929550610c42945050505050565b60408051602080825283518183015283519192839290830191858101910280838360005b8381101561058457818101518382015260200161056c565b505050509050019250505060405180910390f35b6101d0600480360360808110156105ae57600080fd5b6001600160a01b038235169160208101359160408201359190810190608081016060820135600160201b8111156105e457600080fd5b8201836020820111156105f657600080fd5b803590602001918460018302840111600160201b8311171561061757600080fd5b91908080601f016020809104026020016040519081016040528093929190818152602001838380828437600092019190915250929550610d2d945050505050565b610660610d82565b604080516001600160a01b039092168252519081900360200190f35b610118610d92565b6101d06004803603604081101561069a57600080fd5b506001600160a01b0381351690602001351515610da3565b6101d0600480360360208110156106c857600080fd5b50356001600160a01b0316610e92565b610118600480360360408110156106ee57600080fd5b506001600160a01b0381358116916020013516610ef7565b6101d0600480360360a081101561071c57600080fd5b6001600160a01b03823581169260208101359091169160408201359160608101359181019060a081016080820135600160201b81111561075b57600080fd5b82018360208201111561076d57600080fd5b803590602001918460018302840111600160201b8311171561078e57600080fd5b91908080601f016020809104026020016040519081016040528093929190818152602001838380828437600092019190915250929550610f25945050505050565b60006001600160a01b0383166108165760405162461bcd60e51b815260040180806020018281038252602b81526020018061190b602b913960400191505060405180910390fd5b5060009081526001602090815260408083206001600160a01b03949094168352929052205490565b6001600160e01b03191660009081526020819052604090205460ff1690565b610865610d92565b6108a05760405162461bcd60e51b8152600401808060200182810382526025815260200180611a326025913960400191505060405180910390fd5b6108a9816110de565b50565b60038054604080516020601f60026000196101006001881615020190951694909404938401819004810282018101909252828152606093909290918301828280156109385780601f1061090d57610100808354040283529160200191610938565b820191906000526020600020905b81548152906001019060200180831161091b57829003601f168201915b50505050509050919050565b81518351146109845760405162461bcd60e51b8152600401808060200182810382526028815260200180611a576028913960400191505060405180910390fd5b6001600160a01b0384166109c95760405162461bcd60e51b815260040180806020018281038252602581526020018061195f6025913960400191505060405180910390fd5b6109d16110e7565b6001600160a01b0316856001600160a01b031614806109fc57506109fc856109f76110e7565b610ef7565b610a375760405162461bcd60e51b81526004018080602001828103825260328152602001806119846032913960400191505060405180910390fd5b6000610a416110e7565b9050610a51818787878787610c3a565b60005b8451811015610b52576000858281518110610a6b57fe5b602002602001015190506000858381518110610a8357fe5b60200260200101519050610af0816040518060600160405280602a81526020016119b6602a91396001600086815260200190815260200160002060008d6001600160a01b03166001600160a01b03168152602001908152602001600020546110eb9092919063ffffffff16565b60008381526001602090815260408083206001600160a01b038e811685529252808320939093558a1681522054610b279082611182565b60009283526001602081815260408086206001600160a01b038d168752909152909320555001610a54565b50846001600160a01b0316866001600160a01b0316826001600160a01b03167f4a39dc06d4c0dbc64b70af90fd698a233a518aa5d07e595d983b8c0526c8f7fb8787604051808060200180602001838103835285818151815260200191508051906020019060200280838360005b83811015610bd8578181015183820152602001610bc0565b50505050905001838103825284818151815260200191508051906020019060200280838360005b83811015610c17578181015183820152602001610bff565b5050505090500194505050505060405180910390a4610c3a8187878787876111e1565b505050505050565b60608151835114610c845760405162461bcd60e51b8152600401808060200182810382526029815260200180611a096029913960400191505060405180910390fd5b600083516001600160401b0381118015610c9d57600080fd5b50604051908082528060200260200182016040528015610cc7578160200160208202803683370190505b50905060005b8451811015610d2557610d06858281518110610ce557fe5b6020026020010151858381518110610cf957fe5b60200260200101516107cf565b828281518110610d1257fe5b6020908102919091010152600101610ccd565b509392505050565b610d35610d92565b610d705760405162461bcd60e51b8152600401808060200182810382526025815260200180611a326025913960400191505060405180910390fd5b610d7c84848484611460565b50505050565b6004546001600160a01b03165b90565b6004546001600160a01b0316331490565b816001600160a01b0316610db56110e7565b6001600160a01b03161415610dfb5760405162461bcd60e51b81526004018080602001828103825260298152602001806119e06029913960400191505060405180910390fd5b8060026000610e086110e7565b6001600160a01b03908116825260208083019390935260409182016000908120918716808252919093529120805460ff191692151592909217909155610e4c6110e7565b6001600160a01b03167f17307eab39ab6107e8899845ad3d59bd9653f200f220920489ca2b5937696c318360405180821515815260200191505060405180910390a35050565b610e9a610d92565b610ed55760405162461bcd60e51b8152600401808060200182810382526025815260200180611a326025913960400191505060405180910390fd5b600480546001600160a01b0319166001600160a01b0392909216919091179055565b6001600160a01b03918216600090815260026020908152604080832093909416825291909152205460ff1690565b6001600160a01b038416610f6a5760405162461bcd60e51b815260040180806020018281038252602581526020018061195f6025913960400191505060405180910390fd5b610f726110e7565b6001600160a01b0316856001600160a01b03161480610f985750610f98856109f76110e7565b610fd35760405162461bcd60e51b81526004018080602001828103825260298152602001806119366029913960400191505060405180910390fd5b6000610fdd6110e7565b9050610ffd818787610fee8861146c565b610ff78861146c565b87610c3a565b611044836040518060600160405280602a81526020016119b6602a913960008781526001602090815260408083206001600160a01b038d16845290915290205491906110eb565b60008581526001602090815260408083206001600160a01b038b8116855292528083209390935587168152205461107b9084611182565b60008581526001602090815260408083206001600160a01b03808b168086529184529382902094909455805188815291820187905280518a8416938616926000805160206118eb83398151915292908290030190a4610c3a8187878787876114b1565b6108a981611622565b3390565b6000818484111561117a5760405162461bcd60e51b81526004018080602001828103825283818151815260200191508051906020019080838360005b8381101561113f578181015183820152602001611127565b50505050905090810190601f16801561116c5780820380516001836020036101000a031916815260200191505b509250505060405180910390fd5b505050900390565b6000828201838110156111da576040805162461bcd60e51b815260206004820152601b60248201527a536166654d6174683a206164646974696f6e206f766572666c6f7760281b604482015290519081900360640190fd5b9392505050565b6111f3846001600160a01b0316611639565b15610c3a57836001600160a01b031663bc197c8187878686866040518663ffffffff1660e01b815260040180866001600160a01b03168152602001856001600160a01b03168152602001806020018060200180602001848103845287818151815260200191508051906020019060200280838360005b83811015611281578181015183820152602001611269565b50505050905001848103835286818151815260200191508051906020019060200280838360005b838110156112c05781810151838201526020016112a8565b50505050905001848103825285818151815260200191508051906020019080838360005b838110156112fc5781810151838201526020016112e4565b50505050905090810190601f1680156113295780820380516001836020036101000a031916815260200191505b5098505050505050505050602060405180830381600087803b15801561134e57600080fd5b505af192505050801561137357506040513d602081101561136e57600080fd5b505160015b6114085761137f6117e6565b8061138a57506113d1565b60405162461bcd60e51b815260206004820181815283516024840152835184939192839260440191908501908083836000831561113f578181015183820152602001611127565b60405162461bcd60e51b815260040180806020018281038252603481526020018061188f6034913960400191505060405180910390fd5b6001600160e01b0319811663bc197c8160e01b146114575760405162461bcd60e51b81526004018080602001828103825260288152602001806118c36028913960400191505060405180910390fd5b50505050505050565b610d7c8484848461163f565b604080516001808252818301909252606091600091906020808301908036833701905050905082816000815181106114a057fe5b602090810291909101015292915050565b6114c3846001600160a01b0316611639565b15610c3a57836001600160a01b031663f23a6e6187878686866040518663ffffffff1660e01b815260040180866001600160a01b03168152602001856001600160a01b0316815260200184815260200183815260200180602001828103825283818151815260200191508051906020019080838360005b8381101561155257818101518382015260200161153a565b50505050905090810190601f16801561157f5780820380516001836020036101000a031916815260200191505b509650505050505050602060405180830381600087803b1580156115a257600080fd5b505af19250505080156115c757506040513d60208110156115c257600080fd5b505160015b6115d35761137f6117e6565b6001600160e01b0319811663f23a6e6160e01b146114575760405162461bcd60e51b81526004018080602001828103825260288152602001806118c36028913960400191505060405180910390fd5b8051611635906003906020840190611735565b5050565b3b151590565b6001600160a01b0384166116845760405162461bcd60e51b8152600401808060200182810382526021815260200180611a7f6021913960400191505060405180910390fd5b600061168e6110e7565b90506116a081600087610fee8861146c565b60008481526001602090815260408083206001600160a01b03891684529091529020546116cd9084611182565b60008581526001602090815260408083206001600160a01b03808b16808652918452828520959095558151898152928301889052815190948616926000805160206118eb83398151915292908290030190a461172e816000878787876114b1565b5050505050565b828054600181600116156101000203166002900490600052602060002090601f01602090048101928261176b57600085556117b1565b82601f1061178457805160ff19168380011785556117b1565b828001600101855582156117b1579182015b828111156117b1578251825591602001919060010190611796565b506117bd9291506117c1565b5090565b5b808211156117bd57600081556001016117c2565b601f01601f191690565b60e01c90565b600060443d10156117f657610d8f565b600481823e61180581516117e0565b6308c379a081146118165750610d8f565b5060405160043d036004823e80516001600160401b0381113d60248301111715611841575050610d8f565b810180516001600160401b0381111561185c57505050610d8f565b8060208301013d84018111156118755750505050610d8f565b5061187f816117d6565b8201602001604052509150509056fe455243313135353a207472616e7366657220746f206e6f6e2045524331313535526563656976657220696d706c656d656e746572455243313135353a204552433131353552656365697665722072656a656374656420746f6b656e73c3d58168c5ae7397731d063d5bbf3d657854427343f4c083240f7aacaa2d0f62455243313135353a2062616c616e636520717565727920666f7220746865207a65726f2061646472657373455243313135353a2063616c6c6572206973206e6f74206f776e6572206e6f7220617070726f766564455243313135353a207472616e7366657220746f20746865207a65726f2061646472657373455243313135353a207472616e736665722063616c6c6572206973206e6f74206f776e6572206e6f7220617070726f766564455243313135353a20696e73756666696369656e742062616c616e636520666f72207472616e73666572455243313135353a2073657474696e6720617070726f76616c2073746174757320666f722073656c66455243313135353a206163636f756e747320616e6420696473206c656e677468206d69736d6174636846756e6374696f6e2061636365737369626c65206f6e6c7920627920746865206f776e6572455243313135353a2069647320616e6420616d6f756e7473206c656e677468206d69736d61746368455243313135353a206d696e7420746f20746865207a65726f2061646472657373a2646970667358221220c467d0b5dd64243ea3d421b221ae04af36c300a3aaa2d13fe27fe1b8519966b964736f6c63430007060033",
  "linkReferences": {},
  "deployedLinkReferences": {}
}